{
  "contractName": "ClothingExchange",
  "abi": [
    {
      "inputs": [],
      "stateMutability": "nonpayable",
      "type": "constructor"
    },
    {
      "anonymous": false,
      "inputs": [
        {
          "indexed": false,
          "internalType": "address",
          "name": "buyer",
          "type": "address"
        },
        {
          "indexed": true,
          "internalType": "uint256",
          "name": "clothId",
          "type": "uint256"
        },
        {
          "indexed": false,
          "internalType": "uint256",
          "name": "newPrice",
          "type": "uint256"
        }
      ],
      "name": "LogAddedBargain",
      "type": "event"
    },
    {
      "anonymous": false,
      "inputs": [
        {
          "indexed": false,
          "internalType": "address",
          "name": "buyer",
          "type": "address"
        },
        {
          "indexed": true,
          "internalType": "uint256",
          "name": "clothId",
          "type": "uint256"
        }
      ],
      "name": "LogClothReceived",
      "type": "event"
    },
    {
      "anonymous": false,
      "inputs": [
        {
          "indexed": false,
          "internalType": "address",
          "name": "seller",
          "type": "address"
        },
        {
          "indexed": true,
          "internalType": "uint256",
          "name": "clothId",
          "type": "uint256"
        }
      ],
      "name": "LogClothShipped",
      "type": "event"
    },
    {
      "anonymous": false,
      "inputs": [
        {
          "indexed": false,
          "internalType": "address",
          "name": "buyer",
          "type": "address"
        },
        {
          "indexed": true,
          "internalType": "uint256",
          "name": "clothId",
          "type": "uint256"
        }
      ],
      "name": "LogClothingBought",
      "type": "event"
    },
    {
      "anonymous": false,
      "inputs": [
        {
          "indexed": false,
          "internalType": "address",
          "name": "buyer",
          "type": "address"
        },
        {
          "indexed": true,
          "internalType": "uint256",
          "name": "clothId",
          "type": "uint256"
        },
        {
          "indexed": false,
          "internalType": "uint256",
          "name": "confirmedPrice",
          "type": "uint256"
        }
      ],
      "name": "LogConfirmedNewPrice",
      "type": "event"
    },
    {
      "anonymous": false,
      "inputs": [
        {
          "indexed": false,
          "internalType": "address",
          "name": "seller",
          "type": "address"
        },
        {
          "indexed": true,
          "internalType": "uint256",
          "name": "clothId",
          "type": "uint256"
        }
      ],
      "name": "LogListClothingForSale",
      "type": "event"
    },
    {
      "inputs": [],
      "name": "BARGAIN_ADDRESS_LIMIT",
      "outputs": [
        {
          "internalType": "uint256",
          "name": "",
          "type": "uint256"
        }
      ],
      "stateMutability": "view",
      "type": "function"
    },
    {
      "inputs": [
        {
          "internalType": "uint256",
          "name": "",
          "type": "uint256"
        }
      ],
      "name": "clothing",
      "outputs": [
        {
          "internalType": "uint256",
          "name": "clothId",
          "type": "uint256"
        },
        {
          "internalType": "string",
          "name": "name",
          "type": "string"
        },
        {
          "internalType": "uint256",
          "name": "initialPrice",
          "type": "uint256"
        },
        {
          "internalType": "string",
          "name": "description",
          "type": "string"
        },
        {
          "internalType": "string",
          "name": "brand",
          "type": "string"
        },
        {
          "internalType": "enum ClothingExchange.Sizes",
          "name": "size",
          "type": "uint8"
        },
        {
          "internalType": "string",
          "name": "recommendedAge",
          "type": "string"
        },
        {
          "internalType": "enum ClothingExchange.State",
          "name": "state",
          "type": "uint8"
        },
        {
          "internalType": "address payable",
          "name": "seller",
          "type": "address"
        },
        {
          "internalType": "address payable",
          "name": "buyer",
          "type": "address"
        },
        {
          "internalType": "uint256",
          "name": "tempPriceCounter",
          "type": "uint256"
        },
        {
          "internalType": "uint256",
          "name": "agreedPrice",
          "type": "uint256"
        }
      ],
      "stateMutability": "view",
      "type": "function"
    },
    {
      "inputs": [],
      "name": "clothingCounter",
      "outputs": [
        {
          "internalType": "uint256",
          "name": "",
          "type": "uint256"
        }
      ],
      "stateMutability": "view",
      "type": "function"
    },
    {
      "inputs": [
        {
          "internalType": "string",
          "name": "_name",
          "type": "string"
        },
        {
          "internalType": "uint256",
          "name": "_initialPrice",
          "type": "uint256"
        },
        {
          "internalType": "string",
          "name": "_description",
          "type": "string"
        },
        {
          "internalType": "string",
          "name": "_brand",
          "type": "string"
        },
        {
          "internalType": "string",
          "name": "_recommendedAge",
          "type": "string"
        },
        {
          "internalType": "enum ClothingExchange.Sizes",
          "name": "_size",
          "type": "uint8"
        }
      ],
      "name": "listClothingOnSell",
      "outputs": [
        {
          "internalType": "uint256",
          "name": "",
          "type": "uint256"
        }
      ],
      "stateMutability": "nonpayable",
      "type": "function"
    },
    {
      "inputs": [
        {
          "internalType": "uint256",
          "name": "clothId",
          "type": "uint256"
        }
      ],
      "name": "bargainClothingPrice",
      "outputs": [
        {
          "internalType": "bool",
          "name": "",
          "type": "bool"
        }
      ],
      "stateMutability": "payable",
      "type": "function"
    },
    {
      "inputs": [
        {
          "internalType": "uint256",
          "name": "clothId",
          "type": "uint256"
        },
        {
          "internalType": "address payable",
          "name": "potentialBuyer",
          "type": "address"
        }
      ],
      "name": "confirmNewClothingPrice",
      "outputs": [
        {
          "internalType": "bool",
          "name": "",
          "type": "bool"
        }
      ],
      "stateMutability": "payable",
      "type": "function"
    },
    {
      "inputs": [
        {
          "internalType": "uint256",
          "name": "clothId",
          "type": "uint256"
        }
      ],
      "name": "buyClothingOnSell",
      "outputs": [
        {
          "internalType": "bool",
          "name": "",
          "type": "bool"
        }
      ],
      "stateMutability": "payable",
      "type": "function"
    },
    {
      "inputs": [
        {
          "internalType": "uint256",
          "name": "clothId",
          "type": "uint256"
        }
      ],
      "name": "shipClothing",
      "outputs": [],
      "stateMutability": "nonpayable",
      "type": "function"
    },
    {
      "inputs": [
        {
          "internalType": "uint256",
          "name": "clothId",
          "type": "uint256"
        }
      ],
      "name": "receiveClothing",
      "outputs": [],
      "stateMutability": "nonpayable",
      "type": "function"
    },
    {
      "inputs": [
        {
          "internalType": "uint256",
          "name": "clothId",
          "type": "uint256"
        }
      ],
      "name": "getClothingById",
      "outputs": [
        {
          "internalType": "string",
          "name": "name",
          "type": "string"
        },
        {
          "internalType": "string",
          "name": "brand",
          "type": "string"
        },
        {
          "internalType": "string",
          "name": "description",
          "type": "string"
        },
        {
          "internalType": "string",
          "name": "recommendedAge",
          "type": "string"
        },
        {
          "internalType": "uint256",
          "name": "initialPrice",
          "type": "uint256"
        },
        {
          "internalType": "enum ClothingExchange.Sizes",
          "name": "size",
          "type": "uint8"
        },
        {
          "internalType": "address",
          "name": "seller",
          "type": "address"
        },
        {
          "internalType": "address",
          "name": "buyer",
          "type": "address"
        },
        {
          "internalType": "enum ClothingExchange.State",
          "name": "state",
          "type": "uint8"
        },
        {
          "internalType": "uint256",
          "name": "agreedPrice",
          "type": "uint256"
        },
        {
          "internalType": "address[]",
          "name": "tempPriceAddresses",
          "type": "address[]"
        }
      ],
      "stateMutability": "view",
      "type": "function"
    },
    {
      "inputs": [
        {
          "internalType": "uint256",
          "name": "clothId",
          "type": "uint256"
        },
        {
          "internalType": "address",
          "name": "buyer",
          "type": "address"
        }
      ],
      "name": "getClothingTempPrice",
      "outputs": [
        {
          "internalType": "uint256",
          "name": "suggestedPrice",
          "type": "uint256"
        }
      ],
      "stateMutability": "view",
      "type": "function"
    }
  ],
  "bytecode": "0x608060405234801561001057600080fd5b50336000806101000a81548173ffffffffffffffffffffffffffffffffffffffff021916908373ffffffffffffffffffffffffffffffffffffffff1602179055506124f8806100606000396000f3fe60806040526004361061009c5760003560e01c80636f5c94b0116100645780636f5c94b0146101bf5780637aef088d146101ef5780639716e0681461021a578063b97ed9201461024a578063f2f08a2214610287578063f53d7dd1146102b25761009c565b80631ff5713e146100a157806320175756146100ca578063265449bb146100f35780632a5e1d7e1461013057806338bd8ae014610178575b600080fd5b3480156100ad57600080fd5b506100c860048036038101906100c39190611a1c565b6102e2565b005b3480156100d657600080fd5b506100f160048036038101906100ec9190611a1c565b61044c565b005b3480156100ff57600080fd5b5061011a60048036038101906101159190611aa7565b6105b6565b6040516101279190611af6565b60405180910390f35b34801561013c57600080fd5b5061015760048036038101906101529190611a1c565b610614565b60405161016f9c9b9a99989796959493929190611c8a565b60405180910390f35b34801561018457600080fd5b5061019f600480360381019061019a9190611a1c565b6108ee565b6040516101b69b9a99989796959493929190611e2d565b60405180910390f35b6101d960048036038101906101d49190611a1c565b610d1f565b6040516101e69190611f16565b60405180910390f35b3480156101fb57600080fd5b50610204610f25565b6040516102119190611af6565b60405180910390f35b610234600480360381019061022f9190611f5d565b610f2b565b6040516102419190611f16565b60405180910390f35b34801561025657600080fd5b50610271600480360381019061026c91906120f7565b6113e1565b60405161027e9190611af6565b60405180910390f35b34801561029357600080fd5b5061029c6115b3565b6040516102a99190611af6565b60405180910390f35b6102cc60048036038101906102c79190611a1c565b6115b8565b6040516102d99190611f16565b60405180910390f35b6002600082815260200190815260200160002060080160009054906101000a900473ffffffffffffffffffffffffffffffffffffffff168073ffffffffffffffffffffffffffffffffffffffff163373ffffffffffffffffffffffffffffffffffffffff161461035157600080fd5b816002600381111561036657610365611baa565b5b6002600083815260200190815260200160002060070160009054906101000a900460ff16600381111561039c5761039b611baa565b5b146103a657600080fd5b600060026000858152602001908152602001600020905060038160070160006101000a81548160ff021916908360038111156103e5576103e4611baa565b5b0217905550837ff029cc62c2e487d7d873b093f0801c5c6908090fd67b3d552bd72f17edb979418260080160009054906101000a900473ffffffffffffffffffffffffffffffffffffffff1660405161043e9190612253565b60405180910390a250505050565b6002600082815260200190815260200160002060070160019054906101000a900473ffffffffffffffffffffffffffffffffffffffff168073ffffffffffffffffffffffffffffffffffffffff163373ffffffffffffffffffffffffffffffffffffffff16146104bb57600080fd5b81600160038111156104d0576104cf611baa565b5b6002600083815260200190815260200160002060070160009054906101000a900460ff16600381111561050657610505611baa565b5b1461051057600080fd5b600060026000858152602001908152602001600020905060028160070160006101000a81548160ff0219169083600381111561054f5761054e611baa565b5b0217905550837f3222cb4554805c01c84958d24ca1cd3c62209de61fc8891ace8e0cc26b2b6dac8260070160019054906101000a900473ffffffffffffffffffffffffffffffffffffffff166040516105a89190612253565b60405180910390a250505050565b60006002600084815260200190815260200160002060090160008373ffffffffffffffffffffffffffffffffffffffff1673ffffffffffffffffffffffffffffffffffffffff16815260200190815260200160002054905092915050565b600260205280600052604060002060009150905080600001549080600101805461063d9061229d565b80601f01602080910402602001604051908101604052809291908181526020018280546106699061229d565b80156106b65780601f1061068b576101008083540402835291602001916106b6565b820191906000526020600020905b81548152906001019060200180831161069957829003601f168201915b5050505050908060020154908060030180546106d19061229d565b80601f01602080910402602001604051908101604052809291908181526020018280546106fd9061229d565b801561074a5780601f1061071f5761010080835404028352916020019161074a565b820191906000526020600020905b81548152906001019060200180831161072d57829003601f168201915b50505050509080600401805461075f9061229d565b80601f016020809104026020016040519081016040528092919081815260200182805461078b9061229d565b80156107d85780601f106107ad576101008083540402835291602001916107d8565b820191906000526020600020905b8154815290600101906020018083116107bb57829003601f168201915b5050505050908060050160009054906101000a900460ff16908060060180546108009061229d565b80601f016020809104026020016040519081016040528092919081815260200182805461082c9061229d565b80156108795780601f1061084e57610100808354040283529160200191610879565b820191906000526020600020905b81548152906001019060200180831161085c57829003601f168201915b5050505050908060070160009054906101000a900460ff16908060070160019054906101000a900473ffffffffffffffffffffffffffffffffffffffff16908060080160009054906101000a900473ffffffffffffffffffffffffffffffffffffffff169080600a01549080600b015490508c565b6060806060806000806000806000806060600260008d815260200190815260200160002060010180546109209061229d565b80601f016020809104026020016040519081016040528092919081815260200182805461094c9061229d565b80156109995780601f1061096e57610100808354040283529160200191610999565b820191906000526020600020905b81548152906001019060200180831161097c57829003601f168201915b50505050509a50600260008d815260200190815260200160002060040180546109c19061229d565b80601f01602080910402602001604051908101604052809291908181526020018280546109ed9061229d565b8015610a3a5780601f10610a0f57610100808354040283529160200191610a3a565b820191906000526020600020905b815481529060010190602001808311610a1d57829003601f168201915b50505050509950600260008d81526020019081526020016000206003018054610a629061229d565b80601f0160208091040260200160405190810160405280929190818152602001828054610a8e9061229d565b8015610adb5780601f10610ab057610100808354040283529160200191610adb565b820191906000526020600020905b815481529060010190602001808311610abe57829003601f168201915b50505050509850600260008d81526020019081526020016000206006018054610b039061229d565b80601f0160208091040260200160405190810160405280929190818152602001828054610b2f9061229d565b8015610b7c5780601f10610b5157610100808354040283529160200191610b7c565b820191906000526020600020905b815481529060010190602001808311610b5f57829003601f168201915b50505050509750600260008d8152602001908152602001600020600201549650600260008d815260200190815260200160002060050160009054906101000a900460ff169550600260008d815260200190815260200160002060070160019054906101000a900473ffffffffffffffffffffffffffffffffffffffff169450600260008d815260200190815260200160002060080160009054906101000a900473ffffffffffffffffffffffffffffffffffffffff169350600260008d815260200190815260200160002060070160009054906101000a900460ff169250600260008d8152602001908152602001600020600b01549150600260008d8152602001908152602001600020600c01805480602002602001604051908101604052809291908181526020018280548015610d0957602002820191906000526020600020905b8160009054906101000a900473ffffffffffffffffffffffffffffffffffffffff1673ffffffffffffffffffffffffffffffffffffffff1681526020019060010190808311610cbf575b5050505050905091939597999b90929496989a50565b60008160006002600083815260200190815260200160002060000154118015610d8f575060006003811115610d5757610d56611baa565b5b6002600083815260200190815260200160002060070160009054906101000a900460ff166003811115610d8d57610d8c611baa565b5b145b610d9857600080fd5b600260008481526020019081526020016000206002015480341015610dbc57600080fd5b6000600260008681526020019081526020016000209050338160080160006101000a81548173ffffffffffffffffffffffffffffffffffffffff021916908373ffffffffffffffffffffffffffffffffffffffff16021790555060018160070160006101000a81548160ff02191690836003811115610e3e57610e3d611baa565b5b021790555060008160070160019054906101000a900473ffffffffffffffffffffffffffffffffffffffff1673ffffffffffffffffffffffffffffffffffffffff168260020154604051610e9190612300565b60006040518083038185875af1925050503d8060008114610ece576040519150601f19603f3d011682016040523d82523d6000602084013e610ed3565b606091505b5050905080610ee157600080fd5b857f25a00cdd1befd37a459f2ea4bdcb9994c9cf8562fb15b97e519af8bc81320a8833604051610f119190612315565b60405180910390a280945050505050919050565b60015481565b60006002600084815260200190815260200160002060070160019054906101000a900473ffffffffffffffffffffffffffffffffffffffff168073ffffffffffffffffffffffffffffffffffffffff163373ffffffffffffffffffffffffffffffffffffffff1614610f9c57600080fd5b6002600085815260200190815260200160002060090160008473ffffffffffffffffffffffffffffffffffffffff1673ffffffffffffffffffffffffffffffffffffffff1681526020019081526020016000205460008111611033576040517f08c379a000000000000000000000000000000000000000000000000000000000815260040161102a9061237c565b60405180910390fd5b84600060026000838152602001908152602001600020600001541180156110a157506000600381111561106957611068611baa565b5b6002600083815260200190815260200160002060070160009054906101000a900460ff16600381111561109f5761109e611baa565b5b145b6110aa57600080fd5b60006002600088815260200190815260200160002090508060090160008773ffffffffffffffffffffffffffffffffffffffff1673ffffffffffffffffffffffffffffffffffffffff1681526020019081526020016000205481600b0181905550858160080160006101000a81548173ffffffffffffffffffffffffffffffffffffffff021916908373ffffffffffffffffffffffffffffffffffffffff16021790555060018160070160006101000a81548160ff0219169083600381111561117657611175611baa565b5b021790555060008160070160019054906101000a900473ffffffffffffffffffffffffffffffffffffffff1673ffffffffffffffffffffffffffffffffffffffff1682600b01546040516111c990612300565b60006040518083038185875af1925050503d8060008114611206576040519150601f19603f3d011682016040523d82523d6000602084013e61120b565b606091505b505090508061121957600080fd5b60005b82600c018054905081101561137057600083600c0182815481106112435761124261239c565b5b9060005260206000200160009054906101000a900473ffffffffffffffffffffffffffffffffffffffff1690508873ffffffffffffffffffffffffffffffffffffffff168173ffffffffffffffffffffffffffffffffffffffff161461135c5760008173ffffffffffffffffffffffffffffffffffffffff168560090160008473ffffffffffffffffffffffffffffffffffffffff1673ffffffffffffffffffffffffffffffffffffffff1681526020019081526020016000205460405161130a90612300565b60006040518083038185875af1925050503d8060008114611347576040519150601f19603f3d011682016040523d82523d6000602084013e61134c565b606091505b505090508061135a57600080fd5b505b508080611368906123fa565b91505061121c565b50877f28d7dc338fbcdc1b2259a6b057ec4e405005fe2b3dc1afc4111c3481bc09898d8360080160009054906101000a900473ffffffffffffffffffffffffffffffffffffffff1684600b01546040516113cb929190612443565b60405180910390a2809550505050505092915050565b60008560008111611427576040517f08c379a000000000000000000000000000000000000000000000000000000000815260040161141e9061237c565b60405180910390fd5b60018054611435919061246c565b6001819055506000600260006001548152602001908152602001600020905060015481600001819055508881600101908051906020019061147792919061192f565b508781600201819055508681600301908051906020019061149992919061192f565b50858160040190805190602001906114b292919061192f565b50838160050160006101000a81548160ff021916908360038111156114da576114d9611baa565b5b0217905550848160060190805190602001906114f792919061192f565b50338160070160016101000a81548173ffffffffffffffffffffffffffffffffffffffff021916908373ffffffffffffffffffffffffffffffffffffffff16021790555060008160070160006101000a81548160ff0219169083600381111561156357611562611baa565b5b02179055506001547fa6574571418e0054a458dc54b5f95baa2679290b3db6bbcb023fba3980726cc33360405161159a9190612315565b60405180910390a2600154925050509695505050505050565b600581565b600081600060026000838152602001908152602001600020600001541180156116285750600060038111156115f0576115ef611baa565b5b6002600083815260200190815260200160002060070160009054906101000a900460ff16600381111561162657611625611baa565b5b145b61163157600080fd5b3460008111611675576040517f08c379a000000000000000000000000000000000000000000000000000000000815260040161166c9061237c565b60405180910390fd5b60026000858152602001908152602001600020600c0180548060200260200160405190810160405280929190818152602001828054801561170b57602002820191906000526020600020905b8160009054906101000a900473ffffffffffffffffffffffffffffffffffffffff1673ffffffffffffffffffffffffffffffffffffffff16815260200190600101908083116116c1575b505050505060058151111561171f57600080fd5b60003390506000600260008881526020019081526020016000209050348160090160008473ffffffffffffffffffffffffffffffffffffffff1673ffffffffffffffffffffffffffffffffffffffff16815260200190815260200160002081905550600181600a016000828254611796919061246c565b925050819055506117a787336117ef565b867fde0477600eae6a9400d74ad2fa3259d55706c84a4e070d578eb31e5c6f6c958e83346040516117d9929190612443565b60405180910390a2600195505050505050919050565b600080600260008581526020019081526020016000209050600581600c01805490501061181b57600080fd5b60005b81600c01805490508110156118bd5781600c0181815481106118435761184261239c565b5b9060005260206000200160009054906101000a900473ffffffffffffffffffffffffffffffffffffffff1673ffffffffffffffffffffffffffffffffffffffff168473ffffffffffffffffffffffffffffffffffffffff1614156118aa57600192506118bd565b80806118b5906123fa565b91505061181e565b50816119295780600c01839080600181540180825580915050600190039060005260206000200160009091909190916101000a81548173ffffffffffffffffffffffffffffffffffffffff021916908373ffffffffffffffffffffffffffffffffffffffff1602179055505b50505050565b82805461193b9061229d565b90600052602060002090601f01602090048101928261195d57600085556119a4565b82601f1061197657805160ff19168380011785556119a4565b828001600101855582156119a4579182015b828111156119a3578251825591602001919060010190611988565b5b5090506119b191906119b5565b5090565b5b808211156119ce5760008160009055506001016119b6565b5090565b6000604051905090565b600080fd5b600080fd5b6000819050919050565b6119f9816119e6565b8114611a0457600080fd5b50565b600081359050611a16816119f0565b92915050565b600060208284031215611a3257611a316119dc565b5b6000611a4084828501611a07565b91505092915050565b600073ffffffffffffffffffffffffffffffffffffffff82169050919050565b6000611a7482611a49565b9050919050565b611a8481611a69565b8114611a8f57600080fd5b50565b600081359050611aa181611a7b565b92915050565b60008060408385031215611abe57611abd6119dc565b5b6000611acc85828601611a07565b9250506020611add85828601611a92565b9150509250929050565b611af0816119e6565b82525050565b6000602082019050611b0b6000830184611ae7565b92915050565b600081519050919050565b600082825260208201905092915050565b60005b83811015611b4b578082015181840152602081019050611b30565b83811115611b5a576000848401525b50505050565b6000601f19601f8301169050919050565b6000611b7c82611b11565b611b868185611b1c565b9350611b96818560208601611b2d565b611b9f81611b60565b840191505092915050565b7f4e487b7100000000000000000000000000000000000000000000000000000000600052602160045260246000fd5b60048110611bea57611be9611baa565b5b50565b6000819050611bfb82611bd9565b919050565b6000611c0b82611bed565b9050919050565b611c1b81611c00565b82525050565b60048110611c3257611c31611baa565b5b50565b6000819050611c4382611c21565b919050565b6000611c5382611c35565b9050919050565b611c6381611c48565b82525050565b6000611c7482611a49565b9050919050565b611c8481611c69565b82525050565b600061018082019050611ca0600083018f611ae7565b8181036020830152611cb2818e611b71565b9050611cc1604083018d611ae7565b8181036060830152611cd3818c611b71565b90508181036080830152611ce7818b611b71565b9050611cf660a083018a611c12565b81810360c0830152611d088189611b71565b9050611d1760e0830188611c5a565b611d25610100830187611c7b565b611d33610120830186611c7b565b611d41610140830185611ae7565b611d4f610160830184611ae7565b9d9c50505050505050505050505050565b611d6981611a69565b82525050565b600081519050919050565b600082825260208201905092915050565b6000819050602082019050919050565b611da481611a69565b82525050565b6000611db68383611d9b565b60208301905092915050565b6000602082019050919050565b6000611dda82611d6f565b611de48185611d7a565b9350611def83611d8b565b8060005b83811015611e20578151611e078882611daa565b9750611e1283611dc2565b925050600181019050611df3565b5085935050505092915050565b6000610160820190508181036000830152611e48818e611b71565b90508181036020830152611e5c818d611b71565b90508181036040830152611e70818c611b71565b90508181036060830152611e84818b611b71565b9050611e93608083018a611ae7565b611ea060a0830189611c12565b611ead60c0830188611d60565b611eba60e0830187611d60565b611ec8610100830186611c5a565b611ed6610120830185611ae7565b818103610140830152611ee98184611dcf565b90509c9b505050505050505050505050565b60008115159050919050565b611f1081611efb565b82525050565b6000602082019050611f2b6000830184611f07565b92915050565b611f3a81611c69565b8114611f4557600080fd5b50565b600081359050611f5781611f31565b92915050565b60008060408385031215611f7457611f736119dc565b5b6000611f8285828601611a07565b9250506020611f9385828601611f48565b9150509250929050565b600080fd5b600080fd5b7f4e487b7100000000000000000000000000000000000000000000000000000000600052604160045260246000fd5b611fdf82611b60565b810181811067ffffffffffffffff82111715611ffe57611ffd611fa7565b5b80604052505050565b60006120116119d2565b905061201d8282611fd6565b919050565b600067ffffffffffffffff82111561203d5761203c611fa7565b5b61204682611b60565b9050602081019050919050565b82818337600083830152505050565b600061207561207084612022565b612007565b90508281526020810184848401111561209157612090611fa2565b5b61209c848285612053565b509392505050565b600082601f8301126120b9576120b8611f9d565b5b81356120c9848260208601612062565b91505092915050565b600481106120df57600080fd5b50565b6000813590506120f1816120d2565b92915050565b60008060008060008060c08789031215612114576121136119dc565b5b600087013567ffffffffffffffff811115612132576121316119e1565b5b61213e89828a016120a4565b965050602061214f89828a01611a07565b955050604087013567ffffffffffffffff8111156121705761216f6119e1565b5b61217c89828a016120a4565b945050606087013567ffffffffffffffff81111561219d5761219c6119e1565b5b6121a989828a016120a4565b935050608087013567ffffffffffffffff8111156121ca576121c96119e1565b5b6121d689828a016120a4565b92505060a06121e789828a016120e2565b9150509295509295509295565b6000819050919050565b600061221961221461220f84611a49565b6121f4565b611a49565b9050919050565b600061222b826121fe565b9050919050565b600061223d82612220565b9050919050565b61224d81612232565b82525050565b60006020820190506122686000830184612244565b92915050565b7f4e487b7100000000000000000000000000000000000000000000000000000000600052602260045260246000fd5b600060028204905060018216806122b557607f821691505b602082108114156122c9576122c861226e565b5b50919050565b600081905092915050565b50565b60006122ea6000836122cf565b91506122f5826122da565b600082019050919050565b600061230b826122dd565b9150819050919050565b600060208201905061232a6000830184611d60565b92915050565b7f5072696365206d7573742062652067726561746572207468616e203000000000600082015250565b6000612366601c83611b1c565b915061237182612330565b602082019050919050565b6000602082019050818103600083015261239581612359565b9050919050565b7f4e487b7100000000000000000000000000000000000000000000000000000000600052603260045260246000fd5b7f4e487b7100000000000000000000000000000000000000000000000000000000600052601160045260246000fd5b6000612405826119e6565b91507fffffffffffffffffffffffffffffffffffffffffffffffffffffffffffffffff821415612438576124376123cb565b5b600182019050919050565b60006040820190506124586000830185612244565b6124656020830184611ae7565b9392505050565b6000612477826119e6565b9150612482836119e6565b9250827fffffffffffffffffffffffffffffffffffffffffffffffffffffffffffffffff038211156124b7576124b66123cb565b5b82820190509291505056fea2646970667358221220903359d738bb38abf776bd1e8d90467f13b31cba0d6a77def574d8c45afa3e6f64736f6c634300080a0033",
  "immutableReferences": {},
  "source": "// SPDX-License-Identifier: MIT\npragma solidity >=0.4.22 <0.9.0;\n\ncontract ClothingExchange {\n\n  address owner;\n\n  enum State {\n    LISTED,\n    SOLD,\n    SHIPPED,\n    RECEIVED\n  }\n\n  enum Sizes {\n    SMALL,\n    MEDIUM,\n    LARGE,\n    XLARGE\n  }\n\n  uint public clothingCounter;\n  uint public constant BARGAIN_ADDRESS_LIMIT = 5; // Limit the number of buyers that can bargain a garment\n\n  struct Cloth {\n    uint clothId;\n    string name;\n    uint initialPrice;\n    string description;\n    string brand;\n    Sizes size;\n    string recommendedAge;\n    State state;\n    address payable seller;\n    address payable buyer;\n    mapping (address => uint) tempPrice;\n    uint tempPriceCounter;\n    uint agreedPrice;\n    address[] tempPriceAddresses;\n  }\n\n  mapping (uint => Cloth) public clothing;\n\n  // Modifiers\n  modifier isOwner () {\n    require (owner == msg.sender);\n    _;\n  }\n\n  modifier validPrice (uint _price) {\n    require (_price > 0, \"Price must be greater than 0\");\n    _;\n  }\n\n  modifier isListed (uint clothId) {\n    require (\n      clothing[clothId].clothId > 0\n      &&\n      clothing[clothId].state == State.LISTED\n    );\n    _;\n  }\n\n  modifier canBargain (address[] memory tempPriceAddresses) {\n    require (tempPriceAddresses.length <= BARGAIN_ADDRESS_LIMIT);\n    _;\n  } \n  modifier isSold (uint clothId) {\n    require (clothing[clothId].state == State.SOLD);\n    _;\n  }\n  modifier isShipped (uint clothId) {\n    require (clothing[clothId].state == State.SHIPPED);\n    _;\n  }\n  modifier verifyCaller (address caller) {\n    require (msg.sender == caller);\n    _;\n  }\n  modifier paidEnough (uint price) {\n    require (msg.value >= price);\n    _;\n  }\n\n  // Events\n  event LogListClothingForSale (address seller, uint indexed clothId);\n  event LogAddedBargain (address buyer, uint indexed clothId, uint newPrice);\n  event LogConfirmedNewPrice (address buyer, uint indexed clothId, uint confirmedPrice);\n  event LogClothingBought (address buyer, uint indexed clothId);\n  event LogClothShipped (address seller, uint indexed clothId);\n  event LogClothReceived (address buyer, uint indexed clothId);\n\n  constructor () {\n    owner = msg.sender;\n  }\n\n  function listClothingOnSell (\n    string memory _name,\n    uint _initialPrice,\n    string memory _description,\n    string memory _brand,\n    string memory _recommendedAge,\n    Sizes _size\n  ) public validPrice(_initialPrice) returns (uint) {\n    clothingCounter = clothingCounter + 1;\n    Cloth storage cloth = clothing[clothingCounter];\n    cloth.clothId = clothingCounter;\n    cloth.name = _name;\n    cloth.initialPrice = _initialPrice;\n    cloth.description = _description;\n    cloth.brand = _brand;\n    cloth.size = _size;\n    cloth.recommendedAge = _recommendedAge;\n    cloth.seller = payable(msg.sender);\n    cloth.state = State.LISTED;\n    emit LogListClothingForSale(msg.sender, clothingCounter);\n    return clothingCounter;\n  }\n\n  function addAddressToTempPriceAddresses (uint clothId, address buyer) private {\n    bool inArray = false;\n    Cloth storage c = clothing[clothId];\n    require (c.tempPriceAddresses.length < BARGAIN_ADDRESS_LIMIT);\n    for (uint i = 0; i < c.tempPriceAddresses.length; i++) {\n      if (buyer == c.tempPriceAddresses[i]) {\n\tinArray = true;\n\tbreak;\n      }\n    }\n    if (!inArray) {\n      c.tempPriceAddresses.push(buyer);\n    }\n  }\n\n  function bargainClothingPrice (\n    uint clothId\n  ) isListed(clothId) validPrice(msg.value) canBargain(clothing[clothId].tempPriceAddresses) public payable returns (bool) {\n    address payable potentialBuyer = payable(msg.sender);\n    Cloth storage c = clothing[clothId];\n    c.tempPrice[potentialBuyer] = msg.value;\n    c.tempPriceCounter += 1;\n    addAddressToTempPriceAddresses(clothId, msg.sender);\n    emit LogAddedBargain(potentialBuyer, clothId, msg.value);\n    return true;\n  }\n\n  function confirmNewClothingPrice (\n    uint clothId,\n    address payable potentialBuyer\n  ) verifyCaller(clothing[clothId].seller) validPrice(clothing[clothId].tempPrice[potentialBuyer]) isListed(clothId) public payable returns (bool) {\n    Cloth storage c = clothing[clothId];\n    c.agreedPrice = c.tempPrice[potentialBuyer];\n    c.buyer = potentialBuyer;\n    c.state = State.SOLD;\n    (bool sent,) = c.seller.call{value: c.agreedPrice}(\"\");\n    require (sent);\n    for (uint i = 0; i < c.tempPriceAddresses.length; i++) {\n      address a = c.tempPriceAddresses[i];\n      if (a != potentialBuyer) {\n\t(bool _sent,) = a.call{value: c.tempPrice[a]}(\"\");\n\trequire(_sent);\n      }\n    }\n    emit LogConfirmedNewPrice(c.buyer, clothId, c.agreedPrice);\n    return sent;\n  }\n\n  function buyClothingOnSell (\n    uint clothId\n  ) isListed(clothId) paidEnough(clothing[clothId].initialPrice) public payable returns (bool) {\n    Cloth storage c = clothing[clothId];\n    c.buyer = payable(msg.sender);\n    c.state = State.SOLD;\n    // transfer funds\n    (bool sent,) = c.seller.call{value: c.initialPrice}(\"\");\n    require (sent);\n    emit LogClothingBought(msg.sender, clothId);\n    return sent;\n  }\n\n\n  function shipClothing (uint clothId) verifyCaller(clothing[clothId].seller) isSold(clothId) public {\n    Cloth storage c = clothing[clothId];\n    c.state = State.SHIPPED;\n    emit LogClothShipped(c.seller, clothId);\n  }\n\n  function receiveClothing (uint clothId) verifyCaller(clothing[clothId].buyer) isShipped(clothId) public {\n    Cloth storage c = clothing[clothId];\n    c.state = State.RECEIVED;\n    emit LogClothReceived(c.buyer, clothId);\n  }\n\n  function getClothingById (uint clothId) public view returns (\n    string memory name,\n    string memory brand,\n    string memory description,\n    string memory recommendedAge,\n    uint initialPrice,\n    Sizes size,\n    address seller,\n    address buyer,\n    State state,\n    uint agreedPrice,\n    address[] memory tempPriceAddresses\n  ) {\n    name = clothing[clothId].name;\n    brand = clothing[clothId].brand;\n    description = clothing[clothId].description;\n    recommendedAge = clothing[clothId].recommendedAge;\n    initialPrice = clothing[clothId].initialPrice;\n    size = clothing[clothId].size;\n    seller = clothing[clothId].seller;\n    buyer = clothing[clothId].buyer;\n    state = clothing[clothId].state;\n    agreedPrice = clothing[clothId].agreedPrice;\n    tempPriceAddresses = clothing[clothId].tempPriceAddresses;\n  }\n\n  function getClothingTempPrice (uint clothId, address buyer) public view returns (uint suggestedPrice) {\n    suggestedPrice = clothing[clothId].tempPrice[buyer];\n  }\n}\n",
  "sourcePath": "/home/dmartinez/projects/personal/blockchain-bootcamp/blockchain-developer-bootcamp-final-project/contracts/ClothingExchange.sol",
  "compiler": {
    "name": "solc",
    "version": "0.8.10+commit.fc410830.Emscripten.clang"
  },
  "schemaVersion": "3.4.3",
  "updatedAt": "2021-11-29T00:51:05.015Z",
  "devdoc": {
    "kind": "dev",
    "methods": {},
    "version": 1
  },
  "userdoc": {
    "kind": "user",
    "methods": {},
    "version": 1
  }
}