{
  "contractName": "ClothingExchange",
  "abi": [
    {
      "inputs": [],
      "stateMutability": "nonpayable",
      "type": "constructor"
    },
    {
      "anonymous": false,
      "inputs": [
        {
          "indexed": false,
          "internalType": "address",
          "name": "buyer",
          "type": "address"
        },
        {
          "indexed": true,
          "internalType": "uint256",
          "name": "clothId",
          "type": "uint256"
        },
        {
          "indexed": false,
          "internalType": "uint256",
          "name": "newPrice",
          "type": "uint256"
        }
      ],
      "name": "LogAddedBargain",
      "type": "event"
    },
    {
      "anonymous": false,
      "inputs": [
        {
          "indexed": false,
          "internalType": "address",
          "name": "buyer",
          "type": "address"
        },
        {
          "indexed": true,
          "internalType": "uint256",
          "name": "clothId",
          "type": "uint256"
        }
      ],
      "name": "LogClothReceived",
      "type": "event"
    },
    {
      "anonymous": false,
      "inputs": [
        {
          "indexed": false,
          "internalType": "address",
          "name": "seller",
          "type": "address"
        },
        {
          "indexed": true,
          "internalType": "uint256",
          "name": "clothId",
          "type": "uint256"
        },
        {
          "indexed": false,
          "internalType": "string",
          "name": "trackingNumber",
          "type": "string"
        }
      ],
      "name": "LogClothShipped",
      "type": "event"
    },
    {
      "anonymous": false,
      "inputs": [
        {
          "indexed": false,
          "internalType": "address",
          "name": "buyer",
          "type": "address"
        },
        {
          "indexed": true,
          "internalType": "uint256",
          "name": "clothId",
          "type": "uint256"
        }
      ],
      "name": "LogClothingBought",
      "type": "event"
    },
    {
      "anonymous": false,
      "inputs": [
        {
          "indexed": false,
          "internalType": "address",
          "name": "buyer",
          "type": "address"
        },
        {
          "indexed": true,
          "internalType": "uint256",
          "name": "clothId",
          "type": "uint256"
        },
        {
          "indexed": false,
          "internalType": "uint256",
          "name": "confirmedPrice",
          "type": "uint256"
        }
      ],
      "name": "LogConfirmedNewPrice",
      "type": "event"
    },
    {
      "anonymous": false,
      "inputs": [
        {
          "indexed": false,
          "internalType": "address",
          "name": "seller",
          "type": "address"
        },
        {
          "indexed": true,
          "internalType": "uint256",
          "name": "clothCounter",
          "type": "uint256"
        }
      ],
      "name": "LogListClothingForSale",
      "type": "event"
    },
    {
      "anonymous": false,
      "inputs": [
        {
          "indexed": false,
          "internalType": "address",
          "name": "owner",
          "type": "address"
        }
      ],
      "name": "LogOwnerCall",
      "type": "event"
    },
    {
      "anonymous": false,
      "inputs": [
        {
          "indexed": true,
          "internalType": "bytes32",
          "name": "role",
          "type": "bytes32"
        },
        {
          "indexed": true,
          "internalType": "bytes32",
          "name": "previousAdminRole",
          "type": "bytes32"
        },
        {
          "indexed": true,
          "internalType": "bytes32",
          "name": "newAdminRole",
          "type": "bytes32"
        }
      ],
      "name": "RoleAdminChanged",
      "type": "event"
    },
    {
      "anonymous": false,
      "inputs": [
        {
          "indexed": true,
          "internalType": "bytes32",
          "name": "role",
          "type": "bytes32"
        },
        {
          "indexed": true,
          "internalType": "address",
          "name": "account",
          "type": "address"
        },
        {
          "indexed": true,
          "internalType": "address",
          "name": "sender",
          "type": "address"
        }
      ],
      "name": "RoleGranted",
      "type": "event"
    },
    {
      "anonymous": false,
      "inputs": [
        {
          "indexed": true,
          "internalType": "bytes32",
          "name": "role",
          "type": "bytes32"
        },
        {
          "indexed": true,
          "internalType": "address",
          "name": "account",
          "type": "address"
        },
        {
          "indexed": true,
          "internalType": "address",
          "name": "sender",
          "type": "address"
        }
      ],
      "name": "RoleRevoked",
      "type": "event"
    },
    {
      "inputs": [],
      "name": "ADMIN_ROLE",
      "outputs": [
        {
          "internalType": "bytes32",
          "name": "",
          "type": "bytes32"
        }
      ],
      "stateMutability": "view",
      "type": "function"
    },
    {
      "inputs": [],
      "name": "BARGAIN_ADDRESS_LIMIT",
      "outputs": [
        {
          "internalType": "uint256",
          "name": "",
          "type": "uint256"
        }
      ],
      "stateMutability": "view",
      "type": "function"
    },
    {
      "inputs": [],
      "name": "DEFAULT_ADMIN_ROLE",
      "outputs": [
        {
          "internalType": "bytes32",
          "name": "",
          "type": "bytes32"
        }
      ],
      "stateMutability": "view",
      "type": "function"
    },
    {
      "inputs": [
        {
          "internalType": "uint256",
          "name": "",
          "type": "uint256"
        }
      ],
      "name": "clothing",
      "outputs": [
        {
          "internalType": "uint256",
          "name": "clothId",
          "type": "uint256"
        },
        {
          "internalType": "string",
          "name": "name",
          "type": "string"
        },
        {
          "internalType": "uint256",
          "name": "initialPrice",
          "type": "uint256"
        },
        {
          "internalType": "string",
          "name": "description",
          "type": "string"
        },
        {
          "internalType": "string",
          "name": "brand",
          "type": "string"
        },
        {
          "internalType": "enum ClothingExchange.Sizes",
          "name": "size",
          "type": "uint8"
        },
        {
          "internalType": "string",
          "name": "recommendedAge",
          "type": "string"
        },
        {
          "internalType": "enum ClothingExchange.State",
          "name": "state",
          "type": "uint8"
        },
        {
          "internalType": "address payable",
          "name": "seller",
          "type": "address"
        },
        {
          "internalType": "address payable",
          "name": "buyer",
          "type": "address"
        },
        {
          "internalType": "uint256",
          "name": "tempPriceCounter",
          "type": "uint256"
        },
        {
          "internalType": "uint256",
          "name": "agreedPrice",
          "type": "uint256"
        }
      ],
      "stateMutability": "view",
      "type": "function"
    },
    {
      "inputs": [],
      "name": "clothingCounter",
      "outputs": [
        {
          "internalType": "uint256",
          "name": "",
          "type": "uint256"
        }
      ],
      "stateMutability": "view",
      "type": "function"
    },
    {
      "inputs": [
        {
          "internalType": "bytes32",
          "name": "role",
          "type": "bytes32"
        }
      ],
      "name": "getRoleAdmin",
      "outputs": [
        {
          "internalType": "bytes32",
          "name": "",
          "type": "bytes32"
        }
      ],
      "stateMutability": "view",
      "type": "function"
    },
    {
      "inputs": [
        {
          "internalType": "bytes32",
          "name": "role",
          "type": "bytes32"
        },
        {
          "internalType": "address",
          "name": "account",
          "type": "address"
        }
      ],
      "name": "grantRole",
      "outputs": [],
      "stateMutability": "nonpayable",
      "type": "function"
    },
    {
      "inputs": [
        {
          "internalType": "bytes32",
          "name": "role",
          "type": "bytes32"
        },
        {
          "internalType": "address",
          "name": "account",
          "type": "address"
        }
      ],
      "name": "hasRole",
      "outputs": [
        {
          "internalType": "bool",
          "name": "",
          "type": "bool"
        }
      ],
      "stateMutability": "view",
      "type": "function"
    },
    {
      "inputs": [
        {
          "internalType": "bytes32",
          "name": "role",
          "type": "bytes32"
        },
        {
          "internalType": "address",
          "name": "account",
          "type": "address"
        }
      ],
      "name": "renounceRole",
      "outputs": [],
      "stateMutability": "nonpayable",
      "type": "function"
    },
    {
      "inputs": [
        {
          "internalType": "bytes32",
          "name": "role",
          "type": "bytes32"
        },
        {
          "internalType": "address",
          "name": "account",
          "type": "address"
        }
      ],
      "name": "revokeRole",
      "outputs": [],
      "stateMutability": "nonpayable",
      "type": "function"
    },
    {
      "inputs": [
        {
          "internalType": "bytes4",
          "name": "interfaceId",
          "type": "bytes4"
        }
      ],
      "name": "supportsInterface",
      "outputs": [
        {
          "internalType": "bool",
          "name": "",
          "type": "bool"
        }
      ],
      "stateMutability": "view",
      "type": "function"
    },
    {
      "inputs": [
        {
          "internalType": "uint256",
          "name": "",
          "type": "uint256"
        }
      ],
      "name": "trackingNumbers",
      "outputs": [
        {
          "internalType": "string",
          "name": "",
          "type": "string"
        }
      ],
      "stateMutability": "view",
      "type": "function"
    },
    {
      "inputs": [
        {
          "internalType": "string",
          "name": "_name",
          "type": "string"
        },
        {
          "internalType": "uint256",
          "name": "_initialPrice",
          "type": "uint256"
        },
        {
          "internalType": "string",
          "name": "_description",
          "type": "string"
        },
        {
          "internalType": "string",
          "name": "_brand",
          "type": "string"
        },
        {
          "internalType": "string",
          "name": "_recommendedAge",
          "type": "string"
        },
        {
          "internalType": "enum ClothingExchange.Sizes",
          "name": "_size",
          "type": "uint8"
        }
      ],
      "name": "listClothingOnSell",
      "outputs": [
        {
          "internalType": "uint256",
          "name": "",
          "type": "uint256"
        }
      ],
      "stateMutability": "nonpayable",
      "type": "function"
    },
    {
      "inputs": [
        {
          "internalType": "uint256",
          "name": "clothId",
          "type": "uint256"
        }
      ],
      "name": "bargainClothingPrice",
      "outputs": [
        {
          "internalType": "bool",
          "name": "",
          "type": "bool"
        }
      ],
      "stateMutability": "payable",
      "type": "function"
    },
    {
      "inputs": [
        {
          "internalType": "uint256",
          "name": "clothId",
          "type": "uint256"
        },
        {
          "internalType": "address payable",
          "name": "potentialBuyer",
          "type": "address"
        }
      ],
      "name": "confirmNewClothingPrice",
      "outputs": [
        {
          "internalType": "bool",
          "name": "",
          "type": "bool"
        }
      ],
      "stateMutability": "payable",
      "type": "function"
    },
    {
      "inputs": [
        {
          "internalType": "uint256",
          "name": "clothId",
          "type": "uint256"
        }
      ],
      "name": "buyClothingOnSell",
      "outputs": [
        {
          "internalType": "bool",
          "name": "",
          "type": "bool"
        }
      ],
      "stateMutability": "payable",
      "type": "function"
    },
    {
      "inputs": [
        {
          "internalType": "uint256",
          "name": "clothId",
          "type": "uint256"
        },
        {
          "internalType": "string",
          "name": "trackingNumber",
          "type": "string"
        }
      ],
      "name": "shipClothing",
      "outputs": [],
      "stateMutability": "nonpayable",
      "type": "function"
    },
    {
      "inputs": [
        {
          "internalType": "uint256",
          "name": "clothId",
          "type": "uint256"
        }
      ],
      "name": "receiveClothing",
      "outputs": [],
      "stateMutability": "nonpayable",
      "type": "function"
    },
    {
      "inputs": [
        {
          "internalType": "uint256",
          "name": "clothId",
          "type": "uint256"
        }
      ],
      "name": "getClothingById",
      "outputs": [
        {
          "internalType": "string",
          "name": "name",
          "type": "string"
        },
        {
          "internalType": "string",
          "name": "brand",
          "type": "string"
        },
        {
          "internalType": "string",
          "name": "description",
          "type": "string"
        },
        {
          "internalType": "string",
          "name": "recommendedAge",
          "type": "string"
        },
        {
          "internalType": "uint256",
          "name": "initialPrice",
          "type": "uint256"
        },
        {
          "internalType": "enum ClothingExchange.Sizes",
          "name": "size",
          "type": "uint8"
        },
        {
          "internalType": "address",
          "name": "seller",
          "type": "address"
        },
        {
          "internalType": "address",
          "name": "buyer",
          "type": "address"
        },
        {
          "internalType": "enum ClothingExchange.State",
          "name": "state",
          "type": "uint8"
        },
        {
          "internalType": "uint256",
          "name": "agreedPrice",
          "type": "uint256"
        },
        {
          "internalType": "address[]",
          "name": "tempPriceAddresses",
          "type": "address[]"
        }
      ],
      "stateMutability": "view",
      "type": "function"
    },
    {
      "inputs": [
        {
          "internalType": "uint256",
          "name": "clothId",
          "type": "uint256"
        },
        {
          "internalType": "address",
          "name": "buyer",
          "type": "address"
        }
      ],
      "name": "getClothingTempPrice",
      "outputs": [
        {
          "internalType": "uint256",
          "name": "suggestedPrice",
          "type": "uint256"
        }
      ],
      "stateMutability": "view",
      "type": "function"
    },
    {
      "inputs": [
        {
          "internalType": "uint256",
          "name": "clothId",
          "type": "uint256"
        }
      ],
      "name": "getTrackingNumber",
      "outputs": [
        {
          "internalType": "string",
          "name": "",
          "type": "string"
        }
      ],
      "stateMutability": "view",
      "type": "function"
    },
    {
      "inputs": [],
      "name": "mockGetLatestPrice",
      "outputs": [
        {
          "internalType": "uint80",
          "name": "_roundID",
          "type": "uint80"
        },
        {
          "internalType": "int256",
          "name": "_price",
          "type": "int256"
        },
        {
          "internalType": "uint256",
          "name": "_startedAt",
          "type": "uint256"
        },
        {
          "internalType": "uint256",
          "name": "_timeStamp",
          "type": "uint256"
        },
        {
          "internalType": "uint80",
          "name": "_answeredInRound",
          "type": "uint80"
        }
      ],
      "stateMutability": "pure",
      "type": "function"
    },
    {
      "inputs": [],
      "name": "getLatestPrice",
      "outputs": [
        {
          "internalType": "uint80",
          "name": "_roundID",
          "type": "uint80"
        },
        {
          "internalType": "int256",
          "name": "_price",
          "type": "int256"
        },
        {
          "internalType": "uint256",
          "name": "_startedAt",
          "type": "uint256"
        },
        {
          "internalType": "uint256",
          "name": "_timeStamp",
          "type": "uint256"
        },
        {
          "internalType": "uint80",
          "name": "_answeredInRound",
          "type": "uint80"
        }
      ],
      "stateMutability": "view",
      "type": "function"
    }
  ],
  "bytecode": "0x60806040523480156200001157600080fd5b50620000447fa49807205ce4d355092ef5a8a18f56e8913cf4a201fbe287825b095693c21775336200009f60201b60201c565b738a753747a1fa494ec906ce90e9f37563a8af630e600160006101000a81548173ffffffffffffffffffffffffffffffffffffffff021916908373ffffffffffffffffffffffffffffffffffffffff16021790555062000218565b620000b18282620000b560201b60201c565b5050565b620000c78282620001a660201b60201c565b620001a257600160008084815260200190815260200160002060000160008373ffffffffffffffffffffffffffffffffffffffff1673ffffffffffffffffffffffffffffffffffffffff16815260200190815260200160002060006101000a81548160ff021916908315150217905550620001476200021060201b60201c565b73ffffffffffffffffffffffffffffffffffffffff168173ffffffffffffffffffffffffffffffffffffffff16837f2f8788117e7eff1d82e926ec794901d17c78024a50270940304540a733656f0d60405160405180910390a45b5050565b600080600084815260200190815260200160002060000160008373ffffffffffffffffffffffffffffffffffffffff1673ffffffffffffffffffffffffffffffffffffffff16815260200190815260200160002060009054906101000a900460ff16905092915050565b600033905090565b61380380620002286000396000f3fe6080604052600436106101405760003560e01c80636f5c94b0116100b6578063a1e1e6e11161006f578063a1e1e6e1146104bd578063a217fddf146104fa578063b97ed92014610525578063d547741f14610562578063f2f08a221461058b578063f53d7dd1146105b657610140565b80636f5c94b01461039b57806375b238fc146103cb5780637aef088d146103f65780638e15f4731461042157806391d14854146104505780639716e0681461048d57610140565b80632a5e1d7e116101085780632a5e1d7e1461024e5780632f2ff15d1461029657806333191ff1146102bf57806336568abe146102ee57806338bd8ae014610317578063534cc1b01461035e57610140565b806301ffc9a7146101455780631ff5713e14610182578063248a9ca3146101ab578063259932ff146101e8578063265449bb14610211575b600080fd5b34801561015157600080fd5b5061016c6004803603810190610167919061270c565b6105e6565b6040516101799190612754565b60405180910390f35b34801561018e57600080fd5b506101a960048036038101906101a491906127a5565b610660565b005b3480156101b757600080fd5b506101d260048036038101906101cd9190612808565b6107ca565b6040516101df9190612844565b60405180910390f35b3480156101f457600080fd5b5061020f600480360381019061020a91906129a5565b6107e9565b005b34801561021d57600080fd5b5061023860048036038101906102339190612a5f565b610982565b6040516102459190612aae565b60405180910390f35b34801561025a57600080fd5b50610275600480360381019061027091906127a5565b6109e0565b60405161028d9c9b9a99989796959493929190612c31565b60405180910390f35b3480156102a257600080fd5b506102bd60048036038101906102b89190612d07565b610cba565b005b3480156102cb57600080fd5b506102d4610ce3565b6040516102e5959493929190612d85565b60405180910390f35b3480156102fa57600080fd5b5061031560048036038101906103109190612d07565b610d20565b005b34801561032357600080fd5b5061033e600480360381019061033991906127a5565b610da3565b6040516103559b9a99989796959493929190612ea5565b60405180910390f35b34801561036a57600080fd5b50610385600480360381019061038091906127a5565b6111d4565b6040516103929190612f73565b60405180910390f35b6103b560048036038101906103b091906127a5565b611274565b6040516103c29190612754565b60405180910390f35b3480156103d757600080fd5b506103e0611502565b6040516103ed9190612844565b60405180910390f35b34801561040257600080fd5b5061040b611526565b6040516104189190612aae565b60405180910390f35b34801561042d57600080fd5b5061043661152c565b604051610447959493929190612d85565b60405180910390f35b34801561045c57600080fd5b5061047760048036038101906104729190612d07565b6115f1565b6040516104849190612754565b60405180910390f35b6104a760048036038101906104a29190612fc1565b61165b565b6040516104b49190612754565b60405180910390f35b3480156104c957600080fd5b506104e460048036038101906104df91906127a5565b611aef565b6040516104f19190612f73565b60405180910390f35b34801561050657600080fd5b5061050f611b94565b60405161051c9190612844565b60405180910390f35b34801561053157600080fd5b5061054c60048036038101906105479190613026565b611b9b565b6040516105599190612aae565b60405180910390f35b34801561056e57600080fd5b5061058960048036038101906105849190612d07565b611d6e565b005b34801561059757600080fd5b506105a0611d97565b6040516105ad9190612aae565b60405180910390f35b6105d060048036038101906105cb91906127a5565b611d9c565b6040516105dd9190612754565b60405180910390f35b60007f7965db0b000000000000000000000000000000000000000000000000000000007bffffffffffffffffffffffffffffffffffffffffffffffffffffffff1916827bffffffffffffffffffffffffffffffffffffffffffffffffffffffff19161480610659575061065882611fb1565b5b9050919050565b6004600082815260200190815260200160002060080160009054906101000a900473ffffffffffffffffffffffffffffffffffffffff168073ffffffffffffffffffffffffffffffffffffffff163373ffffffffffffffffffffffffffffffffffffffff16146106cf57600080fd5b81600360048111156106e4576106e3612b51565b5b6004600083815260200190815260200160002060070160009054906101000a900460ff16600481111561071a57610719612b51565b5b1461072457600080fd5b600060046000858152602001908152602001600020905060048160070160006101000a81548160ff0219169083600481111561076357610762612b51565b5b0217905550837ff029cc62c2e487d7d873b093f0801c5c6908090fd67b3d552bd72f17edb979418260080160009054906101000a900473ffffffffffffffffffffffffffffffffffffffff166040516107bc9190613182565b60405180910390a250505050565b6000806000838152602001908152602001600020600101549050919050565b6004600083815260200190815260200160002060070160019054906101000a900473ffffffffffffffffffffffffffffffffffffffff168073ffffffffffffffffffffffffffffffffffffffff163373ffffffffffffffffffffffffffffffffffffffff161461085857600080fd5b826002600481111561086d5761086c612b51565b5b6004600083815260200190815260200160002060070160009054906101000a900460ff1660048111156108a3576108a2612b51565b5b146108ad57600080fd5b600060046000868152602001908152602001600020905060038160070160006101000a81548160ff021916908360048111156108ec576108eb612b51565b5b0217905550836003600083600001548152602001908152602001600020908051906020019061091c9291906125fd565b50847fc87b1a58ed0a2f6062b50edf9bca36ade4aaac15ed52c7a17cbffad7aaa2ee2b8260070160019054906101000a900473ffffffffffffffffffffffffffffffffffffffff168660405161097392919061319d565b60405180910390a25050505050565b60006004600084815260200190815260200160002060090160008373ffffffffffffffffffffffffffffffffffffffff1673ffffffffffffffffffffffffffffffffffffffff16815260200190815260200160002054905092915050565b6004602052806000526040600020600091509050806000015490806001018054610a09906131fc565b80601f0160208091040260200160405190810160405280929190818152602001828054610a35906131fc565b8015610a825780601f10610a5757610100808354040283529160200191610a82565b820191906000526020600020905b815481529060010190602001808311610a6557829003601f168201915b505050505090806002015490806003018054610a9d906131fc565b80601f0160208091040260200160405190810160405280929190818152602001828054610ac9906131fc565b8015610b165780601f10610aeb57610100808354040283529160200191610b16565b820191906000526020600020905b815481529060010190602001808311610af957829003601f168201915b505050505090806004018054610b2b906131fc565b80601f0160208091040260200160405190810160405280929190818152602001828054610b57906131fc565b8015610ba45780601f10610b7957610100808354040283529160200191610ba4565b820191906000526020600020905b815481529060010190602001808311610b8757829003601f168201915b5050505050908060050160009054906101000a900460ff1690806006018054610bcc906131fc565b80601f0160208091040260200160405190810160405280929190818152602001828054610bf8906131fc565b8015610c455780601f10610c1a57610100808354040283529160200191610c45565b820191906000526020600020905b815481529060010190602001808311610c2857829003601f168201915b5050505050908060070160009054906101000a900460ff16908060070160019054906101000a900473ffffffffffffffffffffffffffffffffffffffff16908060080160009054906101000a900473ffffffffffffffffffffffffffffffffffffffff169080600a01549080600b015490508c565b610cc3826107ca565b610cd481610ccf61201b565b612023565b610cde83836120c0565b505050565b600080600080600068020000000000003bb39450646ac1150e2d93506361a6603992506361a66039915068020000000000003bb390509091929394565b610d2861201b565b73ffffffffffffffffffffffffffffffffffffffff168173ffffffffffffffffffffffffffffffffffffffff1614610d95576040517f08c379a0000000000000000000000000000000000000000000000000000000008152600401610d8c906132a0565b60405180910390fd5b610d9f82826121a0565b5050565b6060806060806000806000806000806060600460008d81526020019081526020016000206001018054610dd5906131fc565b80601f0160208091040260200160405190810160405280929190818152602001828054610e01906131fc565b8015610e4e5780601f10610e2357610100808354040283529160200191610e4e565b820191906000526020600020905b815481529060010190602001808311610e3157829003601f168201915b50505050509a50600460008d81526020019081526020016000206004018054610e76906131fc565b80601f0160208091040260200160405190810160405280929190818152602001828054610ea2906131fc565b8015610eef5780601f10610ec457610100808354040283529160200191610eef565b820191906000526020600020905b815481529060010190602001808311610ed257829003601f168201915b50505050509950600460008d81526020019081526020016000206003018054610f17906131fc565b80601f0160208091040260200160405190810160405280929190818152602001828054610f43906131fc565b8015610f905780601f10610f6557610100808354040283529160200191610f90565b820191906000526020600020905b815481529060010190602001808311610f7357829003601f168201915b50505050509850600460008d81526020019081526020016000206006018054610fb8906131fc565b80601f0160208091040260200160405190810160405280929190818152602001828054610fe4906131fc565b80156110315780601f1061100657610100808354040283529160200191611031565b820191906000526020600020905b81548152906001019060200180831161101457829003601f168201915b50505050509750600460008d8152602001908152602001600020600201549650600460008d815260200190815260200160002060050160009054906101000a900460ff169550600460008d815260200190815260200160002060070160019054906101000a900473ffffffffffffffffffffffffffffffffffffffff169450600460008d815260200190815260200160002060080160009054906101000a900473ffffffffffffffffffffffffffffffffffffffff169350600460008d815260200190815260200160002060070160009054906101000a900460ff169250600460008d8152602001908152602001600020600b01549150600460008d8152602001908152602001600020600c018054806020026020016040519081016040528092919081815260200182805480156111be57602002820191906000526020600020905b8160009054906101000a900473ffffffffffffffffffffffffffffffffffffffff1673ffffffffffffffffffffffffffffffffffffffff1681526020019060010190808311611174575b5050505050905091939597999b90929496989a50565b600360205280600052604060002060009150905080546111f3906131fc565b80601f016020809104026020016040519081016040528092919081815260200182805461121f906131fc565b801561126c5780601f106112415761010080835404028352916020019161126c565b820191906000526020600020905b81548152906001019060200180831161124f57829003601f168201915b505050505081565b6000816001600481111561128b5761128a612b51565b5b6004600083815260200190815260200160002060070160009054906101000a900460ff1660048111156112c1576112c0612b51565b5b146112cb57600080fd5b6004600084815260200190815260200160002060020154803410156112ef57600080fd5b60046000858152602001908152602001600020600201546000600460008781526020019081526020016000209050338160080160006101000a81548173ffffffffffffffffffffffffffffffffffffffff021916908373ffffffffffffffffffffffffffffffffffffffff16021790555060028160070160006101000a81548160ff0219169083600481111561138857611387612b51565b5b021790555060008160070160019054906101000a900473ffffffffffffffffffffffffffffffffffffffff1673ffffffffffffffffffffffffffffffffffffffff1682600201546040516113db906132f1565b60006040518083038185875af1925050503d8060008114611418576040519150601f19603f3d011682016040523d82523d6000602084013e61141d565b606091505b505090508061142b57600080fd5b867f25a00cdd1befd37a459f2ea4bdcb9994c9cf8562fb15b97e519af8bc81320a883360405161145b9190613306565b60405180910390a28095505050600081346114769190613350565b905060008111156114f95760003373ffffffffffffffffffffffffffffffffffffffff16826040516114a7906132f1565b60006040518083038185875af1925050503d80600081146114e4576040519150601f19603f3d011682016040523d82523d6000602084013e6114e9565b606091505b50509050806114f757600080fd5b505b50505050919050565b7fa49807205ce4d355092ef5a8a18f56e8913cf4a201fbe287825b095693c2177581565b60025481565b600080600080600080600080600080600160009054906101000a900473ffffffffffffffffffffffffffffffffffffffff1673ffffffffffffffffffffffffffffffffffffffff1663feaf968c6040518163ffffffff1660e01b815260040160a060405180830381865afa1580156115a8573d6000803e3d6000fd5b505050506040513d601f19601f820116820180604052508101906115cc91906133f1565b9450945094509450945084995083985082975081965080955050505050509091929394565b600080600084815260200190815260200160002060000160008373ffffffffffffffffffffffffffffffffffffffff1673ffffffffffffffffffffffffffffffffffffffff16815260200190815260200160002060009054906101000a900460ff16905092915050565b60006004600084815260200190815260200160002060070160019054906101000a900473ffffffffffffffffffffffffffffffffffffffff168073ffffffffffffffffffffffffffffffffffffffff163373ffffffffffffffffffffffffffffffffffffffff16146116cc57600080fd5b6004600085815260200190815260200160002060090160008473ffffffffffffffffffffffffffffffffffffffff1673ffffffffffffffffffffffffffffffffffffffff1681526020019081526020016000205460008111611763576040517f08c379a000000000000000000000000000000000000000000000000000000000815260040161175a906134b8565b60405180910390fd5b846001600481111561177857611777612b51565b5b6004600083815260200190815260200160002060070160009054906101000a900460ff1660048111156117ae576117ad612b51565b5b146117b857600080fd5b60006004600088815260200190815260200160002090508060090160008773ffffffffffffffffffffffffffffffffffffffff1673ffffffffffffffffffffffffffffffffffffffff1681526020019081526020016000205481600b0181905550858160080160006101000a81548173ffffffffffffffffffffffffffffffffffffffff021916908373ffffffffffffffffffffffffffffffffffffffff16021790555060028160070160006101000a81548160ff0219169083600481111561188457611883612b51565b5b021790555060008160070160019054906101000a900473ffffffffffffffffffffffffffffffffffffffff1673ffffffffffffffffffffffffffffffffffffffff1682600b01546040516118d7906132f1565b60006040518083038185875af1925050503d8060008114611914576040519150601f19603f3d011682016040523d82523d6000602084013e611919565b606091505b505090508061192757600080fd5b60005b82600c0180549050811015611a7e57600083600c018281548110611951576119506134d8565b5b9060005260206000200160009054906101000a900473ffffffffffffffffffffffffffffffffffffffff1690508873ffffffffffffffffffffffffffffffffffffffff168173ffffffffffffffffffffffffffffffffffffffff1614611a6a5760008173ffffffffffffffffffffffffffffffffffffffff168560090160008473ffffffffffffffffffffffffffffffffffffffff1673ffffffffffffffffffffffffffffffffffffffff16815260200190815260200160002054604051611a18906132f1565b60006040518083038185875af1925050503d8060008114611a55576040519150601f19603f3d011682016040523d82523d6000602084013e611a5a565b606091505b5050905080611a6857600080fd5b505b508080611a7690613507565b91505061192a565b50877f28d7dc338fbcdc1b2259a6b057ec4e405005fe2b3dc1afc4111c3481bc09898d8360080160009054906101000a900473ffffffffffffffffffffffffffffffffffffffff1684600b0154604051611ad9929190613550565b60405180910390a2809550505050505092915050565b6060600360008381526020019081526020016000208054611b0f906131fc565b80601f0160208091040260200160405190810160405280929190818152602001828054611b3b906131fc565b8015611b885780601f10611b5d57610100808354040283529160200191611b88565b820191906000526020600020905b815481529060010190602001808311611b6b57829003601f168201915b50505050509050919050565b6000801b81565b60008560008111611be1576040517f08c379a0000000000000000000000000000000000000000000000000000000008152600401611bd8906134b8565b60405180910390fd5b60006004600060025481526020019081526020016000209050600254816000018190555088816001019080519060200190611c1d9291906125fd565b5087816002018190555086816003019080519060200190611c3f9291906125fd565b5085816004019080519060200190611c589291906125fd565b50838160050160006101000a81548160ff02191690836003811115611c8057611c7f612b51565b5b021790555084816006019080519060200190611c9d9291906125fd565b50338160070160016101000a81548173ffffffffffffffffffffffffffffffffffffffff021916908373ffffffffffffffffffffffffffffffffffffffff16021790555060018160070160006101000a81548160ff02191690836004811115611d0957611d08612b51565b5b02179055506001600254611d1d9190613579565b6002819055506002547fa6574571418e0054a458dc54b5f95baa2679290b3db6bbcb023fba3980726cc333604051611d559190613306565b60405180910390a2600254925050509695505050505050565b611d77826107ca565b611d8881611d8361201b565b612023565b611d9283836121a0565b505050565b600581565b60008160016004811115611db357611db2612b51565b5b6004600083815260200190815260200160002060070160009054906101000a900460ff166004811115611de957611de8612b51565b5b14611df357600080fd5b3460008111611e37576040517f08c379a0000000000000000000000000000000000000000000000000000000008152600401611e2e906134b8565b60405180910390fd5b60046000858152602001908152602001600020600c01805480602002602001604051908101604052809291908181526020018280548015611ecd57602002820191906000526020600020905b8160009054906101000a900473ffffffffffffffffffffffffffffffffffffffff1673ffffffffffffffffffffffffffffffffffffffff1681526020019060010190808311611e83575b5050505050600581511115611ee157600080fd5b60003390506000600460008881526020019081526020016000209050348160090160008473ffffffffffffffffffffffffffffffffffffffff1673ffffffffffffffffffffffffffffffffffffffff16815260200190815260200160002081905550600181600a016000828254611f589190613579565b92505081905550611f698733612281565b867fde0477600eae6a9400d74ad2fa3259d55706c84a4e070d578eb31e5c6f6c958e8334604051611f9b929190613550565b60405180910390a2600195505050505050919050565b60007f01ffc9a7000000000000000000000000000000000000000000000000000000007bffffffffffffffffffffffffffffffffffffffffffffffffffffffff1916827bffffffffffffffffffffffffffffffffffffffffffffffffffffffff1916149050919050565b600033905090565b61202d82826115f1565b6120bc576120528173ffffffffffffffffffffffffffffffffffffffff1660146123c1565b6120608360001c60206123c1565b6040516020016120719291906136a3565b6040516020818303038152906040526040517f08c379a00000000000000000000000000000000000000000000000000000000081526004016120b39190612f73565b60405180910390fd5b5050565b6120ca82826115f1565b61219c57600160008084815260200190815260200160002060000160008373ffffffffffffffffffffffffffffffffffffffff1673ffffffffffffffffffffffffffffffffffffffff16815260200190815260200160002060006101000a81548160ff02191690831515021790555061214161201b565b73ffffffffffffffffffffffffffffffffffffffff168173ffffffffffffffffffffffffffffffffffffffff16837f2f8788117e7eff1d82e926ec794901d17c78024a50270940304540a733656f0d60405160405180910390a45b5050565b6121aa82826115f1565b1561227d57600080600084815260200190815260200160002060000160008373ffffffffffffffffffffffffffffffffffffffff1673ffffffffffffffffffffffffffffffffffffffff16815260200190815260200160002060006101000a81548160ff02191690831515021790555061222261201b565b73ffffffffffffffffffffffffffffffffffffffff168173ffffffffffffffffffffffffffffffffffffffff16837ff6391f5c32d9c69d2a47ea670b442974b53935d1edc7fd64eb21e047a839171b60405160405180910390a45b5050565b600080600460008581526020019081526020016000209050600581600c0180549050106122ad57600080fd5b60005b81600c018054905081101561234f5781600c0181815481106122d5576122d46134d8565b5b9060005260206000200160009054906101000a900473ffffffffffffffffffffffffffffffffffffffff1673ffffffffffffffffffffffffffffffffffffffff168473ffffffffffffffffffffffffffffffffffffffff16141561233c576001925061234f565b808061234790613507565b9150506122b0565b50816123bb5780600c01839080600181540180825580915050600190039060005260206000200160009091909190916101000a81548173ffffffffffffffffffffffffffffffffffffffff021916908373ffffffffffffffffffffffffffffffffffffffff1602179055505b50505050565b6060600060028360026123d491906136dd565b6123de9190613579565b67ffffffffffffffff8111156123f7576123f661287a565b5b6040519080825280601f01601f1916602001820160405280156124295781602001600182028036833780820191505090505b5090507f300000000000000000000000000000000000000000000000000000000000000081600081518110612461576124606134d8565b5b60200101907effffffffffffffffffffffffffffffffffffffffffffffffffffffffffffff1916908160001a9053507f7800000000000000000000000000000000000000000000000000000000000000816001815181106124c5576124c46134d8565b5b60200101907effffffffffffffffffffffffffffffffffffffffffffffffffffffffffffff1916908160001a9053506000600184600261250591906136dd565b61250f9190613579565b90505b60018111156125af577f3031323334353637383961626364656600000000000000000000000000000000600f861660108110612551576125506134d8565b5b1a60f81b828281518110612568576125676134d8565b5b60200101907effffffffffffffffffffffffffffffffffffffffffffffffffffffffffffff1916908160001a905350600485901c9450806125a890613737565b9050612512565b50600084146125f3576040517f08c379a00000000000000000000000000000000000000000000000000000000081526004016125ea906137ad565b60405180910390fd5b8091505092915050565b828054612609906131fc565b90600052602060002090601f01602090048101928261262b5760008555612672565b82601f1061264457805160ff1916838001178555612672565b82800160010185558215612672579182015b82811115612671578251825591602001919060010190612656565b5b50905061267f9190612683565b5090565b5b8082111561269c576000816000905550600101612684565b5090565b6000604051905090565b600080fd5b600080fd5b60007fffffffff0000000000000000000000000000000000000000000000000000000082169050919050565b6126e9816126b4565b81146126f457600080fd5b50565b600081359050612706816126e0565b92915050565b600060208284031215612722576127216126aa565b5b6000612730848285016126f7565b91505092915050565b60008115159050919050565b61274e81612739565b82525050565b60006020820190506127696000830184612745565b92915050565b6000819050919050565b6127828161276f565b811461278d57600080fd5b50565b60008135905061279f81612779565b92915050565b6000602082840312156127bb576127ba6126aa565b5b60006127c984828501612790565b91505092915050565b6000819050919050565b6127e5816127d2565b81146127f057600080fd5b50565b600081359050612802816127dc565b92915050565b60006020828403121561281e5761281d6126aa565b5b600061282c848285016127f3565b91505092915050565b61283e816127d2565b82525050565b60006020820190506128596000830184612835565b92915050565b600080fd5b600080fd5b6000601f19601f8301169050919050565b7f4e487b7100000000000000000000000000000000000000000000000000000000600052604160045260246000fd5b6128b282612869565b810181811067ffffffffffffffff821117156128d1576128d061287a565b5b80604052505050565b60006128e46126a0565b90506128f082826128a9565b919050565b600067ffffffffffffffff8211156129105761290f61287a565b5b61291982612869565b9050602081019050919050565b82818337600083830152505050565b6000612948612943846128f5565b6128da565b90508281526020810184848401111561296457612963612864565b5b61296f848285612926565b509392505050565b600082601f83011261298c5761298b61285f565b5b813561299c848260208601612935565b91505092915050565b600080604083850312156129bc576129bb6126aa565b5b60006129ca85828601612790565b925050602083013567ffffffffffffffff8111156129eb576129ea6126af565b5b6129f785828601612977565b9150509250929050565b600073ffffffffffffffffffffffffffffffffffffffff82169050919050565b6000612a2c82612a01565b9050919050565b612a3c81612a21565b8114612a4757600080fd5b50565b600081359050612a5981612a33565b92915050565b60008060408385031215612a7657612a756126aa565b5b6000612a8485828601612790565b9250506020612a9585828601612a4a565b9150509250929050565b612aa88161276f565b82525050565b6000602082019050612ac36000830184612a9f565b92915050565b600081519050919050565b600082825260208201905092915050565b60005b83811015612b03578082015181840152602081019050612ae8565b83811115612b12576000848401525b50505050565b6000612b2382612ac9565b612b2d8185612ad4565b9350612b3d818560208601612ae5565b612b4681612869565b840191505092915050565b7f4e487b7100000000000000000000000000000000000000000000000000000000600052602160045260246000fd5b60048110612b9157612b90612b51565b5b50565b6000819050612ba282612b80565b919050565b6000612bb282612b94565b9050919050565b612bc281612ba7565b82525050565b60058110612bd957612bd8612b51565b5b50565b6000819050612bea82612bc8565b919050565b6000612bfa82612bdc565b9050919050565b612c0a81612bef565b82525050565b6000612c1b82612a01565b9050919050565b612c2b81612c10565b82525050565b600061018082019050612c47600083018f612a9f565b8181036020830152612c59818e612b18565b9050612c68604083018d612a9f565b8181036060830152612c7a818c612b18565b90508181036080830152612c8e818b612b18565b9050612c9d60a083018a612bb9565b81810360c0830152612caf8189612b18565b9050612cbe60e0830188612c01565b612ccc610100830187612c22565b612cda610120830186612c22565b612ce8610140830185612a9f565b612cf6610160830184612a9f565b9d9c50505050505050505050505050565b60008060408385031215612d1e57612d1d6126aa565b5b6000612d2c858286016127f3565b9250506020612d3d85828601612a4a565b9150509250929050565b600069ffffffffffffffffffff82169050919050565b612d6681612d47565b82525050565b6000819050919050565b612d7f81612d6c565b82525050565b600060a082019050612d9a6000830188612d5d565b612da76020830187612d76565b612db46040830186612a9f565b612dc16060830185612a9f565b612dce6080830184612d5d565b9695505050505050565b612de181612a21565b82525050565b600081519050919050565b600082825260208201905092915050565b6000819050602082019050919050565b612e1c81612a21565b82525050565b6000612e2e8383612e13565b60208301905092915050565b6000602082019050919050565b6000612e5282612de7565b612e5c8185612df2565b9350612e6783612e03565b8060005b83811015612e98578151612e7f8882612e22565b9750612e8a83612e3a565b925050600181019050612e6b565b5085935050505092915050565b6000610160820190508181036000830152612ec0818e612b18565b90508181036020830152612ed4818d612b18565b90508181036040830152612ee8818c612b18565b90508181036060830152612efc818b612b18565b9050612f0b608083018a612a9f565b612f1860a0830189612bb9565b612f2560c0830188612dd8565b612f3260e0830187612dd8565b612f40610100830186612c01565b612f4e610120830185612a9f565b818103610140830152612f618184612e47565b90509c9b505050505050505050505050565b60006020820190508181036000830152612f8d8184612b18565b905092915050565b612f9e81612c10565b8114612fa957600080fd5b50565b600081359050612fbb81612f95565b92915050565b60008060408385031215612fd857612fd76126aa565b5b6000612fe685828601612790565b9250506020612ff785828601612fac565b9150509250929050565b6004811061300e57600080fd5b50565b60008135905061302081613001565b92915050565b60008060008060008060c08789031215613043576130426126aa565b5b600087013567ffffffffffffffff811115613061576130606126af565b5b61306d89828a01612977565b965050602061307e89828a01612790565b955050604087013567ffffffffffffffff81111561309f5761309e6126af565b5b6130ab89828a01612977565b945050606087013567ffffffffffffffff8111156130cc576130cb6126af565b5b6130d889828a01612977565b935050608087013567ffffffffffffffff8111156130f9576130f86126af565b5b61310589828a01612977565b92505060a061311689828a01613011565b9150509295509295509295565b6000819050919050565b600061314861314361313e84612a01565b613123565b612a01565b9050919050565b600061315a8261312d565b9050919050565b600061316c8261314f565b9050919050565b61317c81613161565b82525050565b60006020820190506131976000830184613173565b92915050565b60006040820190506131b26000830185613173565b81810360208301526131c48184612b18565b90509392505050565b7f4e487b7100000000000000000000000000000000000000000000000000000000600052602260045260246000fd5b6000600282049050600182168061321457607f821691505b60208210811415613228576132276131cd565b5b50919050565b7f416363657373436f6e74726f6c3a2063616e206f6e6c792072656e6f756e636560008201527f20726f6c657320666f722073656c660000000000000000000000000000000000602082015250565b600061328a602f83612ad4565b91506132958261322e565b604082019050919050565b600060208201905081810360008301526132b98161327d565b9050919050565b600081905092915050565b50565b60006132db6000836132c0565b91506132e6826132cb565b600082019050919050565b60006132fc826132ce565b9150819050919050565b600060208201905061331b6000830184612dd8565b92915050565b7f4e487b7100000000000000000000000000000000000000000000000000000000600052601160045260246000fd5b600061335b8261276f565b91506133668361276f565b92508282101561337957613378613321565b5b828203905092915050565b61338d81612d47565b811461339857600080fd5b50565b6000815190506133aa81613384565b92915050565b6133b981612d6c565b81146133c457600080fd5b50565b6000815190506133d6816133b0565b92915050565b6000815190506133eb81612779565b92915050565b600080600080600060a0868803121561340d5761340c6126aa565b5b600061341b8882890161339b565b955050602061342c888289016133c7565b945050604061343d888289016133dc565b935050606061344e888289016133dc565b925050608061345f8882890161339b565b9150509295509295909350565b7f5072696365206d7573742062652067726561746572207468616e203000000000600082015250565b60006134a2601c83612ad4565b91506134ad8261346c565b602082019050919050565b600060208201905081810360008301526134d181613495565b9050919050565b7f4e487b7100000000000000000000000000000000000000000000000000000000600052603260045260246000fd5b60006135128261276f565b91507fffffffffffffffffffffffffffffffffffffffffffffffffffffffffffffffff82141561354557613544613321565b5b600182019050919050565b60006040820190506135656000830185613173565b6135726020830184612a9f565b9392505050565b60006135848261276f565b915061358f8361276f565b9250827fffffffffffffffffffffffffffffffffffffffffffffffffffffffffffffffff038211156135c4576135c3613321565b5b828201905092915050565b600081905092915050565b7f416363657373436f6e74726f6c3a206163636f756e7420000000000000000000600082015250565b60006136106017836135cf565b915061361b826135da565b601782019050919050565b600061363182612ac9565b61363b81856135cf565b935061364b818560208601612ae5565b80840191505092915050565b7f206973206d697373696e6720726f6c6520000000000000000000000000000000600082015250565b600061368d6011836135cf565b915061369882613657565b601182019050919050565b60006136ae82613603565b91506136ba8285613626565b91506136c582613680565b91506136d18284613626565b91508190509392505050565b60006136e88261276f565b91506136f38361276f565b9250817fffffffffffffffffffffffffffffffffffffffffffffffffffffffffffffffff048311821515161561372c5761372b613321565b5b828202905092915050565b60006137428261276f565b9150600082141561375657613755613321565b5b600182039050919050565b7f537472696e67733a20686578206c656e67746820696e73756666696369656e74600082015250565b6000613797602083612ad4565b91506137a282613761565b602082019050919050565b600060208201905081810360008301526137c68161378a565b905091905056fea264697066735822122099150157761e177a6ccd7fabfa0a229274426293e7190bcedaec9b0c569de85364736f6c634300080a0033",
  "immutableReferences": {},
  "source": "// SPDX-License-Identifier: MIT\nimport \"@openzeppelin/contracts/access/AccessControl.sol\";\nimport \"@chainlink/contracts/src/v0.8/interfaces/AggregatorV3Interface.sol\";\n\npragma solidity 0.8.10;\n\n/// @title Kid's clothing exchange\n/// @author Daniel Martinez\n/// @notice This contract is a proof of concept\n/// @custom:experimental This is an experimental contract.\ncontract ClothingExchange is AccessControl {\n\n  AggregatorV3Interface internal priceFeed;\n\n  /// @dev Open zeppelin role definition\n  bytes32 public constant ADMIN_ROLE = keccak256(\"ADMIN_ROLE\");\n\n  /// @dev All the states of an order (a cloth)\n  enum State {\n    EMPTY,\n    LISTED,\n    SOLD,\n    SHIPPED,\n    RECEIVED\n  }\n\n  /// @dev All the sizes of a cloth\n  enum Sizes {\n    SMALL,\n    MEDIUM,\n    LARGE,\n    XLARGE\n  }\n\n  /// @dev The number of added clothes to the mapping\n  uint public clothingCounter;\n\n  /// @dev Limit the number of buyers that can bargain a garment\n  uint public constant BARGAIN_ADDRESS_LIMIT = 5;\n\n  /// @dev The clothing struct that defines all the properties of the cloth\n  struct Cloth {\n    uint clothId;\n    string name;\n    uint initialPrice;\n    string description;\n    string brand;\n    Sizes size;\n    string recommendedAge;\n    State state;\n    address payable seller;\n    address payable buyer;\n    mapping (address => uint) tempPrice;\n    uint tempPriceCounter;\n    uint agreedPrice;\n    address[] tempPriceAddresses;\n  }\n\n  /// @dev A tracking numbers mapping to associate a tracking number to a cloth\n  mapping (uint => string) public trackingNumbers;\n\n  /// @dev Clothing mapping that handles all the clothes\n  mapping (uint => Cloth) public clothing;\n\n  /// @notice Validates that the sender is the owner\n  modifier isOwner () {\n    require (hasRole(ADMIN_ROLE, msg.sender), \"Is not owner\");\n    _;\n  }\n\n  /// @notice Validates the price to be greater than zero\n  /// @param _price The cloth price\n  modifier validPrice (uint _price) {\n    require (_price > 0, \"Price must be greater than 0\");\n    _;\n  }\n\n  /// @notice Validates the listed state\n  /// @param clothId The cloth id\n  modifier isListed (uint clothId) {\n    require (clothing[clothId].state == State.LISTED);\n    _;\n  }\n\n  /// @notice Validates the limit of addresses that can make a new offer\n  /// @param tempPriceAddresses Array of address that can make an offer\n  modifier canBargain (address[] memory tempPriceAddresses) {\n    require (tempPriceAddresses.length <= BARGAIN_ADDRESS_LIMIT);\n    _;\n  } \n\n  /// @notice Validates the sold state\n  /// @param clothId The cloth id\n  modifier isSold (uint clothId) {\n    require (clothing[clothId].state == State.SOLD);\n    _;\n  }\n\n  /// @notice Validates the shipped state\n  /// @param clothId The cloth id\n  modifier isShipped (uint clothId) {\n    require (clothing[clothId].state == State.SHIPPED);\n    _;\n  }\n\n  /// @notice Validates that the defined address made the function call\n  modifier verifyCaller (address caller) {\n    require (msg.sender == caller);\n    _;\n  }\n\n  /// @notice Validates that the payment was the same as the price\n  /// @param price The cloth price\n  modifier paidEnough (uint price) {\n    require (msg.value >= price);\n    _;\n  }\n\n  /// @notice Refunds if the payment was greater than the price\n  /// @param price The cloth price\n  modifier verifyExcessAmount (uint price) {\n    _;\n    uint refundValue = msg.value - price;\n    if (refundValue > 0) {\n      (bool _sent,) = msg.sender.call{value: refundValue}(\"\");\n      require(_sent);\n    }\n  }\n\n  /// @notice LogEvent that triggers when a clothing was listed for sale\n  /// @param seller The address of the seller\n  /// @param clothCounter The counter of the clothes added\n  event LogListClothingForSale (address seller, uint indexed clothCounter);\n\n  /// @notice LogEvent that triggers when a new offer was made for a piece of clothing\n  /// @param clothId The cloth id\n  /// @param newPrice The offered price\n  event LogAddedBargain (address buyer, uint indexed clothId, uint newPrice);\n\n  /// @notice LogEvent that triggers an offer has been confirmed\n  /// @param buyer The address of the buyer\n  /// @param clothId The cloth id\n  /// @param confirmedPrice The confirmedPrice\n  event LogConfirmedNewPrice (address buyer, uint indexed clothId, uint confirmedPrice);\n\n  /// @notice LogEvent that triggers when a cloth has been bought\n  /// @param buyer The address of the buyer\n  /// @param clothId The cloth id\n  event LogClothingBought (address buyer, uint indexed clothId);\n\n  /// @notice LogEvent that triggers when a cloth has been shipped\n  /// @param seller The address of the seller\n  /// @param clothId The cloth id\n  /// @param trackingNumber The tracking number of the shipment service\n  event LogClothShipped (address seller, uint indexed clothId, string trackingNumber);\n\n  /// @notice LogEvent that triggers when a cloth has been received\n  /// @param buyer The address of the buyer\n  /// @param clothId The cloth id\n  event LogClothReceived (address buyer, uint indexed clothId);\n\n  /// @notice LogEvent that triggers when the owner calls a function\n  /// @param owner The address of the owner\n  event LogOwnerCall (address owner);\n\n  /// @dev Open zeppelin setup role for the contract owner, initialization of the chainlink data feed agregator\n  constructor () {\n    _setupRole(ADMIN_ROLE, msg.sender);\n    // Rinkeby data feed address 0x8A753747A1Fa494EC906cE90E9f37563A8AF630e\n    priceFeed = AggregatorV3Interface(0x8A753747A1Fa494EC906cE90E9f37563A8AF630e);\n  }\n\n  /// @notice It validates that the initial price is greater than zero\n  /// @param _name Title of the kid's cloth to sell\n  /// @param _initialPrice The initial price of the cloth\n  /// @param _description A little description of the condition of the clothing\n  /// @param _brand The cloth's brand\n  /// @param _recommendedAge The recommended age for this piece of clothing\n  /// @param _size The size of the cloth\n  /// @return The cloth counter\n  function listClothingOnSell (\n    string memory _name,\n    uint _initialPrice,\n    string memory _description,\n    string memory _brand,\n    string memory _recommendedAge,\n    Sizes _size\n  ) public validPrice(_initialPrice) returns (uint) {\n    Cloth storage cloth = clothing[clothingCounter];\n    cloth.clothId = clothingCounter;\n    cloth.name = _name;\n    cloth.initialPrice = _initialPrice;\n    cloth.description = _description;\n    cloth.brand = _brand;\n    cloth.size = _size;\n    cloth.recommendedAge = _recommendedAge;\n    cloth.seller = payable(msg.sender);\n    cloth.state = State.LISTED;\n    clothingCounter = clothingCounter + 1;\n    emit LogListClothingForSale(msg.sender, clothingCounter);\n    return clothingCounter;\n  }\n\n  /// @dev There is a validation to limit the number of addresses for tempPriceAddresses\n  /// @param clothId The cloth id for the mapping\n  /// @param buyer The address of the potential buyer\n  function addAddressToTempPriceAddresses (uint clothId, address buyer) private {\n    bool inArray = false;\n    Cloth storage c = clothing[clothId];\n    require (c.tempPriceAddresses.length < BARGAIN_ADDRESS_LIMIT);\n    for (uint i = 0; i < c.tempPriceAddresses.length; i++) {\n      if (buyer == c.tempPriceAddresses[i]) {\n\tinArray = true;\n\tbreak;\n      }\n    }\n    if (!inArray) {\n      c.tempPriceAddresses.push(buyer);\n    }\n  }\n\n  /// @notice It validates a LISTED state, price > 0 and that the address can make an offer (the address is not seller)\n  /// @param clothId The cloth id for the mapping\n  /// @return True if no errors were thrown\n  function bargainClothingPrice (\n    uint clothId\n  ) isListed(clothId) validPrice(msg.value) canBargain(clothing[clothId].tempPriceAddresses) public payable returns (bool) {\n    address payable potentialBuyer = payable(msg.sender);\n    Cloth storage c = clothing[clothId];\n    c.tempPrice[potentialBuyer] = msg.value;\n    c.tempPriceCounter += 1;\n    addAddressToTempPriceAddresses(clothId, msg.sender);\n    emit LogAddedBargain(potentialBuyer, clothId, msg.value);\n    return true;\n  }\n\n  /// @notice It validates the caller of the function is the seller, price > 0 and the state is LISTED\n  /// @param clothId The cloth id for the mapping\n  /// @param potentialBuyer The address of the potential buyer\n  /// @return True if no errors were thrown\n  function confirmNewClothingPrice (\n    uint clothId,\n    address payable potentialBuyer\n  ) verifyCaller(clothing[clothId].seller) validPrice(clothing[clothId].tempPrice[potentialBuyer]) isListed(clothId) public payable returns (bool) {\n    Cloth storage c = clothing[clothId];\n    c.agreedPrice = c.tempPrice[potentialBuyer];\n    c.buyer = potentialBuyer;\n    c.state = State.SOLD;\n    (bool sent,) = c.seller.call{value: c.agreedPrice}(\"\");\n    require (sent);\n    for (uint i = 0; i < c.tempPriceAddresses.length; i++) {\n      address a = c.tempPriceAddresses[i];\n      if (a != potentialBuyer) {\n\t(bool _sent,) = a.call{value: c.tempPrice[a]}(\"\");\n\trequire(_sent);\n      }\n    }\n    emit LogConfirmedNewPrice(c.buyer, clothId, c.agreedPrice);\n    return sent;\n  }\n\n  /// @notice It validates the payed amount is valid, the item is LISTED and if the amount payed is more than the price, a refund process is executed\n  /// @param clothId The cloth id for the mapping\n  /// @return True if no errors were thrown\n  function buyClothingOnSell (\n    uint clothId\n  ) isListed(clothId) paidEnough(clothing[clothId].initialPrice) verifyExcessAmount(clothing[clothId].initialPrice) public payable returns (bool) {\n    Cloth storage c = clothing[clothId];\n    c.buyer = payable(msg.sender);\n    c.state = State.SOLD;\n    // transfer funds\n    (bool sent,) = c.seller.call{value: c.initialPrice}(\"\");\n    require (sent);\n    emit LogClothingBought(msg.sender, clothId);\n    return sent;\n  }\n\n  /// @notice It validates the caller of the function (must be the seller) and that the cloth is Sold\n  /// @param clothId The cloth id for the mapping\n  /// @param trackingNumber The tracking number of the shipment service\n  function shipClothing (uint clothId, string memory trackingNumber) verifyCaller(clothing[clothId].seller) isSold(clothId) public {\n    Cloth storage c = clothing[clothId];\n    c.state = State.SHIPPED;\n    trackingNumbers[c.clothId] = trackingNumber;\n    emit LogClothShipped(c.seller, clothId, trackingNumber);\n  }\n\n  /// @notice It validates the caller (must be the buyer) and the cloth state (must be shipped)\n  /// @param clothId The cloth id for the mapping\n  function receiveClothing (uint clothId) verifyCaller(clothing[clothId].buyer) isShipped(clothId) public {\n    Cloth storage c = clothing[clothId];\n    c.state = State.RECEIVED;\n    emit LogClothReceived(c.buyer, clothId);\n  }\n\n  /// @param clothId The cloth id for the mapping\n  /// @return name Cloth name\n  /// @return brand Cloth brand\n  /// @return description Condition of the clothing\n  /// @return recommendedAge Recommended age for the clothing\n  /// @return initialPrice The initial listed price of the clothing\n  /// @return size The cloth size\n  /// @return seller The address of the seller that listed this cloth\n  /// @return buyer The address of the buyer of this cloth\n  /// @return state The status of the order\n  /// @return agreedPrice The accepted offer by the seller\n  /// @return tempPriceAddresses The addresses that made an offer to the clothes\n  function getClothingById (uint clothId) public view returns (\n    string memory name,\n    string memory brand,\n    string memory description,\n    string memory recommendedAge,\n    uint initialPrice,\n    Sizes size,\n    address seller,\n    address buyer,\n    State state,\n    uint agreedPrice,\n    address[] memory tempPriceAddresses\n  ) {\n    name = clothing[clothId].name;\n    brand = clothing[clothId].brand;\n    description = clothing[clothId].description;\n    recommendedAge = clothing[clothId].recommendedAge;\n    initialPrice = clothing[clothId].initialPrice;\n    size = clothing[clothId].size;\n    seller = clothing[clothId].seller;\n    buyer = clothing[clothId].buyer;\n    state = clothing[clothId].state;\n    agreedPrice = clothing[clothId].agreedPrice;\n    tempPriceAddresses = clothing[clothId].tempPriceAddresses;\n  }\n\n  /// @param clothId The cloth id for the mapping\n  /// @param buyer The address of the buyer\n  /// @return suggestedPrice The offer made by the buyer\n  function getClothingTempPrice (uint clothId, address buyer) public view returns (uint suggestedPrice) {\n    suggestedPrice = clothing[clothId].tempPrice[buyer];\n  }\n\n  /// @param clothId The cloth id for the mapping\n  /// @return trackingNumber The trackin number for this order (if any)\n  function getTrackingNumber (uint clothId) public view returns (string memory) {\n    return trackingNumbers[clothId];\n  }\n\n  /// @dev A mock function that emulates the behavior of the chainlink data feed to get the usd price of eth\n  /// @return _roundID Data feed roundid\n  /// @return _price The usd price of eth\n  /// @return _startedAt Data feed started at\n  /// @return _timeStamp Data feed timestamp\n  /// @return _answeredInRound Data feed answeredInRound\n  function mockGetLatestPrice () public pure returns (uint80 _roundID, int _price, uint _startedAt, uint _timeStamp, uint80 _answeredInRound) {\n    _roundID = 36893488147419118515;\n    _price = 458505915949;\n    _startedAt = 1638293561;\n    _timeStamp = 1638293561;\n    _answeredInRound = 36893488147419118515;\n    return (_roundID, _price, _startedAt, _timeStamp, _answeredInRound);\n  }\n\n  /// @dev Chainlink data price call on Rinkeby tesnet\n  /// @return _roundID Data feed roundid\n  /// @return _price The usd price of eth\n  /// @return _startedAt Data feed started at\n  /// @return _timeStamp Data feed timestamp\n  /// @return _answeredInRound Data feed answeredInRound\n  function getLatestPrice() public view returns (uint80 _roundID, int _price, uint _startedAt, uint _timeStamp, uint80 _answeredInRound) {\n    (\n      uint80 roundID, \n      int price,\n      uint startedAt,\n      uint timeStamp,\n      uint80 answeredInRound\n    ) = priceFeed.latestRoundData();\n    _roundID = roundID;\n    _price = price;\n    _startedAt = startedAt;\n    _timeStamp = timeStamp;\n    _answeredInRound = answeredInRound;\n    return (_roundID, _price, _startedAt, _timeStamp, _answeredInRound);\n  }\n}\n",
  "sourcePath": "/home/dmartinez/projects/personal/blockchain-bootcamp/test-deploy/blockchain-developer-bootcamp-final-project/contracts/ClothingExchange.sol",
  "compiler": {
    "name": "solc",
    "version": "0.8.10+commit.fc410830.Emscripten.clang"
  },
  "schemaVersion": "3.4.3",
  "updatedAt": "2021-12-01T05:15:38.644Z",
  "devdoc": {
    "author": "Daniel Martinez",
    "custom:experimental": "This is an experimental contract.",
    "events": {
      "LogAddedBargain(address,uint256,uint256)": {
        "params": {
          "clothId": "The cloth id",
          "newPrice": "The offered price"
        }
      },
      "LogClothReceived(address,uint256)": {
        "params": {
          "buyer": "The address of the buyer",
          "clothId": "The cloth id"
        }
      },
      "LogClothShipped(address,uint256,string)": {
        "params": {
          "clothId": "The cloth id",
          "seller": "The address of the seller",
          "trackingNumber": "The tracking number of the shipment service"
        }
      },
      "LogClothingBought(address,uint256)": {
        "params": {
          "buyer": "The address of the buyer",
          "clothId": "The cloth id"
        }
      },
      "LogConfirmedNewPrice(address,uint256,uint256)": {
        "params": {
          "buyer": "The address of the buyer",
          "clothId": "The cloth id",
          "confirmedPrice": "The confirmedPrice"
        }
      },
      "LogListClothingForSale(address,uint256)": {
        "params": {
          "clothCounter": "The counter of the clothes added",
          "seller": "The address of the seller"
        }
      },
      "LogOwnerCall(address)": {
        "params": {
          "owner": "The address of the owner"
        }
      }
    },
    "kind": "dev",
    "methods": {
      "bargainClothingPrice(uint256)": {
        "params": {
          "clothId": "The cloth id for the mapping"
        },
        "returns": {
          "_0": "True if no errors were thrown"
        }
      },
      "buyClothingOnSell(uint256)": {
        "params": {
          "clothId": "The cloth id for the mapping"
        },
        "returns": {
          "_0": "True if no errors were thrown"
        }
      },
      "confirmNewClothingPrice(uint256,address)": {
        "params": {
          "clothId": "The cloth id for the mapping",
          "potentialBuyer": "The address of the potential buyer"
        },
        "returns": {
          "_0": "True if no errors were thrown"
        }
      },
      "constructor": {
        "details": "Open zeppelin setup role for the contract owner, initialization of the chainlink data feed agregator"
      },
      "getClothingById(uint256)": {
        "params": {
          "clothId": "The cloth id for the mapping"
        },
        "returns": {
          "agreedPrice": "The accepted offer by the seller",
          "brand": "Cloth brand",
          "buyer": "The address of the buyer of this cloth",
          "description": "Condition of the clothing",
          "initialPrice": "The initial listed price of the clothing",
          "name": "Cloth name",
          "recommendedAge": "Recommended age for the clothing",
          "seller": "The address of the seller that listed this cloth",
          "size": "The cloth size",
          "state": "The status of the order",
          "tempPriceAddresses": "The addresses that made an offer to the clothes"
        }
      },
      "getClothingTempPrice(uint256,address)": {
        "params": {
          "buyer": "The address of the buyer",
          "clothId": "The cloth id for the mapping"
        },
        "returns": {
          "suggestedPrice": "The offer made by the buyer"
        }
      },
      "getLatestPrice()": {
        "details": "Chainlink data price call on Rinkeby tesnet",
        "returns": {
          "_answeredInRound": "Data feed answeredInRound",
          "_price": "The usd price of eth",
          "_roundID": "Data feed roundid",
          "_startedAt": "Data feed started at",
          "_timeStamp": "Data feed timestamp"
        }
      },
      "getRoleAdmin(bytes32)": {
        "details": "Returns the admin role that controls `role`. See {grantRole} and {revokeRole}. To change a role's admin, use {_setRoleAdmin}."
      },
      "getTrackingNumber(uint256)": {
        "params": {
          "clothId": "The cloth id for the mapping"
        },
        "returns": {
          "_0": "trackingNumber The trackin number for this order (if any)"
        }
      },
      "grantRole(bytes32,address)": {
        "details": "Grants `role` to `account`. If `account` had not been already granted `role`, emits a {RoleGranted} event. Requirements: - the caller must have ``role``'s admin role."
      },
      "hasRole(bytes32,address)": {
        "details": "Returns `true` if `account` has been granted `role`."
      },
      "listClothingOnSell(string,uint256,string,string,string,uint8)": {
        "params": {
          "_brand": "The cloth's brand",
          "_description": "A little description of the condition of the clothing",
          "_initialPrice": "The initial price of the cloth",
          "_name": "Title of the kid's cloth to sell",
          "_recommendedAge": "The recommended age for this piece of clothing",
          "_size": "The size of the cloth"
        },
        "returns": {
          "_0": "The cloth counter"
        }
      },
      "mockGetLatestPrice()": {
        "details": "A mock function that emulates the behavior of the chainlink data feed to get the usd price of eth",
        "returns": {
          "_answeredInRound": "Data feed answeredInRound",
          "_price": "The usd price of eth",
          "_roundID": "Data feed roundid",
          "_startedAt": "Data feed started at",
          "_timeStamp": "Data feed timestamp"
        }
      },
      "receiveClothing(uint256)": {
        "params": {
          "clothId": "The cloth id for the mapping"
        }
      },
      "renounceRole(bytes32,address)": {
        "details": "Revokes `role` from the calling account. Roles are often managed via {grantRole} and {revokeRole}: this function's purpose is to provide a mechanism for accounts to lose their privileges if they are compromised (such as when a trusted device is misplaced). If the calling account had been revoked `role`, emits a {RoleRevoked} event. Requirements: - the caller must be `account`."
      },
      "revokeRole(bytes32,address)": {
        "details": "Revokes `role` from `account`. If `account` had been granted `role`, emits a {RoleRevoked} event. Requirements: - the caller must have ``role``'s admin role."
      },
      "shipClothing(uint256,string)": {
        "params": {
          "clothId": "The cloth id for the mapping",
          "trackingNumber": "The tracking number of the shipment service"
        }
      },
      "supportsInterface(bytes4)": {
        "details": "See {IERC165-supportsInterface}."
      }
    },
    "stateVariables": {
      "ADMIN_ROLE": {
        "details": "Open zeppelin role definition"
      },
      "BARGAIN_ADDRESS_LIMIT": {
        "details": "Limit the number of buyers that can bargain a garment"
      },
      "clothing": {
        "details": "Clothing mapping that handles all the clothes"
      },
      "clothingCounter": {
        "details": "The number of added clothes to the mapping"
      },
      "trackingNumbers": {
        "details": "A tracking numbers mapping to associate a tracking number to a cloth"
      }
    },
    "title": "Kid's clothing exchange",
    "version": 1
  },
  "userdoc": {
    "events": {
      "LogAddedBargain(address,uint256,uint256)": {
        "notice": "LogEvent that triggers when a new offer was made for a piece of clothing"
      },
      "LogClothReceived(address,uint256)": {
        "notice": "LogEvent that triggers when a cloth has been received"
      },
      "LogClothShipped(address,uint256,string)": {
        "notice": "LogEvent that triggers when a cloth has been shipped"
      },
      "LogClothingBought(address,uint256)": {
        "notice": "LogEvent that triggers when a cloth has been bought"
      },
      "LogConfirmedNewPrice(address,uint256,uint256)": {
        "notice": "LogEvent that triggers an offer has been confirmed"
      },
      "LogListClothingForSale(address,uint256)": {
        "notice": "LogEvent that triggers when a clothing was listed for sale"
      },
      "LogOwnerCall(address)": {
        "notice": "LogEvent that triggers when the owner calls a function"
      }
    },
    "kind": "user",
    "methods": {
      "bargainClothingPrice(uint256)": {
        "notice": "It validates a LISTED state, price > 0 and that the address can make an offer (the address is not seller)"
      },
      "buyClothingOnSell(uint256)": {
        "notice": "It validates the payed amount is valid, the item is LISTED and if the amount payed is more than the price, a refund process is executed"
      },
      "confirmNewClothingPrice(uint256,address)": {
        "notice": "It validates the caller of the function is the seller, price > 0 and the state is LISTED"
      },
      "listClothingOnSell(string,uint256,string,string,string,uint8)": {
        "notice": "It validates that the initial price is greater than zero"
      },
      "receiveClothing(uint256)": {
        "notice": "It validates the caller (must be the buyer) and the cloth state (must be shipped)"
      },
      "shipClothing(uint256,string)": {
        "notice": "It validates the caller of the function (must be the seller) and that the cloth is Sold"
      }
    },
    "notice": "This contract is a proof of concept",
    "version": 1
  }
}