{
  "contractName": "ClothingExchange",
  "abi": [
    {
      "inputs": [],
      "stateMutability": "nonpayable",
      "type": "constructor"
    },
    {
      "anonymous": false,
      "inputs": [
        {
          "indexed": false,
          "internalType": "address",
          "name": "buyer",
          "type": "address"
        },
        {
          "indexed": true,
          "internalType": "uint256",
          "name": "clothId",
          "type": "uint256"
        },
        {
          "indexed": false,
          "internalType": "uint256",
          "name": "newPrice",
          "type": "uint256"
        }
      ],
      "name": "LogAddedBargain",
      "type": "event"
    },
    {
      "anonymous": false,
      "inputs": [
        {
          "indexed": false,
          "internalType": "address",
          "name": "buyer",
          "type": "address"
        },
        {
          "indexed": true,
          "internalType": "uint256",
          "name": "clothId",
          "type": "uint256"
        }
      ],
      "name": "LogClothReceived",
      "type": "event"
    },
    {
      "anonymous": false,
      "inputs": [
        {
          "indexed": false,
          "internalType": "address",
          "name": "seller",
          "type": "address"
        },
        {
          "indexed": true,
          "internalType": "uint256",
          "name": "clothId",
          "type": "uint256"
        }
      ],
      "name": "LogClothShipped",
      "type": "event"
    },
    {
      "anonymous": false,
      "inputs": [
        {
          "indexed": false,
          "internalType": "address",
          "name": "buyer",
          "type": "address"
        },
        {
          "indexed": true,
          "internalType": "uint256",
          "name": "clothId",
          "type": "uint256"
        }
      ],
      "name": "LogClothingBought",
      "type": "event"
    },
    {
      "anonymous": false,
      "inputs": [
        {
          "indexed": false,
          "internalType": "address",
          "name": "buyer",
          "type": "address"
        },
        {
          "indexed": true,
          "internalType": "uint256",
          "name": "clothId",
          "type": "uint256"
        },
        {
          "indexed": false,
          "internalType": "uint256",
          "name": "confirmedPrice",
          "type": "uint256"
        }
      ],
      "name": "LogConfirmedNewPrice",
      "type": "event"
    },
    {
      "anonymous": false,
      "inputs": [
        {
          "indexed": false,
          "internalType": "address",
          "name": "seller",
          "type": "address"
        },
        {
          "indexed": true,
          "internalType": "uint256",
          "name": "clothId",
          "type": "uint256"
        }
      ],
      "name": "LogListClothingForSale",
      "type": "event"
    },
    {
      "anonymous": false,
      "inputs": [
        {
          "indexed": false,
          "internalType": "address",
          "name": "owner",
          "type": "address"
        }
      ],
      "name": "LogOwnerCall",
      "type": "event"
    },
    {
      "anonymous": false,
      "inputs": [
        {
          "indexed": true,
          "internalType": "bytes32",
          "name": "role",
          "type": "bytes32"
        },
        {
          "indexed": true,
          "internalType": "bytes32",
          "name": "previousAdminRole",
          "type": "bytes32"
        },
        {
          "indexed": true,
          "internalType": "bytes32",
          "name": "newAdminRole",
          "type": "bytes32"
        }
      ],
      "name": "RoleAdminChanged",
      "type": "event"
    },
    {
      "anonymous": false,
      "inputs": [
        {
          "indexed": true,
          "internalType": "bytes32",
          "name": "role",
          "type": "bytes32"
        },
        {
          "indexed": true,
          "internalType": "address",
          "name": "account",
          "type": "address"
        },
        {
          "indexed": true,
          "internalType": "address",
          "name": "sender",
          "type": "address"
        }
      ],
      "name": "RoleGranted",
      "type": "event"
    },
    {
      "anonymous": false,
      "inputs": [
        {
          "indexed": true,
          "internalType": "bytes32",
          "name": "role",
          "type": "bytes32"
        },
        {
          "indexed": true,
          "internalType": "address",
          "name": "account",
          "type": "address"
        },
        {
          "indexed": true,
          "internalType": "address",
          "name": "sender",
          "type": "address"
        }
      ],
      "name": "RoleRevoked",
      "type": "event"
    },
    {
      "inputs": [],
      "name": "ADMIN_ROLE",
      "outputs": [
        {
          "internalType": "bytes32",
          "name": "",
          "type": "bytes32"
        }
      ],
      "stateMutability": "view",
      "type": "function"
    },
    {
      "inputs": [],
      "name": "BARGAIN_ADDRESS_LIMIT",
      "outputs": [
        {
          "internalType": "uint256",
          "name": "",
          "type": "uint256"
        }
      ],
      "stateMutability": "view",
      "type": "function"
    },
    {
      "inputs": [],
      "name": "DEFAULT_ADMIN_ROLE",
      "outputs": [
        {
          "internalType": "bytes32",
          "name": "",
          "type": "bytes32"
        }
      ],
      "stateMutability": "view",
      "type": "function"
    },
    {
      "inputs": [
        {
          "internalType": "uint256",
          "name": "",
          "type": "uint256"
        }
      ],
      "name": "clothing",
      "outputs": [
        {
          "internalType": "uint256",
          "name": "clothId",
          "type": "uint256"
        },
        {
          "internalType": "string",
          "name": "name",
          "type": "string"
        },
        {
          "internalType": "uint256",
          "name": "initialPrice",
          "type": "uint256"
        },
        {
          "internalType": "string",
          "name": "description",
          "type": "string"
        },
        {
          "internalType": "string",
          "name": "brand",
          "type": "string"
        },
        {
          "internalType": "enum ClothingExchange.Sizes",
          "name": "size",
          "type": "uint8"
        },
        {
          "internalType": "string",
          "name": "recommendedAge",
          "type": "string"
        },
        {
          "internalType": "enum ClothingExchange.State",
          "name": "state",
          "type": "uint8"
        },
        {
          "internalType": "address payable",
          "name": "seller",
          "type": "address"
        },
        {
          "internalType": "address payable",
          "name": "buyer",
          "type": "address"
        },
        {
          "internalType": "uint256",
          "name": "tempPriceCounter",
          "type": "uint256"
        },
        {
          "internalType": "uint256",
          "name": "agreedPrice",
          "type": "uint256"
        }
      ],
      "stateMutability": "view",
      "type": "function"
    },
    {
      "inputs": [],
      "name": "clothingCounter",
      "outputs": [
        {
          "internalType": "uint256",
          "name": "",
          "type": "uint256"
        }
      ],
      "stateMutability": "view",
      "type": "function"
    },
    {
      "inputs": [
        {
          "internalType": "bytes32",
          "name": "role",
          "type": "bytes32"
        }
      ],
      "name": "getRoleAdmin",
      "outputs": [
        {
          "internalType": "bytes32",
          "name": "",
          "type": "bytes32"
        }
      ],
      "stateMutability": "view",
      "type": "function"
    },
    {
      "inputs": [
        {
          "internalType": "bytes32",
          "name": "role",
          "type": "bytes32"
        },
        {
          "internalType": "address",
          "name": "account",
          "type": "address"
        }
      ],
      "name": "grantRole",
      "outputs": [],
      "stateMutability": "nonpayable",
      "type": "function"
    },
    {
      "inputs": [
        {
          "internalType": "bytes32",
          "name": "role",
          "type": "bytes32"
        },
        {
          "internalType": "address",
          "name": "account",
          "type": "address"
        }
      ],
      "name": "hasRole",
      "outputs": [
        {
          "internalType": "bool",
          "name": "",
          "type": "bool"
        }
      ],
      "stateMutability": "view",
      "type": "function"
    },
    {
      "inputs": [
        {
          "internalType": "bytes32",
          "name": "role",
          "type": "bytes32"
        },
        {
          "internalType": "address",
          "name": "account",
          "type": "address"
        }
      ],
      "name": "renounceRole",
      "outputs": [],
      "stateMutability": "nonpayable",
      "type": "function"
    },
    {
      "inputs": [
        {
          "internalType": "bytes32",
          "name": "role",
          "type": "bytes32"
        },
        {
          "internalType": "address",
          "name": "account",
          "type": "address"
        }
      ],
      "name": "revokeRole",
      "outputs": [],
      "stateMutability": "nonpayable",
      "type": "function"
    },
    {
      "inputs": [
        {
          "internalType": "bytes4",
          "name": "interfaceId",
          "type": "bytes4"
        }
      ],
      "name": "supportsInterface",
      "outputs": [
        {
          "internalType": "bool",
          "name": "",
          "type": "bool"
        }
      ],
      "stateMutability": "view",
      "type": "function"
    },
    {
      "inputs": [
        {
          "internalType": "string",
          "name": "_name",
          "type": "string"
        },
        {
          "internalType": "uint256",
          "name": "_initialPrice",
          "type": "uint256"
        },
        {
          "internalType": "string",
          "name": "_description",
          "type": "string"
        },
        {
          "internalType": "string",
          "name": "_brand",
          "type": "string"
        },
        {
          "internalType": "string",
          "name": "_recommendedAge",
          "type": "string"
        },
        {
          "internalType": "enum ClothingExchange.Sizes",
          "name": "_size",
          "type": "uint8"
        }
      ],
      "name": "listClothingOnSell",
      "outputs": [
        {
          "internalType": "uint256",
          "name": "",
          "type": "uint256"
        }
      ],
      "stateMutability": "nonpayable",
      "type": "function"
    },
    {
      "inputs": [
        {
          "internalType": "uint256",
          "name": "clothId",
          "type": "uint256"
        }
      ],
      "name": "bargainClothingPrice",
      "outputs": [
        {
          "internalType": "bool",
          "name": "",
          "type": "bool"
        }
      ],
      "stateMutability": "payable",
      "type": "function"
    },
    {
      "inputs": [
        {
          "internalType": "uint256",
          "name": "clothId",
          "type": "uint256"
        },
        {
          "internalType": "address payable",
          "name": "potentialBuyer",
          "type": "address"
        }
      ],
      "name": "confirmNewClothingPrice",
      "outputs": [
        {
          "internalType": "bool",
          "name": "",
          "type": "bool"
        }
      ],
      "stateMutability": "payable",
      "type": "function"
    },
    {
      "inputs": [
        {
          "internalType": "uint256",
          "name": "clothId",
          "type": "uint256"
        }
      ],
      "name": "buyClothingOnSell",
      "outputs": [
        {
          "internalType": "bool",
          "name": "",
          "type": "bool"
        }
      ],
      "stateMutability": "payable",
      "type": "function"
    },
    {
      "inputs": [
        {
          "internalType": "uint256",
          "name": "clothId",
          "type": "uint256"
        }
      ],
      "name": "shipClothing",
      "outputs": [],
      "stateMutability": "nonpayable",
      "type": "function"
    },
    {
      "inputs": [
        {
          "internalType": "uint256",
          "name": "clothId",
          "type": "uint256"
        }
      ],
      "name": "receiveClothing",
      "outputs": [],
      "stateMutability": "nonpayable",
      "type": "function"
    },
    {
      "inputs": [
        {
          "internalType": "uint256",
          "name": "clothId",
          "type": "uint256"
        }
      ],
      "name": "getClothingById",
      "outputs": [
        {
          "internalType": "string",
          "name": "name",
          "type": "string"
        },
        {
          "internalType": "string",
          "name": "brand",
          "type": "string"
        },
        {
          "internalType": "string",
          "name": "description",
          "type": "string"
        },
        {
          "internalType": "string",
          "name": "recommendedAge",
          "type": "string"
        },
        {
          "internalType": "uint256",
          "name": "initialPrice",
          "type": "uint256"
        },
        {
          "internalType": "enum ClothingExchange.Sizes",
          "name": "size",
          "type": "uint8"
        },
        {
          "internalType": "address",
          "name": "seller",
          "type": "address"
        },
        {
          "internalType": "address",
          "name": "buyer",
          "type": "address"
        },
        {
          "internalType": "enum ClothingExchange.State",
          "name": "state",
          "type": "uint8"
        },
        {
          "internalType": "uint256",
          "name": "agreedPrice",
          "type": "uint256"
        },
        {
          "internalType": "address[]",
          "name": "tempPriceAddresses",
          "type": "address[]"
        }
      ],
      "stateMutability": "view",
      "type": "function"
    },
    {
      "inputs": [
        {
          "internalType": "uint256",
          "name": "clothId",
          "type": "uint256"
        },
        {
          "internalType": "address",
          "name": "buyer",
          "type": "address"
        }
      ],
      "name": "getClothingTempPrice",
      "outputs": [
        {
          "internalType": "uint256",
          "name": "suggestedPrice",
          "type": "uint256"
        }
      ],
      "stateMutability": "view",
      "type": "function"
    },
    {
      "inputs": [],
      "name": "getLatestPrice",
      "outputs": [
        {
          "internalType": "int256",
          "name": "",
          "type": "int256"
        }
      ],
      "stateMutability": "view",
      "type": "function"
    }
  ],
  "bytecode": "0x60806040523480156200001157600080fd5b50620000447fa49807205ce4d355092ef5a8a18f56e8913cf4a201fbe287825b095693c21775336200009f60201b60201c565b739326bfa02add2366b30bacb125260af641031331600160006101000a81548173ffffffffffffffffffffffffffffffffffffffff021916908373ffffffffffffffffffffffffffffffffffffffff16021790555062000218565b620000b18282620000b560201b60201c565b5050565b620000c78282620001a660201b60201c565b620001a257600160008084815260200190815260200160002060000160008373ffffffffffffffffffffffffffffffffffffffff1673ffffffffffffffffffffffffffffffffffffffff16815260200190815260200160002060006101000a81548160ff021916908315150217905550620001476200021060201b60201c565b73ffffffffffffffffffffffffffffffffffffffff168173ffffffffffffffffffffffffffffffffffffffff16837f2f8788117e7eff1d82e926ec794901d17c78024a50270940304540a733656f0d60405160405180910390a45b5050565b600080600084815260200190815260200160002060000160008373ffffffffffffffffffffffffffffffffffffffff1673ffffffffffffffffffffffffffffffffffffffff16815260200190815260200160002060009054906101000a900460ff16905092915050565b600033905090565b61342380620002286000396000f3fe60806040526004361061011f5760003560e01c806375b238fc116100a0578063a217fddf11610064578063a217fddf1461042c578063b97ed92014610457578063d547741f14610494578063f2f08a22146104bd578063f53d7dd1146104e85761011f565b806375b238fc1461033e5780637aef088d146103695780638e15f4731461039457806391d14854146103bf5780639716e068146103fc5761011f565b80632a5e1d7e116100e75780632a5e1d7e1461022d5780632f2ff15d1461027557806336568abe1461029e57806338bd8ae0146102c75780636f5c94b01461030e5761011f565b806301ffc9a7146101245780631ff5713e14610161578063201757561461018a578063248a9ca3146101b3578063265449bb146101f0575b600080fd5b34801561013057600080fd5b5061014b60048036038101906101469190612433565b610518565b604051610158919061247b565b60405180910390f35b34801561016d57600080fd5b50610188600480360381019061018391906124cc565b610592565b005b34801561019657600080fd5b506101b160048036038101906101ac91906124cc565b6106fc565b005b3480156101bf57600080fd5b506101da60048036038101906101d5919061252f565b610866565b6040516101e7919061256b565b60405180910390f35b3480156101fc57600080fd5b50610217600480360381019061021291906125e4565b610885565b6040516102249190612633565b60405180910390f35b34801561023957600080fd5b50610254600480360381019061024f91906124cc565b6108e3565b60405161026c9c9b9a999897969594939291906127c7565b60405180910390f35b34801561028157600080fd5b5061029c6004803603810190610297919061289d565b610bbd565b005b3480156102aa57600080fd5b506102c560048036038101906102c0919061289d565b610be6565b005b3480156102d357600080fd5b506102ee60048036038101906102e991906124cc565b610c69565b6040516103059b9a999897969594939291906129aa565b60405180910390f35b610328600480360381019061032391906124cc565b61109a565b604051610335919061247b565b60405180910390f35b34801561034a57600080fd5b506103536112a0565b604051610360919061256b565b60405180910390f35b34801561037557600080fd5b5061037e6112c4565b60405161038b9190612633565b60405180910390f35b3480156103a057600080fd5b506103a96112ca565b6040516103b69190612a91565b60405180910390f35b3480156103cb57600080fd5b506103e660048036038101906103e1919061289d565b611379565b6040516103f3919061247b565b60405180910390f35b61041660048036038101906104119190612ad8565b6113e3565b604051610423919061247b565b60405180910390f35b34801561043857600080fd5b50610441611899565b60405161044e919061256b565b60405180910390f35b34801561046357600080fd5b5061047e60048036038101906104799190612c72565b6118a0565b60405161048b9190612633565b60405180910390f35b3480156104a057600080fd5b506104bb60048036038101906104b6919061289d565b611a73565b005b3480156104c957600080fd5b506104d2611a9c565b6040516104df9190612633565b60405180910390f35b61050260048036038101906104fd91906124cc565b611aa1565b60405161050f919061247b565b60405180910390f35b60007f7965db0b000000000000000000000000000000000000000000000000000000007bffffffffffffffffffffffffffffffffffffffffffffffffffffffff1916827bffffffffffffffffffffffffffffffffffffffffffffffffffffffff1916148061058b575061058a82611cd8565b5b9050919050565b6003600082815260200190815260200160002060080160009054906101000a900473ffffffffffffffffffffffffffffffffffffffff168073ffffffffffffffffffffffffffffffffffffffff163373ffffffffffffffffffffffffffffffffffffffff161461060157600080fd5b8160026003811115610616576106156126e7565b5b6003600083815260200190815260200160002060070160009054906101000a900460ff16600381111561064c5761064b6126e7565b5b1461065657600080fd5b600060036000858152602001908152602001600020905060038160070160006101000a81548160ff02191690836003811115610695576106946126e7565b5b0217905550837ff029cc62c2e487d7d873b093f0801c5c6908090fd67b3d552bd72f17edb979418260080160009054906101000a900473ffffffffffffffffffffffffffffffffffffffff166040516106ee9190612dce565b60405180910390a250505050565b6003600082815260200190815260200160002060070160019054906101000a900473ffffffffffffffffffffffffffffffffffffffff168073ffffffffffffffffffffffffffffffffffffffff163373ffffffffffffffffffffffffffffffffffffffff161461076b57600080fd5b81600160038111156107805761077f6126e7565b5b6003600083815260200190815260200160002060070160009054906101000a900460ff1660038111156107b6576107b56126e7565b5b146107c057600080fd5b600060036000858152602001908152602001600020905060028160070160006101000a81548160ff021916908360038111156107ff576107fe6126e7565b5b0217905550837f3222cb4554805c01c84958d24ca1cd3c62209de61fc8891ace8e0cc26b2b6dac8260070160019054906101000a900473ffffffffffffffffffffffffffffffffffffffff166040516108589190612dce565b60405180910390a250505050565b6000806000838152602001908152602001600020600101549050919050565b60006003600084815260200190815260200160002060090160008373ffffffffffffffffffffffffffffffffffffffff1673ffffffffffffffffffffffffffffffffffffffff16815260200190815260200160002054905092915050565b600360205280600052604060002060009150905080600001549080600101805461090c90612e18565b80601f016020809104026020016040519081016040528092919081815260200182805461093890612e18565b80156109855780601f1061095a57610100808354040283529160200191610985565b820191906000526020600020905b81548152906001019060200180831161096857829003601f168201915b5050505050908060020154908060030180546109a090612e18565b80601f01602080910402602001604051908101604052809291908181526020018280546109cc90612e18565b8015610a195780601f106109ee57610100808354040283529160200191610a19565b820191906000526020600020905b8154815290600101906020018083116109fc57829003601f168201915b505050505090806004018054610a2e90612e18565b80601f0160208091040260200160405190810160405280929190818152602001828054610a5a90612e18565b8015610aa75780601f10610a7c57610100808354040283529160200191610aa7565b820191906000526020600020905b815481529060010190602001808311610a8a57829003601f168201915b5050505050908060050160009054906101000a900460ff1690806006018054610acf90612e18565b80601f0160208091040260200160405190810160405280929190818152602001828054610afb90612e18565b8015610b485780601f10610b1d57610100808354040283529160200191610b48565b820191906000526020600020905b815481529060010190602001808311610b2b57829003601f168201915b5050505050908060070160009054906101000a900460ff16908060070160019054906101000a900473ffffffffffffffffffffffffffffffffffffffff16908060080160009054906101000a900473ffffffffffffffffffffffffffffffffffffffff169080600a01549080600b015490508c565b610bc682610866565b610bd781610bd2611d42565b611d4a565b610be18383611de7565b505050565b610bee611d42565b73ffffffffffffffffffffffffffffffffffffffff168173ffffffffffffffffffffffffffffffffffffffff1614610c5b576040517f08c379a0000000000000000000000000000000000000000000000000000000008152600401610c5290612ebc565b60405180910390fd5b610c658282611ec7565b5050565b6060806060806000806000806000806060600360008d81526020019081526020016000206001018054610c9b90612e18565b80601f0160208091040260200160405190810160405280929190818152602001828054610cc790612e18565b8015610d145780601f10610ce957610100808354040283529160200191610d14565b820191906000526020600020905b815481529060010190602001808311610cf757829003601f168201915b50505050509a50600360008d81526020019081526020016000206004018054610d3c90612e18565b80601f0160208091040260200160405190810160405280929190818152602001828054610d6890612e18565b8015610db55780601f10610d8a57610100808354040283529160200191610db5565b820191906000526020600020905b815481529060010190602001808311610d9857829003601f168201915b50505050509950600360008d81526020019081526020016000206003018054610ddd90612e18565b80601f0160208091040260200160405190810160405280929190818152602001828054610e0990612e18565b8015610e565780601f10610e2b57610100808354040283529160200191610e56565b820191906000526020600020905b815481529060010190602001808311610e3957829003601f168201915b50505050509850600360008d81526020019081526020016000206006018054610e7e90612e18565b80601f0160208091040260200160405190810160405280929190818152602001828054610eaa90612e18565b8015610ef75780601f10610ecc57610100808354040283529160200191610ef7565b820191906000526020600020905b815481529060010190602001808311610eda57829003601f168201915b50505050509750600360008d8152602001908152602001600020600201549650600360008d815260200190815260200160002060050160009054906101000a900460ff169550600360008d815260200190815260200160002060070160019054906101000a900473ffffffffffffffffffffffffffffffffffffffff169450600360008d815260200190815260200160002060080160009054906101000a900473ffffffffffffffffffffffffffffffffffffffff169350600360008d815260200190815260200160002060070160009054906101000a900460ff169250600360008d8152602001908152602001600020600b01549150600360008d8152602001908152602001600020600c0180548060200260200160405190810160405280929190818152602001828054801561108457602002820191906000526020600020905b8160009054906101000a900473ffffffffffffffffffffffffffffffffffffffff1673ffffffffffffffffffffffffffffffffffffffff168152602001906001019080831161103a575b5050505050905091939597999b90929496989a50565b6000816000600360008381526020019081526020016000206000015411801561110a5750600060038111156110d2576110d16126e7565b5b6003600083815260200190815260200160002060070160009054906101000a900460ff166003811115611108576111076126e7565b5b145b61111357600080fd5b60036000848152602001908152602001600020600201548034101561113757600080fd5b6000600360008681526020019081526020016000209050338160080160006101000a81548173ffffffffffffffffffffffffffffffffffffffff021916908373ffffffffffffffffffffffffffffffffffffffff16021790555060018160070160006101000a81548160ff021916908360038111156111b9576111b86126e7565b5b021790555060008160070160019054906101000a900473ffffffffffffffffffffffffffffffffffffffff1673ffffffffffffffffffffffffffffffffffffffff16826002015460405161120c90612f0d565b60006040518083038185875af1925050503d8060008114611249576040519150601f19603f3d011682016040523d82523d6000602084013e61124e565b606091505b505090508061125c57600080fd5b857f25a00cdd1befd37a459f2ea4bdcb9994c9cf8562fb15b97e519af8bc81320a883360405161128c9190612f22565b60405180910390a280945050505050919050565b7fa49807205ce4d355092ef5a8a18f56e8913cf4a201fbe287825b095693c2177581565b60025481565b600080600080600080600160009054906101000a900473ffffffffffffffffffffffffffffffffffffffff1673ffffffffffffffffffffffffffffffffffffffff1663feaf968c6040518163ffffffff1660e01b815260040160a060405180830381865afa158015611340573d6000803e3d6000fd5b505050506040513d601f19601f820116820180604052508101906113649190612fc0565b94509450945094509450839550505050505090565b600080600084815260200190815260200160002060000160008373ffffffffffffffffffffffffffffffffffffffff1673ffffffffffffffffffffffffffffffffffffffff16815260200190815260200160002060009054906101000a900460ff16905092915050565b60006003600084815260200190815260200160002060070160019054906101000a900473ffffffffffffffffffffffffffffffffffffffff168073ffffffffffffffffffffffffffffffffffffffff163373ffffffffffffffffffffffffffffffffffffffff161461145457600080fd5b6003600085815260200190815260200160002060090160008473ffffffffffffffffffffffffffffffffffffffff1673ffffffffffffffffffffffffffffffffffffffff16815260200190815260200160002054600081116114eb576040517f08c379a00000000000000000000000000000000000000000000000000000000081526004016114e290613087565b60405180910390fd5b8460006003600083815260200190815260200160002060000154118015611559575060006003811115611521576115206126e7565b5b6003600083815260200190815260200160002060070160009054906101000a900460ff166003811115611557576115566126e7565b5b145b61156257600080fd5b60006003600088815260200190815260200160002090508060090160008773ffffffffffffffffffffffffffffffffffffffff1673ffffffffffffffffffffffffffffffffffffffff1681526020019081526020016000205481600b0181905550858160080160006101000a81548173ffffffffffffffffffffffffffffffffffffffff021916908373ffffffffffffffffffffffffffffffffffffffff16021790555060018160070160006101000a81548160ff0219169083600381111561162e5761162d6126e7565b5b021790555060008160070160019054906101000a900473ffffffffffffffffffffffffffffffffffffffff1673ffffffffffffffffffffffffffffffffffffffff1682600b015460405161168190612f0d565b60006040518083038185875af1925050503d80600081146116be576040519150601f19603f3d011682016040523d82523d6000602084013e6116c3565b606091505b50509050806116d157600080fd5b60005b82600c018054905081101561182857600083600c0182815481106116fb576116fa6130a7565b5b9060005260206000200160009054906101000a900473ffffffffffffffffffffffffffffffffffffffff1690508873ffffffffffffffffffffffffffffffffffffffff168173ffffffffffffffffffffffffffffffffffffffff16146118145760008173ffffffffffffffffffffffffffffffffffffffff168560090160008473ffffffffffffffffffffffffffffffffffffffff1673ffffffffffffffffffffffffffffffffffffffff168152602001908152602001600020546040516117c290612f0d565b60006040518083038185875af1925050503d80600081146117ff576040519150601f19603f3d011682016040523d82523d6000602084013e611804565b606091505b505090508061181257600080fd5b505b50808061182090613105565b9150506116d4565b50877f28d7dc338fbcdc1b2259a6b057ec4e405005fe2b3dc1afc4111c3481bc09898d8360080160009054906101000a900473ffffffffffffffffffffffffffffffffffffffff1684600b015460405161188392919061314e565b60405180910390a2809550505050505092915050565b6000801b81565b600085600081116118e6576040517f08c379a00000000000000000000000000000000000000000000000000000000081526004016118dd90613087565b60405180910390fd5b60016002546118f59190613177565b60028190555060006003600060025481526020019081526020016000209050600254816000018190555088816001019080519060200190611937929190612324565b5087816002018190555086816003019080519060200190611959929190612324565b5085816004019080519060200190611972929190612324565b50838160050160006101000a81548160ff0219169083600381111561199a576119996126e7565b5b0217905550848160060190805190602001906119b7929190612324565b50338160070160016101000a81548173ffffffffffffffffffffffffffffffffffffffff021916908373ffffffffffffffffffffffffffffffffffffffff16021790555060008160070160006101000a81548160ff02191690836003811115611a2357611a226126e7565b5b02179055506002547fa6574571418e0054a458dc54b5f95baa2679290b3db6bbcb023fba3980726cc333604051611a5a9190612f22565b60405180910390a2600254925050509695505050505050565b611a7c82610866565b611a8d81611a88611d42565b611d4a565b611a978383611ec7565b505050565b600581565b60008160006003600083815260200190815260200160002060000154118015611b11575060006003811115611ad957611ad86126e7565b5b6003600083815260200190815260200160002060070160009054906101000a900460ff166003811115611b0f57611b0e6126e7565b5b145b611b1a57600080fd5b3460008111611b5e576040517f08c379a0000000000000000000000000000000000000000000000000000000008152600401611b5590613087565b60405180910390fd5b60036000858152602001908152602001600020600c01805480602002602001604051908101604052809291908181526020018280548015611bf457602002820191906000526020600020905b8160009054906101000a900473ffffffffffffffffffffffffffffffffffffffff1673ffffffffffffffffffffffffffffffffffffffff1681526020019060010190808311611baa575b5050505050600581511115611c0857600080fd5b60003390506000600360008881526020019081526020016000209050348160090160008473ffffffffffffffffffffffffffffffffffffffff1673ffffffffffffffffffffffffffffffffffffffff16815260200190815260200160002081905550600181600a016000828254611c7f9190613177565b92505081905550611c908733611fa8565b867fde0477600eae6a9400d74ad2fa3259d55706c84a4e070d578eb31e5c6f6c958e8334604051611cc292919061314e565b60405180910390a2600195505050505050919050565b60007f01ffc9a7000000000000000000000000000000000000000000000000000000007bffffffffffffffffffffffffffffffffffffffffffffffffffffffff1916827bffffffffffffffffffffffffffffffffffffffffffffffffffffffff1916149050919050565b600033905090565b611d548282611379565b611de357611d798173ffffffffffffffffffffffffffffffffffffffff1660146120e8565b611d878360001c60206120e8565b604051602001611d989291906132a1565b6040516020818303038152906040526040517f08c379a0000000000000000000000000000000000000000000000000000000008152600401611dda91906132db565b60405180910390fd5b5050565b611df18282611379565b611ec357600160008084815260200190815260200160002060000160008373ffffffffffffffffffffffffffffffffffffffff1673ffffffffffffffffffffffffffffffffffffffff16815260200190815260200160002060006101000a81548160ff021916908315150217905550611e68611d42565b73ffffffffffffffffffffffffffffffffffffffff168173ffffffffffffffffffffffffffffffffffffffff16837f2f8788117e7eff1d82e926ec794901d17c78024a50270940304540a733656f0d60405160405180910390a45b5050565b611ed18282611379565b15611fa457600080600084815260200190815260200160002060000160008373ffffffffffffffffffffffffffffffffffffffff1673ffffffffffffffffffffffffffffffffffffffff16815260200190815260200160002060006101000a81548160ff021916908315150217905550611f49611d42565b73ffffffffffffffffffffffffffffffffffffffff168173ffffffffffffffffffffffffffffffffffffffff16837ff6391f5c32d9c69d2a47ea670b442974b53935d1edc7fd64eb21e047a839171b60405160405180910390a45b5050565b600080600360008581526020019081526020016000209050600581600c018054905010611fd457600080fd5b60005b81600c01805490508110156120765781600c018181548110611ffc57611ffb6130a7565b5b9060005260206000200160009054906101000a900473ffffffffffffffffffffffffffffffffffffffff1673ffffffffffffffffffffffffffffffffffffffff168473ffffffffffffffffffffffffffffffffffffffff1614156120635760019250612076565b808061206e90613105565b915050611fd7565b50816120e25780600c01839080600181540180825580915050600190039060005260206000200160009091909190916101000a81548173ffffffffffffffffffffffffffffffffffffffff021916908373ffffffffffffffffffffffffffffffffffffffff1602179055505b50505050565b6060600060028360026120fb91906132fd565b6121059190613177565b67ffffffffffffffff81111561211e5761211d612b22565b5b6040519080825280601f01601f1916602001820160405280156121505781602001600182028036833780820191505090505b5090507f300000000000000000000000000000000000000000000000000000000000000081600081518110612188576121876130a7565b5b60200101907effffffffffffffffffffffffffffffffffffffffffffffffffffffffffffff1916908160001a9053507f7800000000000000000000000000000000000000000000000000000000000000816001815181106121ec576121eb6130a7565b5b60200101907effffffffffffffffffffffffffffffffffffffffffffffffffffffffffffff1916908160001a9053506000600184600261222c91906132fd565b6122369190613177565b90505b60018111156122d6577f3031323334353637383961626364656600000000000000000000000000000000600f861660108110612278576122776130a7565b5b1a60f81b82828151811061228f5761228e6130a7565b5b60200101907effffffffffffffffffffffffffffffffffffffffffffffffffffffffffffff1916908160001a905350600485901c9450806122cf90613357565b9050612239565b506000841461231a576040517f08c379a0000000000000000000000000000000000000000000000000000000008152600401612311906133cd565b60405180910390fd5b8091505092915050565b82805461233090612e18565b90600052602060002090601f0160209004810192826123525760008555612399565b82601f1061236b57805160ff1916838001178555612399565b82800160010185558215612399579182015b8281111561239857825182559160200191906001019061237d565b5b5090506123a691906123aa565b5090565b5b808211156123c35760008160009055506001016123ab565b5090565b6000604051905090565b600080fd5b600080fd5b60007fffffffff0000000000000000000000000000000000000000000000000000000082169050919050565b612410816123db565b811461241b57600080fd5b50565b60008135905061242d81612407565b92915050565b600060208284031215612449576124486123d1565b5b60006124578482850161241e565b91505092915050565b60008115159050919050565b61247581612460565b82525050565b6000602082019050612490600083018461246c565b92915050565b6000819050919050565b6124a981612496565b81146124b457600080fd5b50565b6000813590506124c6816124a0565b92915050565b6000602082840312156124e2576124e16123d1565b5b60006124f0848285016124b7565b91505092915050565b6000819050919050565b61250c816124f9565b811461251757600080fd5b50565b60008135905061252981612503565b92915050565b600060208284031215612545576125446123d1565b5b60006125538482850161251a565b91505092915050565b612565816124f9565b82525050565b6000602082019050612580600083018461255c565b92915050565b600073ffffffffffffffffffffffffffffffffffffffff82169050919050565b60006125b182612586565b9050919050565b6125c1816125a6565b81146125cc57600080fd5b50565b6000813590506125de816125b8565b92915050565b600080604083850312156125fb576125fa6123d1565b5b6000612609858286016124b7565b925050602061261a858286016125cf565b9150509250929050565b61262d81612496565b82525050565b60006020820190506126486000830184612624565b92915050565b600081519050919050565b600082825260208201905092915050565b60005b8381101561268857808201518184015260208101905061266d565b83811115612697576000848401525b50505050565b6000601f19601f8301169050919050565b60006126b98261264e565b6126c38185612659565b93506126d381856020860161266a565b6126dc8161269d565b840191505092915050565b7f4e487b7100000000000000000000000000000000000000000000000000000000600052602160045260246000fd5b60048110612727576127266126e7565b5b50565b600081905061273882612716565b919050565b60006127488261272a565b9050919050565b6127588161273d565b82525050565b6004811061276f5761276e6126e7565b5b50565b60008190506127808261275e565b919050565b600061279082612772565b9050919050565b6127a081612785565b82525050565b60006127b182612586565b9050919050565b6127c1816127a6565b82525050565b6000610180820190506127dd600083018f612624565b81810360208301526127ef818e6126ae565b90506127fe604083018d612624565b8181036060830152612810818c6126ae565b90508181036080830152612824818b6126ae565b905061283360a083018a61274f565b81810360c083015261284581896126ae565b905061285460e0830188612797565b6128626101008301876127b8565b6128706101208301866127b8565b61287e610140830185612624565b61288c610160830184612624565b9d9c50505050505050505050505050565b600080604083850312156128b4576128b36123d1565b5b60006128c28582860161251a565b92505060206128d3858286016125cf565b9150509250929050565b6128e6816125a6565b82525050565b600081519050919050565b600082825260208201905092915050565b6000819050602082019050919050565b612921816125a6565b82525050565b60006129338383612918565b60208301905092915050565b6000602082019050919050565b6000612957826128ec565b61296181856128f7565b935061296c83612908565b8060005b8381101561299d5781516129848882612927565b975061298f8361293f565b925050600181019050612970565b5085935050505092915050565b60006101608201905081810360008301526129c5818e6126ae565b905081810360208301526129d9818d6126ae565b905081810360408301526129ed818c6126ae565b90508181036060830152612a01818b6126ae565b9050612a10608083018a612624565b612a1d60a083018961274f565b612a2a60c08301886128dd565b612a3760e08301876128dd565b612a45610100830186612797565b612a53610120830185612624565b818103610140830152612a66818461294c565b90509c9b505050505050505050505050565b6000819050919050565b612a8b81612a78565b82525050565b6000602082019050612aa66000830184612a82565b92915050565b612ab5816127a6565b8114612ac057600080fd5b50565b600081359050612ad281612aac565b92915050565b60008060408385031215612aef57612aee6123d1565b5b6000612afd858286016124b7565b9250506020612b0e85828601612ac3565b9150509250929050565b600080fd5b600080fd5b7f4e487b7100000000000000000000000000000000000000000000000000000000600052604160045260246000fd5b612b5a8261269d565b810181811067ffffffffffffffff82111715612b7957612b78612b22565b5b80604052505050565b6000612b8c6123c7565b9050612b988282612b51565b919050565b600067ffffffffffffffff821115612bb857612bb7612b22565b5b612bc18261269d565b9050602081019050919050565b82818337600083830152505050565b6000612bf0612beb84612b9d565b612b82565b905082815260208101848484011115612c0c57612c0b612b1d565b5b612c17848285612bce565b509392505050565b600082601f830112612c3457612c33612b18565b5b8135612c44848260208601612bdd565b91505092915050565b60048110612c5a57600080fd5b50565b600081359050612c6c81612c4d565b92915050565b60008060008060008060c08789031215612c8f57612c8e6123d1565b5b600087013567ffffffffffffffff811115612cad57612cac6123d6565b5b612cb989828a01612c1f565b9650506020612cca89828a016124b7565b955050604087013567ffffffffffffffff811115612ceb57612cea6123d6565b5b612cf789828a01612c1f565b945050606087013567ffffffffffffffff811115612d1857612d176123d6565b5b612d2489828a01612c1f565b935050608087013567ffffffffffffffff811115612d4557612d446123d6565b5b612d5189828a01612c1f565b92505060a0612d6289828a01612c5d565b9150509295509295509295565b6000819050919050565b6000612d94612d8f612d8a84612586565b612d6f565b612586565b9050919050565b6000612da682612d79565b9050919050565b6000612db882612d9b565b9050919050565b612dc881612dad565b82525050565b6000602082019050612de36000830184612dbf565b92915050565b7f4e487b7100000000000000000000000000000000000000000000000000000000600052602260045260246000fd5b60006002820490506001821680612e3057607f821691505b60208210811415612e4457612e43612de9565b5b50919050565b7f416363657373436f6e74726f6c3a2063616e206f6e6c792072656e6f756e636560008201527f20726f6c657320666f722073656c660000000000000000000000000000000000602082015250565b6000612ea6602f83612659565b9150612eb182612e4a565b604082019050919050565b60006020820190508181036000830152612ed581612e99565b9050919050565b600081905092915050565b50565b6000612ef7600083612edc565b9150612f0282612ee7565b600082019050919050565b6000612f1882612eea565b9150819050919050565b6000602082019050612f3760008301846128dd565b92915050565b600069ffffffffffffffffffff82169050919050565b612f5c81612f3d565b8114612f6757600080fd5b50565b600081519050612f7981612f53565b92915050565b612f8881612a78565b8114612f9357600080fd5b50565b600081519050612fa581612f7f565b92915050565b600081519050612fba816124a0565b92915050565b600080600080600060a08688031215612fdc57612fdb6123d1565b5b6000612fea88828901612f6a565b9550506020612ffb88828901612f96565b945050604061300c88828901612fab565b935050606061301d88828901612fab565b925050608061302e88828901612f6a565b9150509295509295909350565b7f5072696365206d7573742062652067726561746572207468616e203000000000600082015250565b6000613071601c83612659565b915061307c8261303b565b602082019050919050565b600060208201905081810360008301526130a081613064565b9050919050565b7f4e487b7100000000000000000000000000000000000000000000000000000000600052603260045260246000fd5b7f4e487b7100000000000000000000000000000000000000000000000000000000600052601160045260246000fd5b600061311082612496565b91507fffffffffffffffffffffffffffffffffffffffffffffffffffffffffffffffff821415613143576131426130d6565b5b600182019050919050565b60006040820190506131636000830185612dbf565b6131706020830184612624565b9392505050565b600061318282612496565b915061318d83612496565b9250827fffffffffffffffffffffffffffffffffffffffffffffffffffffffffffffffff038211156131c2576131c16130d6565b5b828201905092915050565b600081905092915050565b7f416363657373436f6e74726f6c3a206163636f756e7420000000000000000000600082015250565b600061320e6017836131cd565b9150613219826131d8565b601782019050919050565b600061322f8261264e565b61323981856131cd565b935061324981856020860161266a565b80840191505092915050565b7f206973206d697373696e6720726f6c6520000000000000000000000000000000600082015250565b600061328b6011836131cd565b915061329682613255565b601182019050919050565b60006132ac82613201565b91506132b88285613224565b91506132c38261327e565b91506132cf8284613224565b91508190509392505050565b600060208201905081810360008301526132f581846126ae565b905092915050565b600061330882612496565b915061331383612496565b9250817fffffffffffffffffffffffffffffffffffffffffffffffffffffffffffffffff048311821515161561334c5761334b6130d6565b5b828202905092915050565b600061336282612496565b91506000821415613376576133756130d6565b5b600182039050919050565b7f537472696e67733a20686578206c656e67746820696e73756666696369656e74600082015250565b60006133b7602083612659565b91506133c282613381565b602082019050919050565b600060208201905081810360008301526133e6816133aa565b905091905056fea264697066735822122052bb7b05475c92c755eb1d32137e23efee31c249bbba447a363fcff9e94bb1d564736f6c634300080a0033",
  "immutableReferences": {},
  "source": "// SPDX-License-Identifier: MIT\nimport \"@openzeppelin/contracts/access/AccessControl.sol\";\nimport \"@chainlink/contracts/src/v0.8/interfaces/AggregatorV3Interface.sol\";\n\npragma solidity >=0.4.22 <0.9.0;\n\ncontract ClothingExchange is AccessControl {\n\n  AggregatorV3Interface internal priceFeed;\n  bytes32 public constant ADMIN_ROLE = keccak256(\"ADMIN_ROLE\");\n\n  enum State {\n    LISTED,\n    SOLD,\n    SHIPPED,\n    RECEIVED\n  }\n\n  enum Sizes {\n    SMALL,\n    MEDIUM,\n    LARGE,\n    XLARGE\n  }\n\n  uint public clothingCounter;\n  uint public constant BARGAIN_ADDRESS_LIMIT = 5; // Limit the number of buyers that can bargain a garment\n\n  struct Cloth {\n    uint clothId;\n    string name;\n    uint initialPrice;\n    string description;\n    string brand;\n    Sizes size;\n    string recommendedAge;\n    State state;\n    address payable seller;\n    address payable buyer;\n    mapping (address => uint) tempPrice;\n    uint tempPriceCounter;\n    uint agreedPrice;\n    address[] tempPriceAddresses;\n  }\n\n  mapping (uint => Cloth) public clothing;\n\n  // Modifiers\n  modifier isOwner () {\n    require (hasRole(ADMIN_ROLE, msg.sender), \"Is not owner\");\n    _;\n  }\n\n  modifier validPrice (uint _price) {\n    require (_price > 0, \"Price must be greater than 0\");\n    _;\n  }\n\n  modifier isListed (uint clothId) {\n    require (\n      clothing[clothId].clothId > 0\n      &&\n      clothing[clothId].state == State.LISTED\n    );\n    _;\n  }\n\n  modifier canBargain (address[] memory tempPriceAddresses) {\n    require (tempPriceAddresses.length <= BARGAIN_ADDRESS_LIMIT);\n    _;\n  } \n  modifier isSold (uint clothId) {\n    require (clothing[clothId].state == State.SOLD);\n    _;\n  }\n  modifier isShipped (uint clothId) {\n    require (clothing[clothId].state == State.SHIPPED);\n    _;\n  }\n  modifier verifyCaller (address caller) {\n    require (msg.sender == caller);\n    _;\n  }\n  modifier paidEnough (uint price) {\n    require (msg.value >= price);\n    _;\n  }\n\n  // Events\n  event LogListClothingForSale (address seller, uint indexed clothId);\n  event LogAddedBargain (address buyer, uint indexed clothId, uint newPrice);\n  event LogConfirmedNewPrice (address buyer, uint indexed clothId, uint confirmedPrice);\n  event LogClothingBought (address buyer, uint indexed clothId);\n  event LogClothShipped (address seller, uint indexed clothId);\n  event LogClothReceived (address buyer, uint indexed clothId);\n  event LogOwnerCall (address owner);\n\n  constructor () {\n    _setupRole(ADMIN_ROLE, msg.sender);\n    priceFeed = AggregatorV3Interface(0x9326BFA02ADD2366b30bacB125260Af641031331);\n  }\n\n  function listClothingOnSell (\n    string memory _name,\n    uint _initialPrice,\n    string memory _description,\n    string memory _brand,\n    string memory _recommendedAge,\n    Sizes _size\n  ) public validPrice(_initialPrice) returns (uint) {\n    clothingCounter = clothingCounter + 1;\n    Cloth storage cloth = clothing[clothingCounter];\n    cloth.clothId = clothingCounter;\n    cloth.name = _name;\n    cloth.initialPrice = _initialPrice;\n    cloth.description = _description;\n    cloth.brand = _brand;\n    cloth.size = _size;\n    cloth.recommendedAge = _recommendedAge;\n    cloth.seller = payable(msg.sender);\n    cloth.state = State.LISTED;\n    emit LogListClothingForSale(msg.sender, clothingCounter);\n    return clothingCounter;\n  }\n\n  function addAddressToTempPriceAddresses (uint clothId, address buyer) private {\n    bool inArray = false;\n    Cloth storage c = clothing[clothId];\n    require (c.tempPriceAddresses.length < BARGAIN_ADDRESS_LIMIT);\n    for (uint i = 0; i < c.tempPriceAddresses.length; i++) {\n      if (buyer == c.tempPriceAddresses[i]) {\n\tinArray = true;\n\tbreak;\n      }\n    }\n    if (!inArray) {\n      c.tempPriceAddresses.push(buyer);\n    }\n  }\n\n  function bargainClothingPrice (\n    uint clothId\n  ) isListed(clothId) validPrice(msg.value) canBargain(clothing[clothId].tempPriceAddresses) public payable returns (bool) {\n    address payable potentialBuyer = payable(msg.sender);\n    Cloth storage c = clothing[clothId];\n    c.tempPrice[potentialBuyer] = msg.value;\n    c.tempPriceCounter += 1;\n    addAddressToTempPriceAddresses(clothId, msg.sender);\n    emit LogAddedBargain(potentialBuyer, clothId, msg.value);\n    return true;\n  }\n\n  function confirmNewClothingPrice (\n    uint clothId,\n    address payable potentialBuyer\n  ) verifyCaller(clothing[clothId].seller) validPrice(clothing[clothId].tempPrice[potentialBuyer]) isListed(clothId) public payable returns (bool) {\n    Cloth storage c = clothing[clothId];\n    c.agreedPrice = c.tempPrice[potentialBuyer];\n    c.buyer = potentialBuyer;\n    c.state = State.SOLD;\n    (bool sent,) = c.seller.call{value: c.agreedPrice}(\"\");\n    require (sent);\n    for (uint i = 0; i < c.tempPriceAddresses.length; i++) {\n      address a = c.tempPriceAddresses[i];\n      if (a != potentialBuyer) {\n\t(bool _sent,) = a.call{value: c.tempPrice[a]}(\"\");\n\trequire(_sent);\n      }\n    }\n    emit LogConfirmedNewPrice(c.buyer, clothId, c.agreedPrice);\n    return sent;\n  }\n\n  function buyClothingOnSell (\n    uint clothId\n  ) isListed(clothId) paidEnough(clothing[clothId].initialPrice) public payable returns (bool) {\n    Cloth storage c = clothing[clothId];\n    c.buyer = payable(msg.sender);\n    c.state = State.SOLD;\n    // transfer funds\n    (bool sent,) = c.seller.call{value: c.initialPrice}(\"\");\n    require (sent);\n    emit LogClothingBought(msg.sender, clothId);\n    return sent;\n  }\n\n  function shipClothing (uint clothId) verifyCaller(clothing[clothId].seller) isSold(clothId) public {\n    Cloth storage c = clothing[clothId];\n    c.state = State.SHIPPED;\n    emit LogClothShipped(c.seller, clothId);\n  }\n\n  function receiveClothing (uint clothId) verifyCaller(clothing[clothId].buyer) isShipped(clothId) public {\n    Cloth storage c = clothing[clothId];\n    c.state = State.RECEIVED;\n    emit LogClothReceived(c.buyer, clothId);\n  }\n\n  function getClothingById (uint clothId) public view returns (\n    string memory name,\n    string memory brand,\n    string memory description,\n    string memory recommendedAge,\n    uint initialPrice,\n    Sizes size,\n    address seller,\n    address buyer,\n    State state,\n    uint agreedPrice,\n    address[] memory tempPriceAddresses\n  ) {\n    name = clothing[clothId].name;\n    brand = clothing[clothId].brand;\n    description = clothing[clothId].description;\n    recommendedAge = clothing[clothId].recommendedAge;\n    initialPrice = clothing[clothId].initialPrice;\n    size = clothing[clothId].size;\n    seller = clothing[clothId].seller;\n    buyer = clothing[clothId].buyer;\n    state = clothing[clothId].state;\n    agreedPrice = clothing[clothId].agreedPrice;\n    tempPriceAddresses = clothing[clothId].tempPriceAddresses;\n  }\n\n  function getClothingTempPrice (uint clothId, address buyer) public view returns (uint suggestedPrice) {\n    suggestedPrice = clothing[clothId].tempPrice[buyer];\n  }\n\n  function getLatestPrice() public view returns (int) {\n    (\n\tuint80 roundID, \n\tint price,\n\tuint startedAt,\n\tuint timeStamp,\n\tuint80 answeredInRound\n    ) = priceFeed.latestRoundData();\n    return price;\n  }\n}\n",
  "sourcePath": "/home/dmartinez/projects/personal/blockchain-bootcamp/blockchain-developer-bootcamp-final-project/contracts/ClothingExchange.sol",
  "compiler": {
    "name": "solc",
    "version": "0.8.10+commit.fc410830.Emscripten.clang"
  },
  "schemaVersion": "3.4.3",
  "updatedAt": "2021-11-29T17:39:57.513Z",
  "devdoc": {
    "kind": "dev",
    "methods": {
      "getRoleAdmin(bytes32)": {
        "details": "Returns the admin role that controls `role`. See {grantRole} and {revokeRole}. To change a role's admin, use {_setRoleAdmin}."
      },
      "grantRole(bytes32,address)": {
        "details": "Grants `role` to `account`. If `account` had not been already granted `role`, emits a {RoleGranted} event. Requirements: - the caller must have ``role``'s admin role."
      },
      "hasRole(bytes32,address)": {
        "details": "Returns `true` if `account` has been granted `role`."
      },
      "renounceRole(bytes32,address)": {
        "details": "Revokes `role` from the calling account. Roles are often managed via {grantRole} and {revokeRole}: this function's purpose is to provide a mechanism for accounts to lose their privileges if they are compromised (such as when a trusted device is misplaced). If the calling account had been revoked `role`, emits a {RoleRevoked} event. Requirements: - the caller must be `account`."
      },
      "revokeRole(bytes32,address)": {
        "details": "Revokes `role` from `account`. If `account` had been granted `role`, emits a {RoleRevoked} event. Requirements: - the caller must have ``role``'s admin role."
      },
      "supportsInterface(bytes4)": {
        "details": "See {IERC165-supportsInterface}."
      }
    },
    "version": 1
  },
  "userdoc": {
    "kind": "user",
    "methods": {},
    "version": 1
  }
}