{
  "contractName": "ClothingExchange",
  "abi": [
    {
      "inputs": [],
      "stateMutability": "nonpayable",
      "type": "constructor"
    },
    {
      "anonymous": false,
      "inputs": [
        {
          "indexed": false,
          "internalType": "address",
          "name": "buyer",
          "type": "address"
        },
        {
          "indexed": true,
          "internalType": "uint256",
          "name": "clothId",
          "type": "uint256"
        },
        {
          "indexed": false,
          "internalType": "uint256",
          "name": "newPrice",
          "type": "uint256"
        }
      ],
      "name": "LogAddedBargain",
      "type": "event"
    },
    {
      "anonymous": false,
      "inputs": [
        {
          "indexed": false,
          "internalType": "address",
          "name": "buyer",
          "type": "address"
        },
        {
          "indexed": true,
          "internalType": "uint256",
          "name": "clothId",
          "type": "uint256"
        }
      ],
      "name": "LogClothReceived",
      "type": "event"
    },
    {
      "anonymous": false,
      "inputs": [
        {
          "indexed": false,
          "internalType": "address",
          "name": "seller",
          "type": "address"
        },
        {
          "indexed": true,
          "internalType": "uint256",
          "name": "clothId",
          "type": "uint256"
        }
      ],
      "name": "LogClothShipped",
      "type": "event"
    },
    {
      "anonymous": false,
      "inputs": [
        {
          "indexed": false,
          "internalType": "address",
          "name": "buyer",
          "type": "address"
        },
        {
          "indexed": true,
          "internalType": "uint256",
          "name": "clothId",
          "type": "uint256"
        }
      ],
      "name": "LogClothingBought",
      "type": "event"
    },
    {
      "anonymous": false,
      "inputs": [
        {
          "indexed": false,
          "internalType": "address",
          "name": "buyer",
          "type": "address"
        },
        {
          "indexed": true,
          "internalType": "uint256",
          "name": "clothId",
          "type": "uint256"
        },
        {
          "indexed": false,
          "internalType": "uint256",
          "name": "confirmedPrice",
          "type": "uint256"
        }
      ],
      "name": "LogConfirmedNewPrice",
      "type": "event"
    },
    {
      "anonymous": false,
      "inputs": [
        {
          "indexed": false,
          "internalType": "address",
          "name": "seller",
          "type": "address"
        },
        {
          "indexed": true,
          "internalType": "uint256",
          "name": "clothCounter",
          "type": "uint256"
        }
      ],
      "name": "LogListClothingForSale",
      "type": "event"
    },
    {
      "anonymous": false,
      "inputs": [
        {
          "indexed": false,
          "internalType": "address",
          "name": "owner",
          "type": "address"
        }
      ],
      "name": "LogOwnerCall",
      "type": "event"
    },
    {
      "anonymous": false,
      "inputs": [
        {
          "indexed": true,
          "internalType": "bytes32",
          "name": "role",
          "type": "bytes32"
        },
        {
          "indexed": true,
          "internalType": "bytes32",
          "name": "previousAdminRole",
          "type": "bytes32"
        },
        {
          "indexed": true,
          "internalType": "bytes32",
          "name": "newAdminRole",
          "type": "bytes32"
        }
      ],
      "name": "RoleAdminChanged",
      "type": "event"
    },
    {
      "anonymous": false,
      "inputs": [
        {
          "indexed": true,
          "internalType": "bytes32",
          "name": "role",
          "type": "bytes32"
        },
        {
          "indexed": true,
          "internalType": "address",
          "name": "account",
          "type": "address"
        },
        {
          "indexed": true,
          "internalType": "address",
          "name": "sender",
          "type": "address"
        }
      ],
      "name": "RoleGranted",
      "type": "event"
    },
    {
      "anonymous": false,
      "inputs": [
        {
          "indexed": true,
          "internalType": "bytes32",
          "name": "role",
          "type": "bytes32"
        },
        {
          "indexed": true,
          "internalType": "address",
          "name": "account",
          "type": "address"
        },
        {
          "indexed": true,
          "internalType": "address",
          "name": "sender",
          "type": "address"
        }
      ],
      "name": "RoleRevoked",
      "type": "event"
    },
    {
      "inputs": [],
      "name": "ADMIN_ROLE",
      "outputs": [
        {
          "internalType": "bytes32",
          "name": "",
          "type": "bytes32"
        }
      ],
      "stateMutability": "view",
      "type": "function",
      "constant": true
    },
    {
      "inputs": [],
      "name": "BARGAIN_ADDRESS_LIMIT",
      "outputs": [
        {
          "internalType": "uint256",
          "name": "",
          "type": "uint256"
        }
      ],
      "stateMutability": "view",
      "type": "function",
      "constant": true
    },
    {
      "inputs": [],
      "name": "DEFAULT_ADMIN_ROLE",
      "outputs": [
        {
          "internalType": "bytes32",
          "name": "",
          "type": "bytes32"
        }
      ],
      "stateMutability": "view",
      "type": "function",
      "constant": true
    },
    {
      "inputs": [
        {
          "internalType": "uint256",
          "name": "",
          "type": "uint256"
        }
      ],
      "name": "clothing",
      "outputs": [
        {
          "internalType": "uint256",
          "name": "clothId",
          "type": "uint256"
        },
        {
          "internalType": "string",
          "name": "name",
          "type": "string"
        },
        {
          "internalType": "uint256",
          "name": "initialPrice",
          "type": "uint256"
        },
        {
          "internalType": "string",
          "name": "description",
          "type": "string"
        },
        {
          "internalType": "string",
          "name": "brand",
          "type": "string"
        },
        {
          "internalType": "enum ClothingExchange.Sizes",
          "name": "size",
          "type": "uint8"
        },
        {
          "internalType": "string",
          "name": "recommendedAge",
          "type": "string"
        },
        {
          "internalType": "enum ClothingExchange.State",
          "name": "state",
          "type": "uint8"
        },
        {
          "internalType": "address payable",
          "name": "seller",
          "type": "address"
        },
        {
          "internalType": "address payable",
          "name": "buyer",
          "type": "address"
        },
        {
          "internalType": "uint256",
          "name": "tempPriceCounter",
          "type": "uint256"
        },
        {
          "internalType": "uint256",
          "name": "agreedPrice",
          "type": "uint256"
        }
      ],
      "stateMutability": "view",
      "type": "function",
      "constant": true
    },
    {
      "inputs": [],
      "name": "clothingCounter",
      "outputs": [
        {
          "internalType": "uint256",
          "name": "",
          "type": "uint256"
        }
      ],
      "stateMutability": "view",
      "type": "function",
      "constant": true
    },
    {
      "inputs": [
        {
          "internalType": "bytes32",
          "name": "role",
          "type": "bytes32"
        }
      ],
      "name": "getRoleAdmin",
      "outputs": [
        {
          "internalType": "bytes32",
          "name": "",
          "type": "bytes32"
        }
      ],
      "stateMutability": "view",
      "type": "function",
      "constant": true
    },
    {
      "inputs": [
        {
          "internalType": "bytes32",
          "name": "role",
          "type": "bytes32"
        },
        {
          "internalType": "address",
          "name": "account",
          "type": "address"
        }
      ],
      "name": "grantRole",
      "outputs": [],
      "stateMutability": "nonpayable",
      "type": "function"
    },
    {
      "inputs": [
        {
          "internalType": "bytes32",
          "name": "role",
          "type": "bytes32"
        },
        {
          "internalType": "address",
          "name": "account",
          "type": "address"
        }
      ],
      "name": "hasRole",
      "outputs": [
        {
          "internalType": "bool",
          "name": "",
          "type": "bool"
        }
      ],
      "stateMutability": "view",
      "type": "function",
      "constant": true
    },
    {
      "inputs": [
        {
          "internalType": "bytes32",
          "name": "role",
          "type": "bytes32"
        },
        {
          "internalType": "address",
          "name": "account",
          "type": "address"
        }
      ],
      "name": "renounceRole",
      "outputs": [],
      "stateMutability": "nonpayable",
      "type": "function"
    },
    {
      "inputs": [
        {
          "internalType": "bytes32",
          "name": "role",
          "type": "bytes32"
        },
        {
          "internalType": "address",
          "name": "account",
          "type": "address"
        }
      ],
      "name": "revokeRole",
      "outputs": [],
      "stateMutability": "nonpayable",
      "type": "function"
    },
    {
      "inputs": [
        {
          "internalType": "bytes4",
          "name": "interfaceId",
          "type": "bytes4"
        }
      ],
      "name": "supportsInterface",
      "outputs": [
        {
          "internalType": "bool",
          "name": "",
          "type": "bool"
        }
      ],
      "stateMutability": "view",
      "type": "function",
      "constant": true
    },
    {
      "inputs": [
        {
          "internalType": "string",
          "name": "_name",
          "type": "string"
        },
        {
          "internalType": "uint256",
          "name": "_initialPrice",
          "type": "uint256"
        },
        {
          "internalType": "string",
          "name": "_description",
          "type": "string"
        },
        {
          "internalType": "string",
          "name": "_brand",
          "type": "string"
        },
        {
          "internalType": "string",
          "name": "_recommendedAge",
          "type": "string"
        },
        {
          "internalType": "enum ClothingExchange.Sizes",
          "name": "_size",
          "type": "uint8"
        }
      ],
      "name": "listClothingOnSell",
      "outputs": [
        {
          "internalType": "uint256",
          "name": "",
          "type": "uint256"
        }
      ],
      "stateMutability": "nonpayable",
      "type": "function"
    },
    {
      "inputs": [
        {
          "internalType": "uint256",
          "name": "clothId",
          "type": "uint256"
        }
      ],
      "name": "bargainClothingPrice",
      "outputs": [
        {
          "internalType": "bool",
          "name": "",
          "type": "bool"
        }
      ],
      "stateMutability": "payable",
      "type": "function",
      "payable": true
    },
    {
      "inputs": [
        {
          "internalType": "uint256",
          "name": "clothId",
          "type": "uint256"
        },
        {
          "internalType": "address payable",
          "name": "potentialBuyer",
          "type": "address"
        }
      ],
      "name": "confirmNewClothingPrice",
      "outputs": [
        {
          "internalType": "bool",
          "name": "",
          "type": "bool"
        }
      ],
      "stateMutability": "payable",
      "type": "function",
      "payable": true
    },
    {
      "inputs": [
        {
          "internalType": "uint256",
          "name": "clothId",
          "type": "uint256"
        }
      ],
      "name": "buyClothingOnSell",
      "outputs": [
        {
          "internalType": "bool",
          "name": "",
          "type": "bool"
        }
      ],
      "stateMutability": "payable",
      "type": "function",
      "payable": true
    },
    {
      "inputs": [
        {
          "internalType": "uint256",
          "name": "clothId",
          "type": "uint256"
        }
      ],
      "name": "shipClothing",
      "outputs": [],
      "stateMutability": "nonpayable",
      "type": "function"
    },
    {
      "inputs": [
        {
          "internalType": "uint256",
          "name": "clothId",
          "type": "uint256"
        }
      ],
      "name": "receiveClothing",
      "outputs": [],
      "stateMutability": "nonpayable",
      "type": "function"
    },
    {
      "inputs": [
        {
          "internalType": "uint256",
          "name": "clothId",
          "type": "uint256"
        }
      ],
      "name": "getClothingById",
      "outputs": [
        {
          "internalType": "string",
          "name": "name",
          "type": "string"
        },
        {
          "internalType": "string",
          "name": "brand",
          "type": "string"
        },
        {
          "internalType": "string",
          "name": "description",
          "type": "string"
        },
        {
          "internalType": "string",
          "name": "recommendedAge",
          "type": "string"
        },
        {
          "internalType": "uint256",
          "name": "initialPrice",
          "type": "uint256"
        },
        {
          "internalType": "enum ClothingExchange.Sizes",
          "name": "size",
          "type": "uint8"
        },
        {
          "internalType": "address",
          "name": "seller",
          "type": "address"
        },
        {
          "internalType": "address",
          "name": "buyer",
          "type": "address"
        },
        {
          "internalType": "enum ClothingExchange.State",
          "name": "state",
          "type": "uint8"
        },
        {
          "internalType": "uint256",
          "name": "agreedPrice",
          "type": "uint256"
        },
        {
          "internalType": "address[]",
          "name": "tempPriceAddresses",
          "type": "address[]"
        }
      ],
      "stateMutability": "view",
      "type": "function",
      "constant": true
    },
    {
      "inputs": [
        {
          "internalType": "uint256",
          "name": "clothId",
          "type": "uint256"
        },
        {
          "internalType": "address",
          "name": "buyer",
          "type": "address"
        }
      ],
      "name": "getClothingTempPrice",
      "outputs": [
        {
          "internalType": "uint256",
          "name": "suggestedPrice",
          "type": "uint256"
        }
      ],
      "stateMutability": "view",
      "type": "function",
      "constant": true
    }
  ],
  "bytecode": "0x60806040523480156200001157600080fd5b50620000447fa49807205ce4d355092ef5a8a18f56e8913cf4a201fbe287825b095693c21775336200004a60201b60201c565b620001c3565b6200005c82826200006060201b60201c565b5050565b6200007282826200015160201b60201c565b6200014d57600160008084815260200190815260200160002060000160008373ffffffffffffffffffffffffffffffffffffffff1673ffffffffffffffffffffffffffffffffffffffff16815260200190815260200160002060006101000a81548160ff021916908315150217905550620000f2620001bb60201b60201c565b73ffffffffffffffffffffffffffffffffffffffff168173ffffffffffffffffffffffffffffffffffffffff16837f2f8788117e7eff1d82e926ec794901d17c78024a50270940304540a733656f0d60405160405180910390a45b5050565b600080600084815260200190815260200160002060000160008373ffffffffffffffffffffffffffffffffffffffff1673ffffffffffffffffffffffffffffffffffffffff16815260200190815260200160002060009054906101000a900460ff16905092915050565b600033905090565b6131a580620001d36000396000f3fe6080604052600436106101145760003560e01c80636f5c94b0116100a0578063a217fddf11610064578063a217fddf146103f6578063b97ed92014610421578063d547741f1461045e578063f2f08a2214610487578063f53d7dd1146104b257610114565b80636f5c94b01461030357806375b238fc146103335780637aef088d1461035e57806391d14854146103895780639716e068146103c657610114565b8063265449bb116100e7578063265449bb146101e55780632a5e1d7e146102225780632f2ff15d1461026a57806336568abe1461029357806338bd8ae0146102bc57610114565b806301ffc9a7146101195780631ff5713e14610156578063201757561461017f578063248a9ca3146101a8575b600080fd5b34801561012557600080fd5b50610140600480360381019061013b91906122e7565b6104e2565b60405161014d919061232f565b60405180910390f35b34801561016257600080fd5b5061017d60048036038101906101789190612380565b61055c565b005b34801561018b57600080fd5b506101a660048036038101906101a19190612380565b6106c6565b005b3480156101b457600080fd5b506101cf60048036038101906101ca91906123e3565b610830565b6040516101dc919061241f565b60405180910390f35b3480156101f157600080fd5b5061020c60048036038101906102079190612498565b61084f565b60405161021991906124e7565b60405180910390f35b34801561022e57600080fd5b5061024960048036038101906102449190612380565b6108ad565b6040516102619c9b9a9998979695949392919061267b565b60405180910390f35b34801561027657600080fd5b50610291600480360381019061028c9190612751565b610b87565b005b34801561029f57600080fd5b506102ba60048036038101906102b59190612751565b610bb0565b005b3480156102c857600080fd5b506102e360048036038101906102de9190612380565b610c33565b6040516102fa9b9a9998979695949392919061285e565b60405180910390f35b61031d60048036038101906103189190612380565b611064565b60405161032a919061232f565b60405180910390f35b34801561033f57600080fd5b50610348611248565b604051610355919061241f565b60405180910390f35b34801561036a57600080fd5b5061037361126c565b60405161038091906124e7565b60405180910390f35b34801561039557600080fd5b506103b060048036038101906103ab9190612751565b611272565b6040516103bd919061232f565b60405180910390f35b6103e060048036038101906103db9190612958565b6112dc565b6040516103ed919061232f565b60405180910390f35b34801561040257600080fd5b5061040b611770565b604051610418919061241f565b60405180910390f35b34801561042d57600080fd5b5061044860048036038101906104439190612af2565b611777565b60405161045591906124e7565b60405180910390f35b34801561046a57600080fd5b5061048560048036038101906104809190612751565b611949565b005b34801561049357600080fd5b5061049c611972565b6040516104a991906124e7565b60405180910390f35b6104cc60048036038101906104c79190612380565b611977565b6040516104d9919061232f565b60405180910390f35b60007f7965db0b000000000000000000000000000000000000000000000000000000007bffffffffffffffffffffffffffffffffffffffffffffffffffffffff1916827bffffffffffffffffffffffffffffffffffffffffffffffffffffffff19161480610555575061055482611b8c565b5b9050919050565b6002600082815260200190815260200160002060080160009054906101000a900473ffffffffffffffffffffffffffffffffffffffff168073ffffffffffffffffffffffffffffffffffffffff163373ffffffffffffffffffffffffffffffffffffffff16146105cb57600080fd5b81600360048111156105e0576105df61259b565b5b6002600083815260200190815260200160002060070160009054906101000a900460ff1660048111156106165761061561259b565b5b1461062057600080fd5b600060026000858152602001908152602001600020905060048160070160006101000a81548160ff0219169083600481111561065f5761065e61259b565b5b0217905550837ff029cc62c2e487d7d873b093f0801c5c6908090fd67b3d552bd72f17edb979418260080160009054906101000a900473ffffffffffffffffffffffffffffffffffffffff166040516106b89190612c4e565b60405180910390a250505050565b6002600082815260200190815260200160002060070160019054906101000a900473ffffffffffffffffffffffffffffffffffffffff168073ffffffffffffffffffffffffffffffffffffffff163373ffffffffffffffffffffffffffffffffffffffff161461073557600080fd5b816002600481111561074a5761074961259b565b5b6002600083815260200190815260200160002060070160009054906101000a900460ff1660048111156107805761077f61259b565b5b1461078a57600080fd5b600060026000858152602001908152602001600020905060038160070160006101000a81548160ff021916908360048111156107c9576107c861259b565b5b0217905550837f3222cb4554805c01c84958d24ca1cd3c62209de61fc8891ace8e0cc26b2b6dac8260070160019054906101000a900473ffffffffffffffffffffffffffffffffffffffff166040516108229190612c4e565b60405180910390a250505050565b6000806000838152602001908152602001600020600101549050919050565b60006002600084815260200190815260200160002060090160008373ffffffffffffffffffffffffffffffffffffffff1673ffffffffffffffffffffffffffffffffffffffff16815260200190815260200160002054905092915050565b60026020528060005260406000206000915090508060000154908060010180546108d690612c98565b80601f016020809104026020016040519081016040528092919081815260200182805461090290612c98565b801561094f5780601f106109245761010080835404028352916020019161094f565b820191906000526020600020905b81548152906001019060200180831161093257829003601f168201915b50505050509080600201549080600301805461096a90612c98565b80601f016020809104026020016040519081016040528092919081815260200182805461099690612c98565b80156109e35780601f106109b8576101008083540402835291602001916109e3565b820191906000526020600020905b8154815290600101906020018083116109c657829003601f168201915b5050505050908060040180546109f890612c98565b80601f0160208091040260200160405190810160405280929190818152602001828054610a2490612c98565b8015610a715780601f10610a4657610100808354040283529160200191610a71565b820191906000526020600020905b815481529060010190602001808311610a5457829003601f168201915b5050505050908060050160009054906101000a900460ff1690806006018054610a9990612c98565b80601f0160208091040260200160405190810160405280929190818152602001828054610ac590612c98565b8015610b125780601f10610ae757610100808354040283529160200191610b12565b820191906000526020600020905b815481529060010190602001808311610af557829003601f168201915b5050505050908060070160009054906101000a900460ff16908060070160019054906101000a900473ffffffffffffffffffffffffffffffffffffffff16908060080160009054906101000a900473ffffffffffffffffffffffffffffffffffffffff169080600a01549080600b015490508c565b610b9082610830565b610ba181610b9c611bf6565b611bfe565b610bab8383611c9b565b505050565b610bb8611bf6565b73ffffffffffffffffffffffffffffffffffffffff168173ffffffffffffffffffffffffffffffffffffffff1614610c25576040517f08c379a0000000000000000000000000000000000000000000000000000000008152600401610c1c90612d3c565b60405180910390fd5b610c2f8282611d7b565b5050565b6060806060806000806000806000806060600260008d81526020019081526020016000206001018054610c6590612c98565b80601f0160208091040260200160405190810160405280929190818152602001828054610c9190612c98565b8015610cde5780601f10610cb357610100808354040283529160200191610cde565b820191906000526020600020905b815481529060010190602001808311610cc157829003601f168201915b50505050509a50600260008d81526020019081526020016000206004018054610d0690612c98565b80601f0160208091040260200160405190810160405280929190818152602001828054610d3290612c98565b8015610d7f5780601f10610d5457610100808354040283529160200191610d7f565b820191906000526020600020905b815481529060010190602001808311610d6257829003601f168201915b50505050509950600260008d81526020019081526020016000206003018054610da790612c98565b80601f0160208091040260200160405190810160405280929190818152602001828054610dd390612c98565b8015610e205780601f10610df557610100808354040283529160200191610e20565b820191906000526020600020905b815481529060010190602001808311610e0357829003601f168201915b50505050509850600260008d81526020019081526020016000206006018054610e4890612c98565b80601f0160208091040260200160405190810160405280929190818152602001828054610e7490612c98565b8015610ec15780601f10610e9657610100808354040283529160200191610ec1565b820191906000526020600020905b815481529060010190602001808311610ea457829003601f168201915b50505050509750600260008d8152602001908152602001600020600201549650600260008d815260200190815260200160002060050160009054906101000a900460ff169550600260008d815260200190815260200160002060070160019054906101000a900473ffffffffffffffffffffffffffffffffffffffff169450600260008d815260200190815260200160002060080160009054906101000a900473ffffffffffffffffffffffffffffffffffffffff169350600260008d815260200190815260200160002060070160009054906101000a900460ff169250600260008d8152602001908152602001600020600b01549150600260008d8152602001908152602001600020600c0180548060200260200160405190810160405280929190818152602001828054801561104e57602002820191906000526020600020905b8160009054906101000a900473ffffffffffffffffffffffffffffffffffffffff1673ffffffffffffffffffffffffffffffffffffffff1681526020019060010190808311611004575b5050505050905091939597999b90929496989a50565b6000816001600481111561107b5761107a61259b565b5b6002600083815260200190815260200160002060070160009054906101000a900460ff1660048111156110b1576110b061259b565b5b146110bb57600080fd5b6002600084815260200190815260200160002060020154803410156110df57600080fd5b6000600260008681526020019081526020016000209050338160080160006101000a81548173ffffffffffffffffffffffffffffffffffffffff021916908373ffffffffffffffffffffffffffffffffffffffff16021790555060028160070160006101000a81548160ff021916908360048111156111615761116061259b565b5b021790555060008160070160019054906101000a900473ffffffffffffffffffffffffffffffffffffffff1673ffffffffffffffffffffffffffffffffffffffff1682600201546040516111b490612d8d565b60006040518083038185875af1925050503d80600081146111f1576040519150601f19603f3d011682016040523d82523d6000602084013e6111f6565b606091505b505090508061120457600080fd5b857f25a00cdd1befd37a459f2ea4bdcb9994c9cf8562fb15b97e519af8bc81320a88336040516112349190612da2565b60405180910390a280945050505050919050565b7fa49807205ce4d355092ef5a8a18f56e8913cf4a201fbe287825b095693c2177581565b60015481565b600080600084815260200190815260200160002060000160008373ffffffffffffffffffffffffffffffffffffffff1673ffffffffffffffffffffffffffffffffffffffff16815260200190815260200160002060009054906101000a900460ff16905092915050565b60006002600084815260200190815260200160002060070160019054906101000a900473ffffffffffffffffffffffffffffffffffffffff168073ffffffffffffffffffffffffffffffffffffffff163373ffffffffffffffffffffffffffffffffffffffff161461134d57600080fd5b6002600085815260200190815260200160002060090160008473ffffffffffffffffffffffffffffffffffffffff1673ffffffffffffffffffffffffffffffffffffffff16815260200190815260200160002054600081116113e4576040517f08c379a00000000000000000000000000000000000000000000000000000000081526004016113db90612e09565b60405180910390fd5b84600160048111156113f9576113f861259b565b5b6002600083815260200190815260200160002060070160009054906101000a900460ff16600481111561142f5761142e61259b565b5b1461143957600080fd5b60006002600088815260200190815260200160002090508060090160008773ffffffffffffffffffffffffffffffffffffffff1673ffffffffffffffffffffffffffffffffffffffff1681526020019081526020016000205481600b0181905550858160080160006101000a81548173ffffffffffffffffffffffffffffffffffffffff021916908373ffffffffffffffffffffffffffffffffffffffff16021790555060028160070160006101000a81548160ff021916908360048111156115055761150461259b565b5b021790555060008160070160019054906101000a900473ffffffffffffffffffffffffffffffffffffffff1673ffffffffffffffffffffffffffffffffffffffff1682600b015460405161155890612d8d565b60006040518083038185875af1925050503d8060008114611595576040519150601f19603f3d011682016040523d82523d6000602084013e61159a565b606091505b50509050806115a857600080fd5b60005b82600c01805490508110156116ff57600083600c0182815481106115d2576115d1612e29565b5b9060005260206000200160009054906101000a900473ffffffffffffffffffffffffffffffffffffffff1690508873ffffffffffffffffffffffffffffffffffffffff168173ffffffffffffffffffffffffffffffffffffffff16146116eb5760008173ffffffffffffffffffffffffffffffffffffffff168560090160008473ffffffffffffffffffffffffffffffffffffffff1673ffffffffffffffffffffffffffffffffffffffff1681526020019081526020016000205460405161169990612d8d565b60006040518083038185875af1925050503d80600081146116d6576040519150601f19603f3d011682016040523d82523d6000602084013e6116db565b606091505b50509050806116e957600080fd5b505b5080806116f790612e87565b9150506115ab565b50877f28d7dc338fbcdc1b2259a6b057ec4e405005fe2b3dc1afc4111c3481bc09898d8360080160009054906101000a900473ffffffffffffffffffffffffffffffffffffffff1684600b015460405161175a929190612ed0565b60405180910390a2809550505050505092915050565b6000801b81565b600085600081116117bd576040517f08c379a00000000000000000000000000000000000000000000000000000000081526004016117b490612e09565b60405180910390fd5b600060026000600154815260200190815260200160002090506001548160000181905550888160010190805190602001906117f99291906121d8565b508781600201819055508681600301908051906020019061181b9291906121d8565b50858160040190805190602001906118349291906121d8565b50838160050160006101000a81548160ff0219169083600381111561185c5761185b61259b565b5b0217905550848160060190805190602001906118799291906121d8565b50338160070160016101000a81548173ffffffffffffffffffffffffffffffffffffffff021916908373ffffffffffffffffffffffffffffffffffffffff16021790555060018160070160006101000a81548160ff021916908360048111156118e5576118e461259b565b5b0217905550600180546118f89190612ef9565b6001819055506001547fa6574571418e0054a458dc54b5f95baa2679290b3db6bbcb023fba3980726cc3336040516119309190612da2565b60405180910390a2600154925050509695505050505050565b61195282610830565b6119638161195e611bf6565b611bfe565b61196d8383611d7b565b505050565b600581565b6000816001600481111561198e5761198d61259b565b5b6002600083815260200190815260200160002060070160009054906101000a900460ff1660048111156119c4576119c361259b565b5b146119ce57600080fd5b3460008111611a12576040517f08c379a0000000000000000000000000000000000000000000000000000000008152600401611a0990612e09565b60405180910390fd5b60026000858152602001908152602001600020600c01805480602002602001604051908101604052809291908181526020018280548015611aa857602002820191906000526020600020905b8160009054906101000a900473ffffffffffffffffffffffffffffffffffffffff1673ffffffffffffffffffffffffffffffffffffffff1681526020019060010190808311611a5e575b5050505050600581511115611abc57600080fd5b60003390506000600260008881526020019081526020016000209050348160090160008473ffffffffffffffffffffffffffffffffffffffff1673ffffffffffffffffffffffffffffffffffffffff16815260200190815260200160002081905550600181600a016000828254611b339190612ef9565b92505081905550611b448733611e5c565b867fde0477600eae6a9400d74ad2fa3259d55706c84a4e070d578eb31e5c6f6c958e8334604051611b76929190612ed0565b60405180910390a2600195505050505050919050565b60007f01ffc9a7000000000000000000000000000000000000000000000000000000007bffffffffffffffffffffffffffffffffffffffffffffffffffffffff1916827bffffffffffffffffffffffffffffffffffffffffffffffffffffffff1916149050919050565b600033905090565b611c088282611272565b611c9757611c2d8173ffffffffffffffffffffffffffffffffffffffff166014611f9c565b611c3b8360001c6020611f9c565b604051602001611c4c929190613023565b6040516020818303038152906040526040517f08c379a0000000000000000000000000000000000000000000000000000000008152600401611c8e919061305d565b60405180910390fd5b5050565b611ca58282611272565b611d7757600160008084815260200190815260200160002060000160008373ffffffffffffffffffffffffffffffffffffffff1673ffffffffffffffffffffffffffffffffffffffff16815260200190815260200160002060006101000a81548160ff021916908315150217905550611d1c611bf6565b73ffffffffffffffffffffffffffffffffffffffff168173ffffffffffffffffffffffffffffffffffffffff16837f2f8788117e7eff1d82e926ec794901d17c78024a50270940304540a733656f0d60405160405180910390a45b5050565b611d858282611272565b15611e5857600080600084815260200190815260200160002060000160008373ffffffffffffffffffffffffffffffffffffffff1673ffffffffffffffffffffffffffffffffffffffff16815260200190815260200160002060006101000a81548160ff021916908315150217905550611dfd611bf6565b73ffffffffffffffffffffffffffffffffffffffff168173ffffffffffffffffffffffffffffffffffffffff16837ff6391f5c32d9c69d2a47ea670b442974b53935d1edc7fd64eb21e047a839171b60405160405180910390a45b5050565b600080600260008581526020019081526020016000209050600581600c018054905010611e8857600080fd5b60005b81600c0180549050811015611f2a5781600c018181548110611eb057611eaf612e29565b5b9060005260206000200160009054906101000a900473ffffffffffffffffffffffffffffffffffffffff1673ffffffffffffffffffffffffffffffffffffffff168473ffffffffffffffffffffffffffffffffffffffff161415611f175760019250611f2a565b8080611f2290612e87565b915050611e8b565b5081611f965780600c01839080600181540180825580915050600190039060005260206000200160009091909190916101000a81548173ffffffffffffffffffffffffffffffffffffffff021916908373ffffffffffffffffffffffffffffffffffffffff1602179055505b50505050565b606060006002836002611faf919061307f565b611fb99190612ef9565b67ffffffffffffffff811115611fd257611fd16129a2565b5b6040519080825280601f01601f1916602001820160405280156120045781602001600182028036833780820191505090505b5090507f30000000000000000000000000000000000000000000000000000000000000008160008151811061203c5761203b612e29565b5b60200101907effffffffffffffffffffffffffffffffffffffffffffffffffffffffffffff1916908160001a9053507f7800000000000000000000000000000000000000000000000000000000000000816001815181106120a05761209f612e29565b5b60200101907effffffffffffffffffffffffffffffffffffffffffffffffffffffffffffff1916908160001a905350600060018460026120e0919061307f565b6120ea9190612ef9565b90505b600181111561218a577f3031323334353637383961626364656600000000000000000000000000000000600f86166010811061212c5761212b612e29565b5b1a60f81b82828151811061214357612142612e29565b5b60200101907effffffffffffffffffffffffffffffffffffffffffffffffffffffffffffff1916908160001a905350600485901c945080612183906130d9565b90506120ed565b50600084146121ce576040517f08c379a00000000000000000000000000000000000000000000000000000000081526004016121c59061314f565b60405180910390fd5b8091505092915050565b8280546121e490612c98565b90600052602060002090601f016020900481019282612206576000855561224d565b82601f1061221f57805160ff191683800117855561224d565b8280016001018555821561224d579182015b8281111561224c578251825591602001919060010190612231565b5b50905061225a919061225e565b5090565b5b8082111561227757600081600090555060010161225f565b5090565b6000604051905090565b600080fd5b600080fd5b60007fffffffff0000000000000000000000000000000000000000000000000000000082169050919050565b6122c48161228f565b81146122cf57600080fd5b50565b6000813590506122e1816122bb565b92915050565b6000602082840312156122fd576122fc612285565b5b600061230b848285016122d2565b91505092915050565b60008115159050919050565b61232981612314565b82525050565b60006020820190506123446000830184612320565b92915050565b6000819050919050565b61235d8161234a565b811461236857600080fd5b50565b60008135905061237a81612354565b92915050565b60006020828403121561239657612395612285565b5b60006123a48482850161236b565b91505092915050565b6000819050919050565b6123c0816123ad565b81146123cb57600080fd5b50565b6000813590506123dd816123b7565b92915050565b6000602082840312156123f9576123f8612285565b5b6000612407848285016123ce565b91505092915050565b612419816123ad565b82525050565b60006020820190506124346000830184612410565b92915050565b600073ffffffffffffffffffffffffffffffffffffffff82169050919050565b60006124658261243a565b9050919050565b6124758161245a565b811461248057600080fd5b50565b6000813590506124928161246c565b92915050565b600080604083850312156124af576124ae612285565b5b60006124bd8582860161236b565b92505060206124ce85828601612483565b9150509250929050565b6124e18161234a565b82525050565b60006020820190506124fc60008301846124d8565b92915050565b600081519050919050565b600082825260208201905092915050565b60005b8381101561253c578082015181840152602081019050612521565b8381111561254b576000848401525b50505050565b6000601f19601f8301169050919050565b600061256d82612502565b612577818561250d565b935061258781856020860161251e565b61259081612551565b840191505092915050565b7f4e487b7100000000000000000000000000000000000000000000000000000000600052602160045260246000fd5b600481106125db576125da61259b565b5b50565b60008190506125ec826125ca565b919050565b60006125fc826125de565b9050919050565b61260c816125f1565b82525050565b600581106126235761262261259b565b5b50565b600081905061263482612612565b919050565b600061264482612626565b9050919050565b61265481612639565b82525050565b60006126658261243a565b9050919050565b6126758161265a565b82525050565b600061018082019050612691600083018f6124d8565b81810360208301526126a3818e612562565b90506126b2604083018d6124d8565b81810360608301526126c4818c612562565b905081810360808301526126d8818b612562565b90506126e760a083018a612603565b81810360c08301526126f98189612562565b905061270860e083018861264b565b61271661010083018761266c565b61272461012083018661266c565b6127326101408301856124d8565b6127406101608301846124d8565b9d9c50505050505050505050505050565b6000806040838503121561276857612767612285565b5b6000612776858286016123ce565b925050602061278785828601612483565b9150509250929050565b61279a8161245a565b82525050565b600081519050919050565b600082825260208201905092915050565b6000819050602082019050919050565b6127d58161245a565b82525050565b60006127e783836127cc565b60208301905092915050565b6000602082019050919050565b600061280b826127a0565b61281581856127ab565b9350612820836127bc565b8060005b8381101561285157815161283888826127db565b9750612843836127f3565b925050600181019050612824565b5085935050505092915050565b6000610160820190508181036000830152612879818e612562565b9050818103602083015261288d818d612562565b905081810360408301526128a1818c612562565b905081810360608301526128b5818b612562565b90506128c4608083018a6124d8565b6128d160a0830189612603565b6128de60c0830188612791565b6128eb60e0830187612791565b6128f961010083018661264b565b6129076101208301856124d8565b81810361014083015261291a8184612800565b90509c9b505050505050505050505050565b6129358161265a565b811461294057600080fd5b50565b6000813590506129528161292c565b92915050565b6000806040838503121561296f5761296e612285565b5b600061297d8582860161236b565b925050602061298e85828601612943565b9150509250929050565b600080fd5b600080fd5b7f4e487b7100000000000000000000000000000000000000000000000000000000600052604160045260246000fd5b6129da82612551565b810181811067ffffffffffffffff821117156129f9576129f86129a2565b5b80604052505050565b6000612a0c61227b565b9050612a1882826129d1565b919050565b600067ffffffffffffffff821115612a3857612a376129a2565b5b612a4182612551565b9050602081019050919050565b82818337600083830152505050565b6000612a70612a6b84612a1d565b612a02565b905082815260208101848484011115612a8c57612a8b61299d565b5b612a97848285612a4e565b509392505050565b600082601f830112612ab457612ab3612998565b5b8135612ac4848260208601612a5d565b91505092915050565b60048110612ada57600080fd5b50565b600081359050612aec81612acd565b92915050565b60008060008060008060c08789031215612b0f57612b0e612285565b5b600087013567ffffffffffffffff811115612b2d57612b2c61228a565b5b612b3989828a01612a9f565b9650506020612b4a89828a0161236b565b955050604087013567ffffffffffffffff811115612b6b57612b6a61228a565b5b612b7789828a01612a9f565b945050606087013567ffffffffffffffff811115612b9857612b9761228a565b5b612ba489828a01612a9f565b935050608087013567ffffffffffffffff811115612bc557612bc461228a565b5b612bd189828a01612a9f565b92505060a0612be289828a01612add565b9150509295509295509295565b6000819050919050565b6000612c14612c0f612c0a8461243a565b612bef565b61243a565b9050919050565b6000612c2682612bf9565b9050919050565b6000612c3882612c1b565b9050919050565b612c4881612c2d565b82525050565b6000602082019050612c636000830184612c3f565b92915050565b7f4e487b7100000000000000000000000000000000000000000000000000000000600052602260045260246000fd5b60006002820490506001821680612cb057607f821691505b60208210811415612cc457612cc3612c69565b5b50919050565b7f416363657373436f6e74726f6c3a2063616e206f6e6c792072656e6f756e636560008201527f20726f6c657320666f722073656c660000000000000000000000000000000000602082015250565b6000612d26602f8361250d565b9150612d3182612cca565b604082019050919050565b60006020820190508181036000830152612d5581612d19565b9050919050565b600081905092915050565b50565b6000612d77600083612d5c565b9150612d8282612d67565b600082019050919050565b6000612d9882612d6a565b9150819050919050565b6000602082019050612db76000830184612791565b92915050565b7f5072696365206d7573742062652067726561746572207468616e203000000000600082015250565b6000612df3601c8361250d565b9150612dfe82612dbd565b602082019050919050565b60006020820190508181036000830152612e2281612de6565b9050919050565b7f4e487b7100000000000000000000000000000000000000000000000000000000600052603260045260246000fd5b7f4e487b7100000000000000000000000000000000000000000000000000000000600052601160045260246000fd5b6000612e928261234a565b91507fffffffffffffffffffffffffffffffffffffffffffffffffffffffffffffffff821415612ec557612ec4612e58565b5b600182019050919050565b6000604082019050612ee56000830185612c3f565b612ef260208301846124d8565b9392505050565b6000612f048261234a565b9150612f0f8361234a565b9250827fffffffffffffffffffffffffffffffffffffffffffffffffffffffffffffffff03821115612f4457612f43612e58565b5b828201905092915050565b600081905092915050565b7f416363657373436f6e74726f6c3a206163636f756e7420000000000000000000600082015250565b6000612f90601783612f4f565b9150612f9b82612f5a565b601782019050919050565b6000612fb182612502565b612fbb8185612f4f565b9350612fcb81856020860161251e565b80840191505092915050565b7f206973206d697373696e6720726f6c6520000000000000000000000000000000600082015250565b600061300d601183612f4f565b915061301882612fd7565b601182019050919050565b600061302e82612f83565b915061303a8285612fa6565b915061304582613000565b91506130518284612fa6565b91508190509392505050565b600060208201905081810360008301526130778184612562565b905092915050565b600061308a8261234a565b91506130958361234a565b9250817fffffffffffffffffffffffffffffffffffffffffffffffffffffffffffffffff04831182151516156130ce576130cd612e58565b5b828202905092915050565b60006130e48261234a565b915060008214156130f8576130f7612e58565b5b600182039050919050565b7f537472696e67733a20686578206c656e67746820696e73756666696369656e74600082015250565b600061313960208361250d565b915061314482613103565b602082019050919050565b600060208201905081810360008301526131688161312c565b905091905056fea264697066735822122064464edf35e0cb4d9306418fa68915031f326dd214dded3760974ac0aea30b7e64736f6c634300080a0033",
  "immutableReferences": {},
  "source": "// SPDX-License-Identifier: MIT\nimport \"@openzeppelin/contracts/access/AccessControl.sol\";\n// import \"@chainlink/contracts/src/v0.8/interfaces/AggregatorV3Interface.sol\";\n\npragma solidity ^0.8.7;\n\ncontract ClothingExchange is AccessControl {\n\n  // AggregatorV3Interface internal priceFeed;\n  bytes32 public constant ADMIN_ROLE = keccak256(\"ADMIN_ROLE\");\n\n  enum State {\n    EMPTY,\n    LISTED,\n    SOLD,\n    SHIPPED,\n    RECEIVED\n  }\n\n  enum Sizes {\n    SMALL,\n    MEDIUM,\n    LARGE,\n    XLARGE\n  }\n\n  uint public clothingCounter;\n  uint public constant BARGAIN_ADDRESS_LIMIT = 5; // Limit the number of buyers that can bargain a garment\n\n  struct Cloth {\n    uint clothId;\n    string name;\n    uint initialPrice;\n    string description;\n    string brand;\n    Sizes size;\n    string recommendedAge;\n    State state;\n    address payable seller;\n    address payable buyer;\n    mapping (address => uint) tempPrice;\n    uint tempPriceCounter;\n    uint agreedPrice;\n    address[] tempPriceAddresses;\n  }\n\n  mapping (uint => Cloth) public clothing;\n\n  // Modifiers\n  modifier isOwner () {\n    require (hasRole(ADMIN_ROLE, msg.sender), \"Is not owner\");\n    _;\n  }\n\n  modifier validPrice (uint _price) {\n    require (_price > 0, \"Price must be greater than 0\");\n    _;\n  }\n\n  modifier isListed (uint clothId) {\n    require (clothing[clothId].state == State.LISTED);\n    _;\n  }\n\n  modifier canBargain (address[] memory tempPriceAddresses) {\n    require (tempPriceAddresses.length <= BARGAIN_ADDRESS_LIMIT);\n    _;\n  } \n  modifier isSold (uint clothId) {\n    require (clothing[clothId].state == State.SOLD);\n    _;\n  }\n  modifier isShipped (uint clothId) {\n    require (clothing[clothId].state == State.SHIPPED);\n    _;\n  }\n  modifier verifyCaller (address caller) {\n    require (msg.sender == caller);\n    _;\n  }\n  modifier paidEnough (uint price) {\n    require (msg.value >= price);\n    _;\n  }\n\n  // Events\n  event LogListClothingForSale (address seller, uint indexed clothCounter);\n  event LogAddedBargain (address buyer, uint indexed clothId, uint newPrice);\n  event LogConfirmedNewPrice (address buyer, uint indexed clothId, uint confirmedPrice);\n  event LogClothingBought (address buyer, uint indexed clothId);\n  event LogClothShipped (address seller, uint indexed clothId);\n  event LogClothReceived (address buyer, uint indexed clothId);\n  event LogOwnerCall (address owner);\n\n  constructor () {\n    _setupRole(ADMIN_ROLE, msg.sender);\n    // priceFeed = AggregatorV3Interface(0x8A753747A1Fa494EC906cE90E9f37563A8AF630e);\n  }\n\n  function listClothingOnSell (\n    string memory _name,\n    uint _initialPrice,\n    string memory _description,\n    string memory _brand,\n    string memory _recommendedAge,\n    Sizes _size\n  ) public validPrice(_initialPrice) returns (uint) {\n    Cloth storage cloth = clothing[clothingCounter];\n    cloth.clothId = clothingCounter;\n    cloth.name = _name;\n    cloth.initialPrice = _initialPrice;\n    cloth.description = _description;\n    cloth.brand = _brand;\n    cloth.size = _size;\n    cloth.recommendedAge = _recommendedAge;\n    cloth.seller = payable(msg.sender);\n    cloth.state = State.LISTED;\n    clothingCounter = clothingCounter + 1;\n    emit LogListClothingForSale(msg.sender, clothingCounter);\n    return clothingCounter;\n  }\n\n  function addAddressToTempPriceAddresses (uint clothId, address buyer) private {\n    bool inArray = false;\n    Cloth storage c = clothing[clothId];\n    require (c.tempPriceAddresses.length < BARGAIN_ADDRESS_LIMIT);\n    for (uint i = 0; i < c.tempPriceAddresses.length; i++) {\n      if (buyer == c.tempPriceAddresses[i]) {\n\tinArray = true;\n\tbreak;\n      }\n    }\n    if (!inArray) {\n      c.tempPriceAddresses.push(buyer);\n    }\n  }\n\n  function bargainClothingPrice (\n    uint clothId\n  ) isListed(clothId) validPrice(msg.value) canBargain(clothing[clothId].tempPriceAddresses) public payable returns (bool) {\n    address payable potentialBuyer = payable(msg.sender);\n    Cloth storage c = clothing[clothId];\n    c.tempPrice[potentialBuyer] = msg.value;\n    c.tempPriceCounter += 1;\n    addAddressToTempPriceAddresses(clothId, msg.sender);\n    emit LogAddedBargain(potentialBuyer, clothId, msg.value);\n    return true;\n  }\n\n  function confirmNewClothingPrice (\n    uint clothId,\n    address payable potentialBuyer\n  ) verifyCaller(clothing[clothId].seller) validPrice(clothing[clothId].tempPrice[potentialBuyer]) isListed(clothId) public payable returns (bool) {\n    Cloth storage c = clothing[clothId];\n    c.agreedPrice = c.tempPrice[potentialBuyer];\n    c.buyer = potentialBuyer;\n    c.state = State.SOLD;\n    (bool sent,) = c.seller.call{value: c.agreedPrice}(\"\");\n    require (sent);\n    for (uint i = 0; i < c.tempPriceAddresses.length; i++) {\n      address a = c.tempPriceAddresses[i];\n      if (a != potentialBuyer) {\n\t(bool _sent,) = a.call{value: c.tempPrice[a]}(\"\");\n\trequire(_sent);\n      }\n    }\n    emit LogConfirmedNewPrice(c.buyer, clothId, c.agreedPrice);\n    return sent;\n  }\n\n  function buyClothingOnSell (\n    uint clothId\n  ) isListed(clothId) paidEnough(clothing[clothId].initialPrice) public payable returns (bool) {\n    Cloth storage c = clothing[clothId];\n    c.buyer = payable(msg.sender);\n    c.state = State.SOLD;\n    // transfer funds\n    (bool sent,) = c.seller.call{value: c.initialPrice}(\"\");\n    require (sent);\n    emit LogClothingBought(msg.sender, clothId);\n    return sent;\n  }\n\n  function shipClothing (uint clothId) verifyCaller(clothing[clothId].seller) isSold(clothId) public {\n    Cloth storage c = clothing[clothId];\n    c.state = State.SHIPPED;\n    emit LogClothShipped(c.seller, clothId);\n  }\n\n  function receiveClothing (uint clothId) verifyCaller(clothing[clothId].buyer) isShipped(clothId) public {\n    Cloth storage c = clothing[clothId];\n    c.state = State.RECEIVED;\n    emit LogClothReceived(c.buyer, clothId);\n  }\n\n  function getClothingById (uint clothId) public view returns (\n    string memory name,\n    string memory brand,\n    string memory description,\n    string memory recommendedAge,\n    uint initialPrice,\n    Sizes size,\n    address seller,\n    address buyer,\n    State state,\n    uint agreedPrice,\n    address[] memory tempPriceAddresses\n  ) {\n    name = clothing[clothId].name;\n    brand = clothing[clothId].brand;\n    description = clothing[clothId].description;\n    recommendedAge = clothing[clothId].recommendedAge;\n    initialPrice = clothing[clothId].initialPrice;\n    size = clothing[clothId].size;\n    seller = clothing[clothId].seller;\n    buyer = clothing[clothId].buyer;\n    state = clothing[clothId].state;\n    agreedPrice = clothing[clothId].agreedPrice;\n    tempPriceAddresses = clothing[clothId].tempPriceAddresses;\n  }\n\n  function getClothingTempPrice (uint clothId, address buyer) public view returns (uint suggestedPrice) {\n    suggestedPrice = clothing[clothId].tempPrice[buyer];\n  }\n}\n",
  "sourcePath": "/home/dmartinez/projects/personal/blockchain-bootcamp/blockchain-developer-bootcamp-final-project/contracts/ClothingExchange.sol",
  "compiler": {
    "name": "solc",
    "version": "0.8.10+commit.fc410830.Emscripten.clang"
  },
  "schemaVersion": "3.4.3",
  "updatedAt": "2021-11-30T02:36:49.571Z",
  "networkType": "ethereum",
  "devdoc": {
    "kind": "dev",
    "methods": {
      "getRoleAdmin(bytes32)": {
        "details": "Returns the admin role that controls `role`. See {grantRole} and {revokeRole}. To change a role's admin, use {_setRoleAdmin}."
      },
      "grantRole(bytes32,address)": {
        "details": "Grants `role` to `account`. If `account` had not been already granted `role`, emits a {RoleGranted} event. Requirements: - the caller must have ``role``'s admin role."
      },
      "hasRole(bytes32,address)": {
        "details": "Returns `true` if `account` has been granted `role`."
      },
      "renounceRole(bytes32,address)": {
        "details": "Revokes `role` from the calling account. Roles are often managed via {grantRole} and {revokeRole}: this function's purpose is to provide a mechanism for accounts to lose their privileges if they are compromised (such as when a trusted device is misplaced). If the calling account had been revoked `role`, emits a {RoleRevoked} event. Requirements: - the caller must be `account`."
      },
      "revokeRole(bytes32,address)": {
        "details": "Revokes `role` from `account`. If `account` had been granted `role`, emits a {RoleRevoked} event. Requirements: - the caller must have ``role``'s admin role."
      },
      "supportsInterface(bytes4)": {
        "details": "See {IERC165-supportsInterface}."
      }
    },
    "version": 1
  },
  "userdoc": {
    "kind": "user",
    "methods": {},
    "version": 1
  }
}